:10000000F866002015010000110100003F1C0000EF
:1000100000000000000000000000000000000000E0
:1000200000000000000000000000000011010000BE
:10003000000000000000000011010000110100009C
:100040001101000011010000450200001101000033
:10005000451F00001101000011010000F110000017
:100060001101000011010000110100001101000048
:100070001101000011010000110100001101000038
:100080001101000011010000110100001101000028
:100090001101000011010000110100001101000018
:1000A0001101000011010000110100001101000008
:1000B00010B5064C2378002B07D1054B002B02D03E
:1000C000044800E000BF0123237010BD1805002084
:1000D000000000007C33000008B5084B002B03D063
:1000E0000748084900E000BF07480368002B00D11B
:1000F00008BD064B002BFBD09847F9E70000000035
:100100007C3300001C0500207C3300000000000050
:10011000FEE700000F48104910B50023884201D1C6
:100120000E4B07E00E4CCA18A242F9D2C458043351
:100130001460F7E70B4A934202D2002204C3F9E7A6
:100140007F21094B094A8B43936002F0B5FF02F00F
:10015000CDFDFEE77C3300000000002018050020E4
:1001600018050020F84600200000000000ED00E027
:10017000102337B53149324C8A691A438A61227893
:10018000D20959D1C2780733002A55D0017991425A
:1001900052D8417991424FD8022223789343237059
:1001A000E3795BB2002BFBDB4378002B35D0051CD9
:1001B000837801A903200B7001F00CFD032001F0EE
:1001C000CFFC2B78002B02D0032001F00FFDEB7841
:1001D0002A79013B0421002A07D022780A432270A1
:1001E0002A79013A8A40134302E022788A43227036
:1001F000E27952B2002AFBDB114ADBB253706B7911
:10020000002B0CD12B78002B0ED0802322781343A7
:100210002370E3795BB2002BFBDB00230CE0E27977
:1002200052B2002A03DAFAE723780222EFE7013B11
:10023000034ADBB29370E5E7181C3EBD00040040A2
:1002400000100040012208B5034B9A71034B1B6854
:10025000002B00D0984708BD00100040440B002040
:10026000EFF3108072B6BFF35F8F0022024B1A705B
:10027000434258417047C046080000200F23034006
:100280005B00C0091818142302385843014B181892
:100290007047C04638050020F0B58D7985B06BB247
:1002A0000E1C0F27281C002B46DAFFF7E7FF2F4014
:1002B0000197038A816802937688C368041CF61844
:1002C000C660877C8E4221D08D1B4A4BADB29D42C9
:1002D00006D9181C029902F0C3FE464B5D1AADB256
:1002E0000022BB0706D5281C029902F0C9FD89B27D
:1002F0004A424A4151000222A37C3F48934362682C
:100300001943A174921901992B1C0AE00223381C8D
:10031000184009D09F430023626837480199A774A9
:10032000921900F07DFE63E001239F432368A774C8
:10033000311C002B5AD15BE0FFF7A0FF2F40029742
:10034000038A041C0193837C37885B0711D5C2683C
:1003500043689446806863440199039302F090FDDA
:10036000029B0A1C591E254B8901C918039802F0EB
:10037000C7FEE368FA18A368E2609A4200D9E36016
:10038000B288BA4229D1E6689E4226D09D1B194FF9
:10039000ADB2BD4205D9381C019902F061FE7B1A4D
:1003A00004E0281C019902F06BFD6B1A019A9BB2C4
:1003B000114893420BD20422A37C02991343A374E5
:1003C000029B5A1E0D4B9201D218019B02E06268FB
:1003D0000299921900F048FE0AE00122A37C93439F
:1003E000A3742368002B03D00020E1682A1C9847DF
:1003F00005B0F0BDFF1F0000080C0020480B0020D6
:10040000052210B5054C064B201C80211A7000F007
:10041000CAFD201C002100F0D3FD10BD080C0020F7
:10042000B405002037B5041C01F098FE8023226833
:1004300001AD9372281C00F0CDFC0323291C201C65
:100440006B7000F0CFFC201C134900F02FFE201C25
:1004500000210222114B00F005FC0021201C0A1C87
:100460000F4B00F0FFFB0F4B201C0021012200F07E
:10047000F9FB201C0021022200F01CFC0021201CA2
:100480000A1C00F017FC201C0021012200F012FCC5
:100490000022054B1A7037BD880D0020950600001C
:1004A000D9080000E1040000B4050020032210B5C3
:1004B000074C084B201C08491A7000F0F7FD00217A
:1004C000064B201C9A680B1C00F0AAFD10BDC0460C
:1004D000080C0020B4050020880D0020700D0020BD
:1004E00008B589790C4B4AB2002A08DA1B78012B2F
:1004F00002D1FFF7DBFF0DE0042B0BD107E01A78E8
:10050000022A02D102321A7004E0032A02D10348FF
:1005100000F049FD08BDC046B4050020080C0020CD
:10052000F8B51D4D1D4E2988B4891D4F641AA4B21B
:10053000002C1BD11B4A1388CB189BB21380F28866
:100540009A4203D0184B1B78002B07D00422174B7C
:10055000381C17491A7000F0A9FD1CE07369002BC4
:100560000BD09847002808D02C80B4893F2C04D9A0
:1005700000220D4B40241A7002E001220A4B1A702F
:100580002B88B268381CD2180021231C00F048FDCB
:100590002B88E4182C80F8BDB0050020700D0020D9
:1005A000080C002034050020B2050020B40500200E
:1005B000880D002008B501F0F1FD08BD002805D028
:1005C0000122034B1A70BFF35F8F62B67047C046BB
:1005D00008000020F0B585B003AE041C1149301CA2
:1005E000042202F08DFD104B1D780193A54217D017
:1005F000002C08D0375DFFF733FE0C4AD35D013382
:10060000D355FFF7DBFF002D08D0755DFFF728FEFF
:10061000064A535D013B5355FFF7D0FF019B1C7009
:1006200005B0F0BD38330000B3050020090F0020ED
:1006300010B5064C0421201C00F006FB0221201CF2
:1006400000F0F2FA0120FFF7C5FF10BD080C0020F2
:10065000064B9A8C920605D4D022D9680A40D02A3B
:10066000FAD102E0DA68D206FCD5704700080040F3
:1006700010B5FFF7EDFF064C0221201C00F0E4FA54
:100680000421201C00F0D0FA0320FFF7A3FF10BDC7
:10069000080C002070B5284E0C1C3378002B06D0B7
:1006A000264B1B69002B00D098470023337023880A
:1006B000082B02D0FFF7A4FE3CE0214C1F4D23780D
:1006C0002B7063786B70E378A2781B02D3186B8071
:1006D000637922791B02D318AB80E379A2791B02DC
:1006E000D318EB8001F076FD0028E3D02B787F2B28
:1006F0000ED90021134B221C1980134B134819806B
:10070000022333703E3300F0AFFCFFF709FF11E026
:10071000EB88002B02D1FFF7C9FE0BE00021094B4B
:100720000A481980084B221C1980012333703F337B
:1007300000F09AFC70BDC046B4050020700D00208A
:10074000880D002034050020B0050020080C002092
:1007500038B5041C0A48211C00F000FC201CFFF7DF
:100760008DFD031C827C0120024207D01D6882435C
:100770009A74002D02D0D968221CA84738BDC04603
:10078000080C002000207047024B1B68188A800468
:10079000400D7047080C0020024B1B68188A80B27D
:1007A0007047C046080C0020F7B5041C002601ADB8
:1007B000281C00F00FFB201CFFF7CAFF094F291C63
:1007C000381CEE702C7000F00DFB0F21321C214004
:1007D000381C00F05BFA381C321C211C00F0B2FA05
:1007E000F7BDC046080C0020F7B5061C01AC201C64
:1007F0000F1C151C00F0EEFA26700023082D1ED9E0
:100800000123102D1BD90223202D18D90323402D9D
:1008100015D90423802D12D980235B009D4201D875
:10082000FB3B0CE080239B009D4202D8FB3BFF3B3F
:1008300005E0194B9D4201D900202BE00723301C15
:100840006370FFF71BFD0323391C05821940012942
:1008500001D1013B04E0022902D00329ECD1042399
:100860000E4D211C281CE37000F0BCFA041EE3D1DD
:100870000F210B4B3140221C281C00F0F3F9311CD6
:10088000221C281C00F016FA281C311C012200F042
:1008900011FA0120FEBDC046FF030000080C002035
:1008A0009902000008B5011C014800F06DFB08BD6D
:1008B000080C00200F2310B50340041C0020032B5C
:1008C00007D80448211C00F06EFB201CFFF740FFF6
:1008D000012010BD080C0020F7B52B4A13780192B7
:1008E000012B42D1294E2A4D0F883488AB89E21959
:1008F000934201DA1F1BBFB2AB68264918193A1C94
:100900003C1902F0FDFBA3B23380224C402F05D1ED
:10091000214FE9883A88D218914210DCAB816B698B
:10092000002B09D09847002806D10523019A002002
:100930001370FFF7BFFF25E0FFF7B8FD22E0AA899B
:100940009A420BD16B69002BEFD098470028ECD06E
:1009500032883B88D3183B80002333800021221C3F
:1009600040230E4800F080FB0CE0022B02D1FFF781
:10097000D7FD07E0064B1B69002B00D098470023EA
:10098000019A1370F7BDC046B4050020B0050020E1
:10099000700D0020880D002034050020080C002078
:1009A00038B50F2300240340032B0FD8041CFFF796
:1009B00065FC051C211C0124054800F001FBAB7CF3
:1009C000234203D0A343AB742B689847201C38BD47
:1009D000080C0020F0B51D1C0F2385B00340071C38
:1009E000039101920093032B01D9002691E0FFF7B8
:1009F00059FF061EF9D1381CFFF740FC041CFFF715
:100A00002FFC0122A37C1A40029202D0FFF7D6FDF0
:100A10007FE001221343A374FFF7D0FD01220221DE
:100A2000019BA5606360029BE3600A9B2360039BBC
:100A300013405A00A37C8B43134304229343A374B3
:100A40007BB2002B36DAA67C002D1AD0324FADB225
:100A5000BD4205D9218A381C02F002FB7D1AADB2D5
:100A60000021B30706D5218A281C02F009FA89B2B1
:100A70004B4259410222A37C490093431943A1747C
:100A800011E00E4202D08E43A6740CE001239E4377
:100A9000A6740A9B002B04D000203A1C011C0A9B60
:100AA0009847012635E00099019A2B1C1B4800F05D
:100AB000B7FA25E0002D27D0174EADB2278AB542F0
:100AC00005D9301C391C02F0CBFA731A04E0281C3B
:100AD000391C02F0D5F96B1A9BB21048BB420BD2FD
:100AE0000422A37C00991343A374009B5A1E0C4B51
:100AF0009201D2183B1C01E00099019A00F0B4FA6F
:100B000046424641F6B204E00122A37C9343A3741B
:100B1000BFE7301C05B0F0BDFF1F0000080C00202F
:100B2000480B0020024B1A688023184390727047CC
:100B3000080C0020024B1B68987A7F2318407047EE
:100B4000080C0020014B986099817047700D0020BF
:100B500038B501250320FFF73DFD154C042122681F
:100B6000201C1389AB431381124A00F04DF8201C5E
:100B70000021114A00F048F8291C201C0F4A00F0FF
:100B800043F80F4A201C022100F03EF8201C0421EB
:100B900000F04AF8201C002100F046F8291C201C17
:100BA00000F042F8201C022100F03EF838BDC0469B
:100BB000080C002031060000B505000025040000E7
:100BC0007106000073B5FFF74BFB01AC061C201C3F
:100BD00000F072FC00230A4D0A49221C281CA37055
:100BE00000F072FC281C00F079FAFFF731FD0120BB
:100BF000FFF7F0FCFFF7ACFF301CFFF7DFFC73BD25
:100C0000080C0020005000410B1C2E339B001A5092
:100C1000AA22044B52004900C95A835A0B438352FB
:100C2000002070473C330000064B4900CB5AAB21F3
:100C3000026849009383425A1A43425202680020D4
:100C4000138370473C330000054B4900CA5AAB215F
:100C50004900435A93434352036800209A827047E5
:100C60003C33000010B58C00A4183434A4000419DF
:100C7000401863605930044BFF3001789B5C0B4394
:100C80000370002010BDC0464A33000010B5002498
:100C90008B009B1834339B00C31841185C6059319A
:100CA000034BFF319A5C0B78201C93430B7010BDF3
:100CB0004A3300000F2370B50B40C4186134204D37
:100CC000FF342678AD5C35432570002A0FD10268C9
:100CD000002B03D1131C0322FF332DE05B01D3183B
:100CE00049B2FF330222002926DB012224E0012A37
:100CF0000FD10268002B03D1131C0C22FF331BE021
:100D00005B01D31849B2FF330822002914DB042207
:100D100012E0022A05D102685B01D318FF331022CA
:100D20000AE0032A09D102685B01D31849B2FF33F4
:100D30004022002900DB20229A72002070BDC046AC
:100D40004A3300000F2370B50B40C418204D6134A6
:100D5000FF34AE5C2578B5432570002A0FD10268B8
:100D6000002B03D1131C0322FF332DE05B01D318AA
:100D700049B2FF330222002926DB012224E0012AA6
:100D80000FD10268002B03D1131C0C22FF331BE090
:100D90005B01D31849B2FF330822002914DB042277
:100DA00012E0022A05D102685B01D318FF3310223A
:100DB0000AE0032A09D102685B01D31849B2FF3364
:100DC0004022002900DB20225A72002070BDC0465C
:100DD0004A33000000230370437083700133C370F3
:100DE000704700000F23F0B5051C0A78C87813403F
:100DF000D209042800D990E02C6801F0B1FF030863
:100E0000495B7500002008335B01E054A0E05E01FF
:100E1000A419FF3462781C20520700D098E0702299
:100E20006778174200D093E05F3A62702A6808330F
:100E30005B01D218243050712A68464CD3188022A6
:100E40001A718B78002B08D08025A31958682D06BD
:100E5000284358605A692A4307E0A3195A68520088
:100E600052085A605A69520052085A61072248785B
:100E7000A51910400407384E686830402043686068
:100E80004B781A406B691207334013436B615AE089
:100E900058012418FF34002A06D0702667781C20D9
:100EA000374255D1043010E066781C2076074FD1C8
:100EB0001A382AE058012418FF34002A0ED0702670
:100EC00067781C20374243D114306070181C2C689E
:100ED000083040012018802404711EE066781C2030
:100EE000760735D1193810E058012418FF34002A4C
:100EF00006D0702667781C20374229D12430E4E7D9
:100F000066781C20760723D118386070181C2C686E
:100F1000083040012018402444715B009B180D4AA2
:100F20001B01D318072248785C68024010070A4A60
:100F3000224002435A6088785A68002805D08021F0
:100F400009060A435A60002002E0520052085A6023
:100F5000F0BDC046C80D0020FFFFFF8F0F230B40E0
:100F6000026808335B0149B2D218002905DA8021F2
:100F700011710268D318022204E040215171026805
:100F8000D3180122DA7170470F230B40026808332F
:100F90005B01D31849B29879002901DA800600E094
:100FA000C006C00F70470F230B40026808335B0177
:100FB00049B2D3182022002900DB10225A71704751
:100FC0000F2330B50B4002685C011219FF3249B2A1
:100FD000D579002911DA20210D4220D05171026803
:100FE00014194022FF34217A114218D0227202686B
:100FF00008335B01D318022210E010210D420ED0FD
:101000005171026814192022FF34217A114206D04E
:101010002272026808335B01D31801221A7130BDB5
:1010200070B50C1C056808346401665D1C207606EA
:10103000760F13D00A4849014118081C0A61496912
:10104000084A9B040A4042619A0C43692C199B0B85
:101050009B031343436180230020637170BDC0462E
:10106000C80D0020FF3F00F070B50C1C0568083467
:101070006401665D1C20760712D00A4849010A50B7
:101080009B04411848681A09074B2C190340134365
:101090004B604B6800209B0B9B034B6040232371EC
:1010A00070BDC046C80D0020FF3F00F0094B0A4A42
:1010B000196059680A40802189020A435A605A68B7
:1010C000920B92035A60402203680020FF335A714A
:1010D0007047C046C80D0020FF3F00F002210268A3
:1010E00013780B43137002689378022BFCD070477F
:1010F000F0B5D54E85B033681F6801933B78DB09A6
:1011000000D1C6E0388C80B201F0B6FF0323410164
:101110007A18FF32177A041CFFB21F4247D0CB481F
:101120001372844601206546A0402D68019A8543CC
:10113000281C6546286001201219A83292790242C3
:1011400035D0221CC248019D047008322D6852011E
:10115000525D1340BF4A5118012B0CD14B689B04C0
:101160009B0C43804B681B019B0C83804B689B0B43
:101170009B034B6013E04B681B019B0C43804A6848
:101180009204920C82804A6894466546B24A2A408C
:101190004A60002B03D14B689B049B0C4380019A4F
:1011A000A31C1B01D3185B68101CA9499847042293
:1011B00017420DD00123A340A44908689843A24BCD
:1011C00008601B681968231C08335B01CB18DA71AF
:1011D000082217421DD00123A3409C490868984368
:1011E00008603068A31801685B01CB18DA71031935
:1011F000A8339B799B070CD59549964A6301D31870
:101200000C70DA891F2313404B702301C3189B6AAB
:101210009847102217421FD00123A3408B4908682A
:101220009843231C08603068083301685B01CB18C1
:10123000DA710319A8339B795B070DD5844A854978
:101240006301CB1814705B6800211B019B0C538059
:101250002301C318DB6A98472022174200D124E1FA
:101260000123A340794908689843231C086030682B
:10127000083301685B01CB18DA710319A8339B7935
:101280001B0700D411E172490C7024010419236B6F
:1012900004E13A8C92B20292002A2BD1AB23019A3C
:1012A0005B00D35AAA22BC8B01995200A4B28D5A7A
:1012B0002340029F1D40694B7A00D35A1C4202D042
:1012C0003268126893831D4210D06549062F06D1FB
:1012D0008022604B52001B891B0913400B603B1C92
:1012E00032682E339B009B58101C98470137072FFC
:1012F000E1D1DAE0019E5936FF36029A01211A4106
:10130000DCB20A4200D1CBE0191C3578307A0831C2
:10131000284060254A01BA180392D279D2B210400F
:101320002A421AD05A01BF184022FF37397A114297
:1013300003D03A72C03A144304E02022397A1142B1
:1013400002D03A72474A94716022104200D1ACE058
:10135000019A1B01D318DC339DE010252A4218D0D6
:10136000039AD571019AD2186132FF3212782A425B
:1013700000D19AE037495A018A18526839499204D3
:10138000920C0A80019A1B01D318D8335B68101C99
:1013900084E00C252A4242D05E01BF19FF373A7A19
:1013A00094460822654615421ED03A720227294A01
:1013B0009619B27E18363A4202D0B278BA43B27069
:1013C000802252421443274A49019471019A1268BB
:1013D0005118CA79920768D40C22104265D0019A3C
:1013E0001B01D318D43356E03A7A9446042265465A
:1013F0001542F1D03A720227164A9219967A0832AB
:101400003E4202D09678BE439670164A49019471C6
:10141000019A12685118CA79D207DDD545E09207C2
:101420003ED0022259017F18FF373E7A16421BD068
:101430003A72823A0B4E1443064AB47151184A6903
:101440009204920C728020E0D0050020C405002098
:10145000BC050020C80D0020FF3F00F03C33000019
:10146000B8050020C805002001253A7A2A420CD090
:101470000F4E104A3D72B47151184A689204920C92
:1014800032804A681201920CB28082070DD00D336F
:10149000019A1B01D318101C5B680549984704E0AA
:1014A00001330136082B00D027E705B0F0BDC04658
:1014B000C8050020C80D00200022012302704370DF
:1014C0008270C370704700000023F0B585B00192B0
:1014D000041C634A0D1C1360624A216010602020C6
:1014E00061490627CA6903AE0243CA61012208386E
:1014F000311C7370B270F370377000F001F919206D
:10150000311C377000F0FCF8019B02AA9B78111C7B
:10151000381C137000F05EFB381C00F021FB012228
:101520002B7813432B70AB78DB07FCD41F204F497B
:101530000B685B0B0340834200D1052303409A01F3
:101540002E8D4B4B334013432B850B689B0C034074
:101550001F2B00D1023B1F202A8D034082431343DF
:101560002B8507230A68D20D1A409A4200D1032224
:101570001340298D1A033F4B3F480B4013432B85E3
:10158000019B29781B78DA017F230B4013432B70D2
:10159000019B04215A78012313409A002B788B4336
:1015A00013432B70019B6862DB78012B04D1226806
:1015B000083113898B4306E0002B05D10C252268E6
:1015C0001389AB430B43138180220021520001F0A9
:1015D000D5FD231C221D2433002102C29A42FBD1D7
:1015E000211CA43100221A605A609A60DA6010331C
:1015F0008B42F7D11A70231C211CA5331A70AE310F
:10160000013300221A701A7201338B42F9D1221C65
:10161000231CB832D433002102C29A42FBD1211CD0
:101620005531FF3100221A605A609A60DA60103337
:101630008B42F7D1AA235B00E2520233E252231C11
:1016400061345933FF33FF340020187018720133AE
:10165000A342F9D18022094B1A6005B0F0BDC04603
:10166000C4050020D0050020000400402460800054
:101670003FF8FFFFFF8FFFFFC80D002000E100E0F3
:10168000002330B5D4789C421AD11478802C03D032
:10169000802324065B02234302255478AC4309D1FE
:1016A0009478002C02D18024A40201E0C024E4023A
:1016B000234341605478013C012C01D80F4C234056
:1016C000A0258CB2ED052C43D0251C4384622D0649
:1016D0000C0C2C431C438462D478002C0CD15B038B
:1016E00005D59378012B01D1816100E041615378E8
:1016F000013B012B00D8816030BDC046FFFFFBFFDE
:1017000010B500240A1C4309C109A14202D10649AF
:10171000DB015C181F21012301408B40201C191C98
:10172000FFF7AEFF10BDC0460044004102210B4B45
:101730001A680A431A601A687E318A43084992B2CD
:101740008A84C868064AC006FBD599680020D16221
:10175000596891621B689BB293847047D40500203E
:101760000008004010B5082806D801F0F9FA07056E
:10177000053030120A15280000202CE0164B18699D
:1017800029E0164B186A164B8005800FC340181CC1
:1017900021E0114B58691EE002230F4C20681840CD
:1017A00019D00E4BDB68DB06FBD523685B0711D530
:1017B000002000F02FFAA3689BB258430BE0094BBE
:1017C00000201B785B0706D5034BD86803E0802018
:1017D000000200E0044810BDD405002000080040CD
:1017E00000127A0050080040006CDC0270B5012144
:1017F0008678057842784020094C0A40236A920195
:101800008343134380223140C90193430B437D3A04
:10181000044915402D020B402B43236270BDC04686
:1018200000080040FFFCFFFF027A438992069B05F7
:101830009B0D120C1A43154B30B55A6042888488B0
:1018400081791443C2790A4341782243C90104785B
:101850000A431A60042C0ED1027B018A92060A43C5
:10186000151CC2890A4912040A402A439A601A6860
:1018700014431C6008E0202C06D18421028AC90090
:101880009A601A680A431A6030BDC046D405002029
:101890000000FF0308B5082806D801F061FA130517
:1018A00005270D19071F2200172020E00221104AEA
:1018B000136A0B43136219E002210D4A93690B432B
:1018C000936113E002210A4A138A0B4313820DE04D
:1018D0000221074A938A0B43938207E0FFF726FF12
:1018E00005E00221034A13780B431370002008BD62
:1018F0000008004044080040C2231E2170B5344D4A
:10190000344ADB00AB6053688AB08B431A390B430F
:1019100053600023202205A843808371437007335E
:1019200003733833C3812C4B02701A68920E3F2A1E
:1019300000D1203A294B2A491B689B059B0D8B42FD
:1019400000D1284B43810823C371F8338380264B91
:10195000027200260382FFF767FF012301A883704C
:1019600046700670FFF742FF0620FFF793FF00F076
:1019700045F8032302AC237004201D33211C63604F
:1019800066702672667200F049F8042000F094F840
:10199000FFF7CCFEEB680E4ADB06FBD58021002565
:1019A000938C281C0B439384104B07221D725D728D
:1019B0009D720123211C6360227023726570657221
:1019C00000F02CF8281C00F077F80AB070BDC04673
:1019D0000008004000400041246080002860800032
:1019E000FF030000FF01000080BBFFFF0004004078
:1019F000014B5878C0097047000C00400821054A87
:101A000093690B4393610122034B1A701A78D20732
:101A1000FCD4704700040040000C004070B50C7806
:101A20004B782402061C051C0443002B02D08023A3
:101A3000DB021C434B7A002B02D080231B031C4388
:101A40004B68012B12D95D1E1D400AD102229A4219
:101A500002D201355200FAE780232D0235435B03A1
:101A600003E01D02802335439B021C430B7A002BAD
:101A700002D080239B031C43FFF7BAFF0028FBD151
:101A800000F098FA0A4B1E70FFF7B2FF0028FBD156
:101A9000084B9D601D1CFFF7ABFF0028FBD1802386
:101AA0006A685B0213401C436C6000F09DFA70BDD5
:101AB000080C0040000C004010B5041CFFF798FF14
:101AC0000028FBD100F076FA074B1C70FFF790FF5F
:101AD0000028FBD18021054A490253680B4353601B
:101AE00000F082FA10BDC046040C0040000C00401B
:101AF000F8B5071CFFF77CFF0028FBD1154E00F05E
:101B000059FA3770FFF774FF0028FBD1124C606858
:101B1000C004C00EFFF726FE051C377066680F4B29
:101B2000F602F60F1F70FFF763FF0028FBD1A468D1
:101B3000240AA4B200F058FA002E07D1012C07D9CC
:101B4000281C211C01F016F9051C01E00134E540B8
:101B5000281CF8BD040C0040000C0040080C00409C
:101B600010B5041C00F026FA8021054B054A1C70B4
:101B70005388C9010B43538000F036FA10BDC046AC
:101B8000020C0040000C004010B5041C00F012FADA
:101B90000C4B0D4A1C700D4B598858880905104094
:101BA00058805C880A48090F204058805C880748A4
:101BB0006404FBD40B0241880A401A43428000F0BF
:101BC00013FA10BD020C0040FFF0FFFF000C0040B4
:101BD000FFBFFFFF10B50C7824020443FFF7D4FFCA
:101BE000014BA4B25C8010BD000C004010B5041C79
:101BF00000F0E0F98021054B054A1C705388C901AB
:101C00000B43538000F0F0F910BDC046020C0040B9
:101C1000000C004010B5041C00F0CCF9054B1C7002
:101C2000054B5C8800F0E0F92405240F201CFFF729
:101C30005FFF10BD020C0040000C00407047FEE743
:101C400008B5FFF759FEFFF7F9FFFFF7F7FF00F0C0
:101C50004BF908BD024B187D012318407047C04660
:101C600000400041042138B51E4A1F4CD369051CB1
:101C70000B43D3612022238BFF3213432383FFF7CF
:101C8000E9FF031C0520002B2BD0C021E8786B78DE
:101C90008004DB0118432B7889001B020B401A1CBF
:101CA000031CA878134340001E21021C0A40C021D7
:101CB0001343181C2B7989021B040B401A1C031CAC
:101CC000082113436360A368084A5B035B0F9940D4
:101CD0001180A36853806B781371208BC005C00FEF
:101CE000000138BD0004004000400041EC05002028
:101CF000F8B51F4B5A881B885A431823914234D891
:101D0000802320221B4DDB026F68FF323B436B6058
:101D10002B8B0C1C13432B83061CFFF79BFF052307
:101D2000002822D0062E06D89E420BD2022E0DD0BD
:101D3000042E19D10AE0402E16D3412E06D9452E85
:101D400007D911E02A8B1023D2050ED4A408640011
:101D5000EC61A520000206432E80FFF77BFF0028E0
:101D6000FBD06F60002300E01723181CF8BDC046AD
:101D7000EC05002000400041F8B5204B1C885F882E
:101D800018236743B84237D8651E054234D1013B5A
:101D9000A24231D8151C0E1C041CFFF75BFF052363
:101DA000002829D0164F174B3B80FFF753FF002820
:101DB000FBD020223B8BFF3213433B830023600880
:101DC00040009AB2AA420ED29AB26F1EB15CBA42D9
:101DD00001DB8AB203E0B218527812020A431918E2
:101DE0000A800233EDE700233F2D05D81A1C04209A
:101DF000211CFFF77DFF031C181CF8BDEC0500201B
:101E00000040004144A5FFFFF8B5184B1D885C88D1
:101E100018236C43A04226D86C1E044023D1013BFA
:101E2000AA4220D8161C0F1C051CFFF713FF052320
:101E3000002818D020210E4AFF31138B6D080B4368
:101E400013836D00A3B2B3420CD263191B88A2B2F4
:101E50009BB2711EBB548A4202DABA181B0A537035
:101E60000234EFE70023181CF8BDC046EC05002043
:101E70000040004138B50F4B1C885A881823624334
:101E8000904215D8A400013C044011D1051CFFF775
:101E9000E1FE052300280BD02021074BFF311A8BD0
:101EA000AD080A431A83054A6D00DD611A80231CC0
:101EB000181C38BDEC0500200040004102A5FFFFC2
:101EC000014B5878C009704700180040022108B53E
:101ED000044A13780B431370FFF7F2FF0028FBD17D
:101EE00008BDC0460018004007B54021114A052032
:101EF00093690B439361002301A90B70FFF76AFEFE
:101F00000520FFF72DFE01210B4A13780B431370B8
:101F1000FFF7D6FF0028FBD10022084BC31804307E
:101F20001A604028F8D1064B10321A60FFF7CEFF36
:101F300007BDC0460004004000180040C80E002045
:101F400000E100E0002310B50A4C237023780F2B2A
:101F50000FD801229A4008490869104206D00A6148
:101F6000064A9B009B58002B00D0984723780133EA
:101F7000EBE710BD080F002000180040C80E00203D
:101F800008B50020FFF7B4FDFA21890000F0F2FE49
:101F9000FA21054B8900186000F0ECFE0522034B86
:101FA0001860034B1A6008BD0400002000000020E8
:101FB00010E000E0094B196800290BD1EFF3108005
:101FC000074A002805D172B6BFF35F8F0549087034
:101FD000012111701A6801321A607047F40500205F
:101FE000F805002008000020084B1A68013A1A6022
:101FF0001B68002B09D1064B1B78002B05D0012252
:10200000044B1A70BFF35F8F62B67047F40500206F
:10201000F80500200800002008B5034B58887F23EE
:102020001840FEF77FFD08BD700D002030B5134B42
:102030001B78002B01D100201FE0114B1B681B688F
:102040001A798242F7D90F4A1360DC789D7824020E
:102050002C431C199C420ED95D78042D08D19D7823
:10206000854205D1DD788D4202D11360012004E064
:102070001D785B19EEE71360DDE730BD0406002034
:10208000FC05002008060020094B1B681968CA7867
:102090008B7812021A438A180378C018824205D935
:1020A0004378042B02D0052BF6D100E000207047C6
:1020B000FC05002038B5051CFFF7B8FF002801D14A
:1020C000002018E00C4B1C68201CFFF7DDFF041EED
:1020D0000AD06279237912028078E1781A43FEF7F8
:1020E00083FB0028F0D1EBE7044BAD001B685B6875
:1020F000EB581B68984738BD08060020FC050020F7
:1021000070B50021041CFFF791FF002801D10025C4
:1021100019E00E4BA2001B685B68D658F36898471D
:10212000011C201CFFF782FF051EF0D0084B1C6825
:10213000201CFFF7A9FF041E03D08078FEF734FBB4
:10214000F6E773689847281C70BDC046FC05002060
:102150000806002008B5FEF735FD08BD38B5002497
:102160000B4B1A781D1CA24205D1002301222B70B3
:10217000084B1A8038BD084B1B681B681B79A342AB
:10218000F3D9201C0134FFF7BBFFE4B2F3E7C046EC
:102190000406002002060020FC05002010B50024E3
:1021A0000A4B1B78A3420FD0094B1B681A6812799F
:1021B000A24209D95B68A200D3581B69002B00D04A
:1021C00098470134E4B2EFE710BDC0460406002092
:1021D000FC050020002370B59A4C2278A38150B2F0
:1021E00023616361984203DAE388002B00D19AE10E
:1021F0006021114000D04DE11F23002800DBA6E044
:10220000E588002D00D145E1134069D16378062BA4
:1022100009D0082B5CD0002B00D03BE18A48022D6E
:1022200000D037E158E063881D0A022D0CD006D893
:10223000012D00D02EE1854B186801783FE0032D79
:102240001FD00F2D13D025E1804ADBB21168497CE5
:10225000994200D81EE15268DB009858C178837813
:1022600009021943FEF76EFCA3685D7029E0774B05
:102270009868002800D10DE1C178837809021943DC
:102280001DE0DBB2012B0AD0002B05D0022B00D0C1
:1022900000E113216E4D04E06E4804210FE0082197
:1022A0006D4D00236D485A00EE5C82180133568054
:1022B000DAB28A42F6D349000231017089B2FEF7E0
:1022C00041FCE388A2899A4200D82AE1A38128E14F
:1022D000012D00D0DEE06248291CFEF733FC20E12E
:1022E000012B23D163780A2B00D0D3E0012D00D03D
:1022F000D0E05B4B1B78002B00D1CBE0594B25790C
:102300001E6833681B79AB4200D8C3E0281CFFF776
:102310008DFE002800D1BDE07368AD00EB58DB688E
:102320009847514B01211870181CD6E7022B00D09A
:10233000B0E06378002B00D0ACE0022D00D0A9E023
:102340002079FEF7AFFA494B1880181CC4E71340F8
:102350004ED160780138082800D99BE000F000FDDC
:102360000C9A9A9A059A9A9A1A00E388002B00D040
:1023700090E03F4B2361D4E0E388002B00D089E05C
:102380006388012B00D085E002212F4A13888B43FC
:102390001380C6E0E588002D00D07BE0FEF7CAFB85
:1023A000002800D176E0294EA27833685B7C9A42FF
:1023B00070DCFFF7D3FEA378294A1370002B00D1FD
:1023C000AFE0284A2B495B187168161CDB00CB185C
:1023D000136033681B681B79AB4200D8A1E0281C4E
:1023E0000021FFF767FE002854D00135EDB2F0E779
:1023F000012B15D163780B2B4CD1E388002B49D1ED
:10240000174B1B78002B45D026796588301CFFF7C9
:1024100077FE00283ED0E9B2301CFFF74BFE37E0D4
:10242000022B37D16378012B02D0032B24D031E06B
:10243000E388002B2ED16388002B2BD12079FEF767
:10244000AFFA25E0700D0020020600207C0000207D
:1024500009000020500000201D000020280000205E
:1024600004060020FC05002000060020FA050020DC
:1024700019200000FFFFFF1FE388002B0AD16388AB
:10248000002B07D12079FEF763F92079FEF712FAC5
:10249000002846D11F2322781340012B1FD1234B44
:1024A0001B78002B1BD0224B25791E6833681B79C3
:1024B000AB4214D9281C0021FFF7B8FD00280ED02C
:1024C0007368AA00D658F3689847011C281CFFF7C8
:1024D000ADFD002803D0B3689847002821D11F2301
:1024E00022781340022B1ED1104B00241B78002BA6
:1024F00019D00F4B1B681A681279A24213D95B6876
:10250000A200D558EB689847011C201CFFF78EFDF0
:10251000002808D0AB689847002802D10134E4B203
:10252000E7E7012000E0002070BDC046040600205F
:10253000FC050020EFF3108072B6BFF35F8F00221E
:10254000024B1A70434258417047C04608000020B1
:102550000023A1200E490F4A0B7013800E4A107001
:10256000813850701E3853809380D08013810B4A7D
:1025700040381370D37013715371083393710B7813
:1025800050703F301B18DBB290700B707047C04624
:10259000A00800203A0B0020AC0800200C06002008
:1025A000024A1378013BDBB213707047A008002089
:1025B000044A1378013BDBB2137013780022024BFC
:1025C0001A70704713060020A608002000207047EC
:1025D0000020704770470000002805D00122034BFF
:1025E0001A70BFF35F8F62B67047C04608000020C4
:1025F0006022144B197848B20A4000280DDA0020F6
:10260000202A1ED15A78212A1BD1DA88072A18D10C
:102610000D499A819960013013E00020202A10D1E1
:102620005A78202A04D0223A101C4242504108E035
:10263000DA88072A05D1012004499A8119610249E3
:1026400099607047700D00200C060020D525000011
:10265000F0B5394B87B01A780493002A69D1FEF798
:1026600091F8364D2C88002812D0FEF795F8844258
:102670005FD0FFF75FFF3249324B0C78071CE4B2A2
:102680006200D25A059103932F4E002A19D102E01D
:10269000FEF77AF8EBE7338801333380FEF772F800
:1026A000002806D13388632B03D8381CFFF794FF2A
:1026B0003FE0FEF767F8002803D03288234B9A42A8
:1026C000F3D900233380224B1B78002B05D16342C2
:1026D0006341059ADBB2137002E062425441E4B2F6
:1026E0000123049A381C1370FFF776FF039B6700E1
:1026F000DE5B413EFF3E731E9E41F6B2002E0AD0C5
:10270000FEF740F8002802D0FEF746F801E0FEF799
:102710003BF8288000E02E80A201240214190D4904
:102720000D4A039B1219DB5B81200091311CFEF7DF
:1027300051F907B0F0BDC046A8080020A408002049
:1027400014060020160600203C0B00201F0300008A
:10275000390B0020652700001C06002008B5FFF794
:1027600077FF08BD08B500280CD1074B1B785A42EB
:102770005341064A5B009852054B1870054B187080
:10278000FFF766FF08BDC0461406002016060020AD
:10279000390B0020A808002010B5FFF7CBFE064B30
:1027A000064A1C88064B1B785B009B5A1C1BFFF7D4
:1027B00013FF201C10BDC046A20800209C0800206A
:1027C000A708002008B50020FFF7E6FF08BD08B500
:1027D000FFF7E2FF431E9841C0B208BDF7B5FFF70F
:1027E000A9FE1A491A4A0C781578E4B2EDB2002D08
:1027F00008D16700BC46174B174F1E886346DF5B46
:10280000B74203D9FFF7E8FE00201EE0114B1D8000
:1028100063426341DBB20B7001231370FFF7DCFEF0
:10282000281CFFF7D4FF002802D0281C00F054F920
:102830000A4BA2010093A02324021419084A022083
:10284000121901215B00FEF7C5F8FEBDA7080020A4
:10285000380B0020A20800209C080020E12800007E
:10286000B808002038B50024124B134D2C701C7092
:10287000124B1C70124B1C70124B1C805C80124B54
:102880001C80FFF7E5FE114B1C70114B1C70114BA7
:102890001C80114B1C80FFF7A1FFA04209D02B78B0
:1028A0000133DBB22B702B78DBB2012B01D10B4A49
:1028B000137038BDA808002013060020390B002033
:1028C0001406002016060020A4080020380B002063
:1028D000A70800209C080020A2080020A6080020CD
:1028E00013B500281CD10F4B1B785C426341DBB24F
:1028F00000290ED199011B02CB180B49101CCB18D3
:102900001A1CA02309495B0000910121FEF762F81F
:1029100006E0074A5B009952064B1870FFF75EFF0E
:1029200013BDC046A7080020B8080020E128000019
:102930009C080020380B0020F7B50F1C151CFFF772
:10294000F9FD194B19888BB20193184B1C78FFF7CE
:1029500043FEE4B2164B6200D35A019A9A4204D362
:10296000144B1B78002BEAD11CE0019A2E1C9B1AF9
:102970009D4200D91E1C019BA101240209195C186B
:102980000D49381C321C091900F0BAFB064B064AE7
:102990001B88AD1B9B199BB21380BF19FFF71EFF4D
:1029A000002DCCD1281CFEBDA2080020A7080020C5
:1029B0009C080020A6080020B808002008B5031CC9
:1029C0000A1C0020191CFFF7B7FF08BD70B5FFF700
:1029D000B1FD1249124A0B78DBB25C005D426B41DB
:1029E000DBB25D00A45AAD5AA022520094420DD130
:1029F0000C4A1278002A09D10B4E3278D2B2002A42
:102A000004D101253570251C141C0B70FFF7E4FD63
:102A1000A0202B198000C01A70BDC04614060020EB
:102A200016060020A8080020390B002008B5FFF783
:102A3000CDFF431E9841C0B208BD0000F7B51D4B45
:102A40000F1C9B79141C092B00D154000020FFF7A8
:102A5000EDFF002804D1184B1B78002BF6D127E09E
:102A6000FFF768FD154B01901D78154BEDB26A001C
:102A7000D35A261C0093A023009A5B009B1A9C4209
:102A800000D91E1C2B02A801C018009B391C181865
:102A90000C4B321C181800F033FB009B084A9B19A2
:102AA0006D000198AB52BF19FFF796FDA41BCDD165
:102AB000201CFEBD0C060020A608002014060020E5
:102AC000160600201C06002008B5031C0A1C002066
:102AD000191CFFF7B3FF08BDF0B597B0FFF772FE02
:102AE000052800D8ADE0584A02AC1378201C013309
:102AF00006211370FFF762FF657823782D02A67810
:102B00001D43E478A52D00D17CE0FFF75BFE240295
:102B10002643B04200D094E001AE301C0421FFF700
:102B20004DFF7478B37824021B041C4333781C4394
:102B3000F3781B061C43A32D3AD104A84021FFF7CC
:102B40003DFF424D424E2B889B009C51E3B2002B2F
:102B500002D1201CFFF78EF92B883E4F002B18D195
:102B6000802332681B029A420AD1201C04A9402209
:102B7000FFF702F92B8801332B8001233B7060E0C3
:102B80000024301C211C344A3C7000F0F7FA2C80E1
:102B900057E03A78002A54D0304A9342F0D8201CAB
:102BA00004A94022FFF7E8F82B8801332B8048E086
:102BB000A42D12D1A523802104AD2B704022002327
:102BC00029716A396944201C6B70AA70EB706B71B3
:102BD000FFF71AF9281C462111E02F2D31D10023CF
:102BE00004220A2104A84370C3708371C3710233A5
:102BF000827003727C32013B057002714372FFF7F1
:102C000063FF1EE000241648164B047044705B6896
:102C100004ADDB061B0F8370C4700471FFF722F84C
:102C200011482C70FFF726F9291C01220E48FFF7E6
:102C3000A3F8BFF34F8F0D4A0D4BDA60BFF34F8FF0
:102C4000FEE717B0F0BDC0463E0B0020400B002051
:102C5000180F00203F0B0020E0370000F70D0000A8
:102C6000100F00200040004100FB03000400FA05A3
:102C700000ED00E007B500236A46694613700122A3
:102C80000B714A704B710332093368468A70CB70FE
:102C9000FDF76EFA07BD000013B501AC1048211C0A
:102CA0000122FFF7B1F80528F7D023780C4801334B
:102CB0002370FFF7DFF8211C01220948FFF75CF8B9
:102CC000FFF7D8FF2378022B09D880231B021A684C
:102CD00082F30888034A9360034B1B68984713BD2F
:102CE00000FB030000ED00E0048000000122164B11
:102CF00010B51A70BFF35F8F62B60024134B1C70BF
:102D00005C709C70DC701A71FEF79AFFFFF738F95F
:102D100080231B021A6882F308880D4A93600D4BCA
:102D20001B6898470C480D4B047044705B68C47076
:102D3000DB061B0F83700471FEF794FFFFF7ACFFF7
:102D4000FFF708FAFEE7C04608000020090F002040
:102D500000ED00E004800000100F00200040004162
:102D600002B4714649084900095C49008E4402BC1E
:102D70007047C046002243088B4274D303098B423C
:102D80005FD3030A8B4244D3030B8B4228D3030C3B
:102D90008B420DD3FF22090212BA030C8B4202D3DD
:102DA0001212090265D0030B8B4219D300E0090A05
:102DB000C30B8B4201D3CB03C01A5241830B8B420E
:102DC00001D38B03C01A5241430B8B4201D34B03F7
:102DD000C01A5241030B8B4201D30B03C01A52415C
:102DE000C30A8B4201D3CB02C01A5241830A8B42E1
:102DF00001D38B02C01A5241430A8B4201D34B02CA
:102E0000C01A5241030A8B4201D30B02C01A52412D
:102E1000CDD2C3098B4201D3CB01C01A52418309E1
:102E20008B4201D38B01C01A524143098B4201D31B
:102E30004B01C01A524103098B4201D30B01C01A46
:102E40005241C3088B4201D3CB00C01A52418308C0
:102E50008B4201D38B00C01A524143088B4201D3ED
:102E60004B00C01A5241411A00D20146524110464D
:102E70007047FFE701B5002000F0FCF802BDC04636
:102E80000029F7D003B5FFF775FF0EBC4243891A3E
:102E90001847C04603460B437FD4002243088B42A9
:102EA00074D303098B425FD3030A8B4244D3030BD1
:102EB0008B4228D3030C8B420DD3FF22090212BA96
:102EC000030C8B4202D31212090265D0030B8B4212
:102ED00019D300E0090AC30B8B4201D3CB03C01AFC
:102EE0005241830B8B4201D38B03C01A5241430BD7
:102EF0008B4201D34B03C01A5241030B8B4201D3C7
:102F00000B03C01A5241C30A8B4201D3CB02C01A31
:102F10005241830A8B4201D38B02C01A5241430AA9
:102F20008B4201D34B02C01A5241030A8B4201D398
:102F30000B02C01A5241CDD2C3098B4201D3CB013F
:102F4000C01A524183098B4201D38B01C01A5241EE
:102F500043098B4201D34B01C01A524103098B42F2
:102F600001D30B01C01A5241C3088B4201D3CB00DD
:102F7000C01A524183088B4201D38B00C01A5241C0
:102F800043088B4201D34B00C01A5241411A00D270
:102F900001465241104670475DE0CA0F00D04942D9
:102FA000031000D34042534000229C4603098B4249
:102FB0002DD3030A8B4212D3FC22890112BA030AD1
:102FC0008B420CD3890192118B4208D38901921153
:102FD0008B4204D389013AD0921100E08909C309D8
:102FE0008B4201D3CB01C01A524183098B4201D3DA
:102FF0008B01C01A524143098B4201D34B01C01AC5
:10300000524103098B4201D30B01C01A5241C3083C
:103010008B4201D3CB00C01A524183088B4201D3AB
:103020008B00C01A5241D9D243088B4201D34B00C6
:10303000C01A5241411A00D20146634652415B1008
:10304000104601D34042002B00D5494270476346E9
:103050005B1000D3404201B5002000F00BF802BD28
:103060000029F8D003B5FFF715FF0EBC4243891ABB
:103070001847C0467047C046414208401C21012302
:103080001B04984201D3000C10391B0A984201D34B
:10309000000A08391B09984201D30009043902A229
:1030A000105C401A7047C0461B1C1D1D1E1E1E1EB4
:1030B0001F1F1F1F1F1F1F1F70B50D4E0D4D00241A
:1030C000AD1BAD1005D0A300F35801349847A542BD
:1030D000F9D100F041F9084E084D0024AD1BAD10A8
:1030E00005D0A300F35801349847A542F9D170BD2B
:1030F0006433000064330000643300006C3300006C
:1031000070B50F2A32D9041C0C430B1CA40731D113
:10311000151C041C103D2D0901352D0149191E688F
:1031200026605E6866609E68A660DE681033E660B2
:1031300010349942F3D10F2345191340032B1BD9A7
:103140001C1F0023A4080134A400CE58EE50043301
:10315000A342FAD1ED18C91803231A4005D0002361
:10316000CC5CEC5401339342FAD170BD051C002AAB
:10317000F5D1FAE7051CF2E71A1CF8E770B58307EA
:103180003FD0541E002A3BD0CEB2031C032503E0DF
:10319000621E002C34D0141C01335A1E16702B42B0
:1031A000F6D1032C24D9FF250D402A0215432A0409
:1031B00015430F2C11D9261C103E36090136360155
:1031C0001A1C9B19156055609560D56010329342AA
:1031D000F8D10F221440032C0AD9261FB608013655
:1031E000B6001A1C9B1920C29342FCD10322144042
:1031F000002C05D0C9B21C1919700133A342FBD1B0
:1032000070BD141C031CCCE708B5034B002B02D087
:10321000024800F005F808BD00000000313200004F
:1032200008B5011C00220020002300F01BF808BD97
:1032300038B5094B094CE41AA41009D0084AA5185E
:10324000AD00ED182B68013C9847043D002CF9D1E6
:1032500000F08CF838BDC046783300007C330000A5
:10326000FFFFFF3FF8B544465F4656464D469B4636
:103270002F4BF0B41C68A4235B00051CE0580E1C07
:10328000904600284BD043681F2B0DDC5C1C002DA2
:1032900021D102339B0044601E5000203CBC90466C
:1032A0009946A246AB46F8BD224B002B3CD0C82025
:1032B000400000E000BF002836D0A42200235200C6
:1032C000A15843600160A0504032835004328350C3
:1032D0000124002DDDD09A00914681444246882188
:1032E0004F467A50C4225200904680444246873965
:1032F000994012688A460A439446424661461160E4
:10330000842249465F4652008F50022DC1D1021CD3
:1033100055468D32FF3211680D431560B9E7201C08
:103320004D30FF30E050AEE701204042B6E7C046E6
:1033300054330000000000000003020104000800F4
:1033400070008000010000010002030C106000000A
:1033500043000000F0000020F8B5C046F8BC08BCEF
:103360009E46704709320000D9000000F8B5C046FB
:0C337000F8BC08BC9E467047B10000008D
:10337C0008000000401F00000154686F726C61620D
:10338C007320426F6F746C6F616465720054686F68
:10339C00726C61627300000000030000000000000A
:1033AC000000000000000000000000000000000011
:1033BC000000000000000000000000000000000001
:1033CC000403090465280000B1250000CD25000088
:1033DC00D12500005D27000051250000A12500002B
:1033EC00F1250000D125000000000000980000200D
:1033FC009000002000000000680000205400002015
:10340C00AC000020880000201201000202000040E5
:10341C001313022F000101020001000009024300F6
:10342C00020100C0FA090400000102020100052497
:10343C0000100104240202052406000105240103E6
:10344C00010705830340001009040100020A000073
:10345C000007058102400000070502024000000041
:10346C0000000000DC03002044040020AC04002019
:10347C000000000000000000000000000000000040
:10348C000000000000000000000000000000000030
:10349C00000000005033000000000000000000009D
:1034AC000000000000000000000000000000000010
:1034BC000000000000000000000000000000000000
:1034CC0000000000000000000000000000000000F0
:1034DC0000000000000000000000000000000000E0
:1034EC0000000000000000000000000000000000D0
:1034FC0000000000000000000000000000000000C0
:10350C0000000000000000000100000000000000AE
:10351C000E33CDAB34126DE6ECDE05000B00000073
:10352C00000000000000000000000000000000008F
:10353C00000000000000000000000000000000007F
:10354C00000000000000000000000000000000006F
:10355C00000000000000000000000000000000005F
:00000001FF
