:020000040040BA
:1000000028304020B9014000350240003502400050
:10001000350240003502400035024000000000007B
:100020000000000000000000000000003502400059
:1000300035024000000000003502400099424000B7
:1000400035024000350240003502400035024000D4
:100050007D4240003502400035024000350240003C
:10006000350240000000000091204000A520400023
:10007000000000003502400035024000350240001B
:10008000B920400000000000350240003502400069
:100090003502400035024000350240003502400084
:1000A0003502400035024000000000000000000062
:1000B0000000000035024000000000003502400052
:1000C0003502400035024000452640000000000097
:1000D0000000000000000000000000000000000020
:1000E0003502400035024000350240003502400034
:1000F000350240003502400035024000000000009B
:100100000000000000000000350240003502400001
:100110003502400000000000000000000000000068
:1001200035024000350240003502400035024000F3
:1001300035024000000000000000000035024000D1
:1001400000000000000000000000000000000000AF
:1001500035024000350240003502400010B5054C24
:10016000237833B9044B13B10448AFF30080012363
:10017000237010BD6402402000000000E4544000E1
:10018000084B10B51BB108480849AFF30080084878
:10019000036803B910BD074B002BFBD0BDE810402E
:1001A000184700BF00000000E454400068024020EF
:1001B000E45440000000000080B582B000AF164B50
:1001C0007B60164B3B607A683B689A420CD007E034
:1001D0003B681A1D3A607A68111D796012681A60CE
:1001E0003B680F4A9342F3D30E4B3B6004E03B68FD
:1001F0001A1D3A6000221A603B680B4A9342F6D3FC
:100200000A4B7B600A4A7B6823F07F03936005F00A
:10021000DFF804F04FF8FEE7E4544000000040200F
:10022000640240206402402024104020000040006E
:1002300000ED00E080B400AFFEE700BF80B400AF87
:10024000514B1B6B03F00303012B14D0012B02D382
:10025000022B38D07BE04D4B5B6903F08003002B11
:1002600004D04B4B4FF400421A6070E0484B4FF4FF
:10027000FA421A606BE0444B1B6A03F08073002B58
:1002800003D0434B434A1A601CE0414B424A1A6078
:100290003D4B1B6A03F07003102B04D0202B08D0B9
:1002A000002B0ED00EE03A4B1B685B00384A1360FF
:1002B00008E0374B1A6813465B001344344A136056
:1002C00000E000BF43E0304B1B6A03F08073002B5B
:1002D00003D02F4B2F4A1A601CE02D4B2E4A1A6078
:1002E000294B1B6A03F07003102B04D0202B08D07D
:1002F000002B0ED00EE0264B1B685B00244A1360D7
:1003000008E0234B1A6813465B001344204A13602D
:1003100000E000BF1C4B1B6B03F00303022B15D145
:10032000194B9A6A1D4B13401B0C0133184A126873
:1003300002FB03F3164A1360134B9B6ADBB2144AA9
:100340001268B2FBF3F3124A1360FFE700BF0E4BD3
:100350001B6B03F07003702B08D10D4B1B68104A08
:10036000A2FB03235B080A4A136009E0064B1B6BE0
:1003700003F070031A09064B1B68D340044A13604C
:10038000BD465DF8047B704700060E4010180E4015
:1003900004014020001BB70000093D000000FF07DA
:1003A000ABAAAAAA80B483B000AF78607B681C4A6D
:1003B000934204D81B4B4FF080621A602BE07B689D
:1003C000194A934203D8174B184A1A6023E07B68F6
:1003D000174A934203D8134B164A1A601BE07B68F6
:1003E000154A934203D80F4B144A1A6013E07B68F6
:1003F000134A934204D80B4B4FF004221A600AE0D0
:100400007B68104A934203D8064B0F4A1A6002E0F9
:10041000044B0E4A1A600C37BD465DF8047B7047EA
:10042000BFF35E01000C0E407FE7BD020001000437
:100430003FDB1C0400020004FFCE7B050003000428
:10044000BFC2DA067FB639080005000400060004C2
:1004500080B582B000AF78607B68072B30D801A2EE
:1004600052F823F0C1044000850440008D04400090
:10047000950440009D044000A5044000AD044000E8
:10048000B7044000002001F09FFE19E0012001F0B8
:100490009BFE15E0002001F0CDFE11E0102001F0E0
:1004A000C9FE0DE0202001F0C5FE09E000203E213C
:1004B00001F0F8FE04E001203E2101F0F3FE00BF50
:1004C0000837BD4680BD00BF80B582B000AF786000
:1004D0007B68072B26D801A252F823F0FD044000C8
:1004E00001054000010540001305400013054000D0
:1004F000130540001305400013054000012312E0DE
:1005000001F07EFE0346002B14BF01230023DBB263
:1005100009E001F003FF0346002B14BF0123002371
:10052000DBB200E0002318460837BD4680BD00BF9F
:1005300080B483B000AF78607B68072B25D801A218
:1005400052F823F0650540006B054000710540003E
:10055000770540007B0540007F0540008305400093
:10056000870540004FF4FA4310E04FF400430DE0DC
:100570004FF400430AE0084B08E0084B06E0084B44
:1005800004E0074B02E0064B00E0002318460C375E
:10059000BD465DF8047B704700093D0000127A00FB
:1005A000001BB70080B582B000AF0346FB7100BFEF
:1005B000FB791846FFF788FF034683F00103DBB29F
:1005C000002BF5D10837BD4680BD00BF80B586B091
:1005D00000AFF8607A603B600B46FB727B68002BD3
:1005E00007D13B68002B04D1FB684FF470021A60FE
:1005F00019E0FB7A1846FFF79BFF02467B68B2FBC7
:10060000F3F37B617B693A6802FB03F37B613B6830
:10061000013B1A04054B13407A68D2B2134343F4EA
:100620007C52FB681A601837BD4680BD0000FF078A
:1006300080B582B000AF786039603B68002B08D18C
:1006400001F07AFE074A7B681B6843F0005393620F
:1006500005E0044A7B681B6843F48033D3610837A4
:10066000BD4680BD00060E4080B582B000AF786008
:100670007B68002B03D101F06BFE034602E001F022
:1006800089FE034618460837BD4680BD80B582B056
:1006900000AF0346FB71FB79033B042B08D8FB79C1
:1006A0001846FFF7D5FEFB791846FFF77BFF00E001
:1006B00000BF0837BD4680BD80B582B000AF78600E
:1006C00000BF7868FFF7D0FF0346002BF9D0002366
:1006D00018460837BD4680BD80B500AF0620FFF73D
:1006E00027FF024613469B0013449A001344184602
:1006F00080BD00BF80B500AFFFF7EEFF0346184690
:1007000080BD00BF80B582B000AF01F02FFE002099
:1007100001F06CFE01F07EFE00BF0837BD4680BDD3
:1007200080B582B000AF1348FFF73CFE0620FFF70C
:10073000ADFF3B1D1846062101221923FFF746FF96
:100740003B1D18460021FFF773FF0020FFF7B4FFA1
:10075000022001F0BBFC002001F0F4FCFFF76EFD6D
:10076000FFF7C8FF03461846FFF71CFE0837BD46D3
:1007700080BD00BF000E270780B483B000AFEFF349
:1007800010837B607B68002B0CBF01230023DBB24E
:100790003B6072B6BFF35F8F044B00221A703B6858
:1007A00018460C37BD465DF8047B70476002402058
:1007B00080B483B000AF78607B68002B14BF012346
:1007C0000023DBB218460C37BD465DF8047B70474A
:1007D00080B582B000AF78607868FFF7E9FF034624
:1007E000002B05D0044B01221A70BFF35F8F62B655
:1007F0000837BD4680BD00BF6002402080B483B092
:1008000000AF0023BB71414B00221A70BB79404AF4
:10081000002122F81310BA793E4913469B00134475
:100820005B000B44A1221A70BA793A4913469B0027
:1008300013445B000B4420225A70BA7935491346A1
:100840009B0013445B000B4400225A80BB79002BB1
:1008500002D10023FB7102E00023FB7100BFBA79D3
:10086000FB7998B22B4913469B0013445B000B4461
:1008700002469A80BA79274913469B0013445B00CD
:100880000B440222DA80BA79224913469B001344B2
:100890005B000B44083300221A80BA791E491346C4
:1008A000DB009B1A0B4400221A70002262F03D020A
:1008B0005A70002242F001029A700022DA70BA796E
:1008C00015491346DB009B1A0B4400221A71BA79B2
:1008D00011491346DB009B1A0B4400225A71BA7966
:1008E0000D491346DB009B1A0B4408229A71074BF3
:1008F0001B78DBB20133DAB2044B1A7001231846BD
:100900000C37BD465DF8047B704700BF980240205D
:10091000880240208C0240208002402080B582B0B6
:1009200000AF0023FB712D4B00221A70FB792C4A7B
:100930000021D154FB792B4A0021D154FB792A4A5A
:100940000021D154FB79294A002122F82310FB7998
:10095000264A9B00134400225A80FB79244A002136
:1009600022F81310FB79184600F018FAFB79214A97
:100970000021D154FB79204A0021D154FB791F4A30
:10098000002122F82310FB791C4A9B00134400220B
:100990005A80FB791A4A002122F81310FB79184675
:1009A00000F0F8F8034683F00103DBB2002B01D01E
:1009B00000230FE0094B1B78DBB20133DAB2074B9F
:1009C0001A70064B1B78DBB2012B02D10D4B0122B2
:1009D0001A70012318460837BD4680BD9902402091
:1009E000B80A4020BC0A4020B00A4020AC0A40208F
:1009F000B40A4020A8064020A00640209C064020C3
:100A0000A40640209A02402080B400AF054B1B781A
:100A1000DBB2013BDAB2034B1A70BD465DF8047BD2
:100A2000704700BF9802402080B483B000AF094BEC
:100A30001B78DBB2013BDAB2064B1A70054B1B7810
:100A4000FB71054B00221A700C37BD465DF8047B24
:100A5000704700BF990240209A02402080B582B0C2
:100A600000AF00F075F80346FB71294B1B78DBB231
:100A70005BB2002B1CDA264B1B7803F06003202BA3
:100A800016D1234B5B78212B12D1214BDB88072B0E
:100A900001D0002338E0FA791346DB009B1A1D4A87
:100AA00013441B4A93601A4B07229A8101232BE0BF
:100AB000174B1B78DBB25BB2002B24DB144B1B788B
:100AC00003F06003202B1ED1114B5B78202B02D04A
:100AD000222B16D017E00E4BDB88072B01D000230A
:100AE00012E00B4B0C4A1A61FA791346DB009B1A91
:100AF000084A1344064A9360054B07229A81012352
:100B000002E0012300E0002318460837BD4680BDFF
:100B10000C10402080024020810B400080B400AFC8
:100B200000231846BD465DF8047B704780B400AFD3
:100B300000231846BD465DF8047B704780B500AFC2
:100B4000024B1B78184600F029F980BDC00A4020EE
:100B500080B483B000AF094B9B88DBB2002B02D17D
:100B60000023FB7102E00023FB7100BFFB791846F4
:100B70000C37BD465DF8047B704700BF0C10402069
:100B800080B582B000AFFFF7E3FF0346FB71083783
:100B9000BD4680BD80B588B002AF0346FB7100231F
:100BA000FB71FFF7E9FD3861FB792E4AD35CFB73DB
:100BB000FB792D4AD35CDBB2002B0ED1FB792B4A9B
:100BC00032F813309AB2F979FB7B294849000B447B
:100BD00030F813309BB29A4204D23869FFF7F8FD1F
:100BE00000233AE0FB79214A002122F81310FB7917
:100BF000FA7B002A0CBF01220022D2B21146194A08
:100C0000D154FB79184A0121D1543869FFF7E0FD2E
:100C1000FB79184600F0D6F90346002B03D0FB7988
:100C2000184603F0DFFDFB79002B02D10223FB7590
:100C300002E00223FB7500BFFA79FB7B52001344EC
:100C40005B020C4A1A44F97D0B4B009308460121C4
:100C50004FF4007302F0DCF9034618461837BD461E
:100C600080BD00BFA0064020A8064020A40640206A
:100C70009C0640209C0240207D0C400080B586B040
:100C800002AF03463960FB711346BB71BB79022B7F
:100C900002D10023FB7302E00023FB7300BFFB794A
:100CA000002B00D02FE0FB7B184AD35CDBB2002B7B
:100CB0000CBF01230023DBB2BB733B68002B10D1B8
:100CC000FA7BBB7B520013445B02114A1A44B97988
:100CD000104B0093084601214FF4007302F098F97D
:100CE00011E0FA7BBB7B396888B20B495200134490
:100CF000024621F81320FB7B084A0021D154FB7BDC
:100D00001846FFF747FF1037BD4680BDA0064020BC
:100D10009C0240207D0C40009C064020A8064020FC
:100D200080B584B000AF03463960FB711346BB71D8
:100D3000BB79812B02D10023FB7302E00023FB73FC
:100D400000BFFB79002B00D01CE0FB7BFA7B0F4936
:100D50008A5CD2B2002A0CBF01220022D2B2114614
:100D60000B4A5B000B44002122F81310FB7B094A5D
:100D70000021D154FB7B084A0021D154FB7B18464B
:100D800000F00CF81037BD4680BD00BFB00A40200F
:100D9000AC0A4020BC0A4020B80A4020B0B588B058
:100DA00002AF0346FB710023FB71FB79624AD35CFF
:100DB000DBB2002B00D0BBE001F0AEFD0346002B00
:100DC00009D0FB795D4A32F8134001F0FBFD034680
:100DD0009C420AD1ACE0FB79584A32F8134001F04A
:100DE000E1FD03469C4200D1A2E0FFF7C5FC38615B
:100DF000FB79534AD35CFB75FA79FB7D514952006C
:100E0000134431F81330002B1FD14F4B1B88013393
:100E10009AB24D4B1A8001F07FFD034683F0010327
:100E2000DBB2002B03D0484B1B88632B09D901F0A0
:100E300073FD0346002B08D0434B1B88B3F5487F56
:100E400003D23869FFF7C4FC72E03F4B00221A80DE
:100E5000FB793E4AD35CDBB283F00103DBB2002BAB
:100E60000AD0FB79FA7D002A0CBF01220022D2B2FF
:100E70001146334AD15406E0FB7D002B0CBF012301
:100E80000023DBB2FB75FB792B4A0121D154386971
:100E9000FFF79EFCFA79FB7D2A495200134431F892
:100EA0001330B3F5007F14BF01230023FB73FB7BDA
:100EB000002B16D001F030FD0346002B08D0FC7942
:100EC00001F080FD03461A461C4B23F814200DE068
:100ED000FC7901F067FD03461A46184B23F81420ED
:100EE00004E0FB79154A002122F81310FB79002B4E
:100EF00002D18123BB7502E08123BB7500BFFA7963
:100F0000FB7D520013445B02114A9C18FA79FB7D69
:100F10000C495200134431F813301D46B97DFA7B59
:100F20000C4B00930846114622462B4602F070F8FF
:100F30001837BD46B0BD00BFB80A4020B40A4020F3
:100F4000B00A4020AC0A4020C20A4020BC0A40201F
:100F5000AC064020210D400080B586B000AF0346AE
:100F6000FB710023FB71FFF707FC7861FB790E4AE8
:100F700032F813307B82FB79FA790C498A5CD2B261
:100F800011460B4A5B000B4432F813309BB21A46F1
:100F90007B8AD31AFB607869FFF71AFCFB68184656
:100FA0001837BD4680BD00BFA4064020A0064020E3
:100FB0009C06402080B500AF0020FFF7CDFF034620
:100FC000184680BD80B582B000AF0346FB71FB7947
:100FD0001846FFF7C1FF0346002B14BF012300236F
:100FE000DBB218460837BD4680BD00BF80B588B06B
:100FF00000AF0346B9607A60FB73BB68FB610023F6
:10100000FB73FFF7B9FB7861FB7B344A32F813308E
:101010007B82FB7B324AD35C7B74FA7B7B7C3149DD
:101020005200134431F813309BB27A8A9A422CBF93
:10103000012300233B747869FFF7CAFB3B7C002B3C
:101040000AD0294B1B78DBB283F00103DBB2002B03
:1010500001D07B683EE0D4E7FA7B7B7C21495200DB
:10106000134431F813309BB21A467B8AD31ABB6102
:10107000BA697B689A4201D97B68BB61F97B7A7C4B
:101080007B8A49000A4452021344184A1344F869FF
:101090001946BA6904F0C2F9FB7BFA7B0F4931F8B3
:1010A000122091B2BA6992B20A4491B20B4A22F864
:1010B0001310FA69BB691344FB617A68BB69D31AE0
:1010C0007B60FB7B1846FFF765FD7B68002B00D03B
:1010D00097E7002318462037BD4680BDA406402070
:1010E000A00640209C0640209A0240209C024020FE
:1010F00080B582B000AF78603960002079683A68C6
:10110000FFF774FF034618460837BD4680BD00BF91
:1011100080B586B000AF0346FB710023FB71FFF77B
:101120002BFB3861FB791E4AD35CFB73FA79FB7B9E
:101130001C495200134431F813307B617B69B3F5CD
:10114000007F21D1FB79184AD35CDBB283F0010325
:10115000DBB2002B18D0FB79144AD35CDBB283F0EE
:101160000103DBB2002B0FD0FB79104A0121D154CF
:10117000FB79FA7B002A0CBF01220022D2B2114671
:10118000074AD15400237B617B69C3F50073BB60C0
:101190003869FFF71DFBBB6818461837BD4680BD90
:1011A000B00A4020AC0A4020B80A4020BC0A4020C7
:1011B00080B582B000AF0346FB71FB791846FFF79C
:1011C000A7FF0346002B14BF01230023DBB2184600
:1011D0000837BD4680BD00BF80B588B000AF03466C
:1011E000B9607A60FB73BB68BB610023FB73FA7B59
:1011F00033491346DB009B1A0B449B79092B02D120
:101200007B685B007B60FB7B1846FFF7D1FF0346E2
:1012100083F00103DBB2002B0AD02A4B1B78DBB230
:1012200083F00103DBB2002B01D07B6844E0EAE7E6
:10123000FFF7A2FA7861FB7B234AD35CFB74FA7B4D
:10124000FB7C22495200134431F813303B823B8A25
:10125000C3F50073FB61FA697B689A4201D97B6828
:10126000FB61F97BFA7C3B8A49000A445202134431
:10127000174A13441846B969FA6904F0CFF8FA7BA3
:10128000FB7CF96988B2398A014488B20F4952005F
:101290001344024621F813207869FFF799FABA69D6
:1012A000FB691344BB617A68FB69D31A7B607B6876
:1012B000002B00D0A7E7002318462037BD4680BD8D
:1012C000800240209A024020B00A4020AC0A402010
:1012D000AC06402080B582B000AF78603960002055
:1012E00079683A68FFF778FF034618460837BD4625
:1012F00080BD00BF80B400AF064B1B681B68054A69
:1013000012681268528892B213441846BD465DF8BE
:10131000047B7047D00A402080B584B000AF78606D
:101320000B46FB70FFF7E6FFF8607B681B781A46F8
:101330007B6813447B6011E07B685B78042B00D1F1
:1013400010E07B685B78FA789A4201D17B680AE00A
:101350007B681B781A467B6813447B60FA687B685D
:101360009A42E9D8002318461037BD4680BD00BF19
:1013700080B584B000AF03460A46FB711346BB71CB
:101380001E4B1B78002B01D1002332E01C4B1B6845
:101390001B681B79FA799A4201D3002329E0184B84
:1013A0001B681B68174A1360FFF7A4FFF8601AE078
:1013B000144B1B685B78042B0DD1124B1B689B7878
:1013C000FA799A4207D10F4B1B68DB78BA799A42B7
:1013D00001D101230DE00B4B1B680A4A12681278F9
:1013E0001344084A1360074B1B68FA689A42DFD817
:1013F000002318461037BD4680BD00BFCC0A4020F0
:10140000D00A4020D40A402080B584B000AF034603
:10141000FB71FB7918460021FFF7AAFF034683F012
:101420000103DBB2002B01D0002330E01A4B1B6814
:101430005A68FB799B0013441B68BB60BB68DB6880
:10144000984703461A46FB7918461146FFF790FF66
:10145000034683F00103DBB2002B01D0002316E02A
:101460000E4B1B68FB60F8680521FFF755FFF8601D
:10147000FB68002B05D100BFBB685B689847012360
:1014800005E0FB689B78184601F04CFCEBE718463A
:101490001037BD4680BD00BFD00A4020D40A40208E
:1014A00080B584B000AF03460A46FB711346BB719A
:1014B000FA79BB7910461946FFF75AFF034683F0C5
:1014C0000103DBB2002B01D000232BE0174B1B687C
:1014D000FB60F8680521FFF71FFFF860FB68002B31
:1014E0000BD100BF124B1B685A68FB799B00134459
:1014F0001B681B689847034614E0FB689978FB68F3
:10150000DA78FB689B889BB2084611461A4601F0C0
:101510007DFA034683F00103DBB2002B01D00023E8
:1015200000E0D6E718461037BD4680BDD40A4020FB
:10153000D00A402080B500AF01F034F980BD00BF73
:1015400080B582B000AF0F4B1B78002B10D000236A
:10155000FB7106E0FB791846FFF756FFFB79013374
:10156000FB71094B1B681B681B79FA799A42F1D30E
:10157000044B00221A70054B01221A800837BD4621
:1015800080BD00BFCC0A4020D00A4020C40A4020C1
:1015900080B582B000AF134B1B78002B1FD0002307
:1015A000FB7115E0104B1B685A68FB799B001344D4
:1015B0001B681B69002B08D00B4B1B685A68FB7912
:1015C0009B0013441B681B699847FB790133FB712F
:1015D000054B1B681B681B79FA799A42E2D30837DE
:1015E000BD4680BDCC0A4020D00A402080B500AF67
:1015F000064BDB88022B01D0002304E004480221C3
:1016000001F0F0F90123184680BD00BF0C10402006
:10161000C40A402080B500AF0B4BDB88022B01D001
:1016200000230EE0084B9B88DBB2184601F0B8FBA4
:1016300003469AB2054B1A800448022101F0D2F900
:101640000123184680BD00BF0C104020D80A40205E
:1016500080B400AF0C4BDB88002B01D000230DE0E1
:10166000094B5B88012B08D1084B1B8823F0020330
:101670009AB2064B1A80012300E000231846BD46AB
:101680005DF8047B704700BF0C104020C40A402066
:1016900080B500AF0A4BDB88002B01D000230CE0A3
:1016A000074B5B88002B07D1054B9B88DBB21846A4
:1016B00001F01EFC034600E00023184680BD00BF79
:1016C0000C10402080B500AF264BDB88002B01D0EA
:1016D000002344E0234B5B88012B02D0022B02D075
:1016E0003CE000233BE001F017F9034683F00103DF
:1016F000DBB2002B00D031E01A4B9B88DBB2002B11
:1017000000D02BE0FFF71CFF164B9B881B0A9BB2F7
:10171000DBB2013B032B1FD801A252F823F000BF1C
:10172000311740003B174000451740004F1740005D
:101730000C4B0D4A1A61012311E00A4B0B4A1A6146
:1017400001230CE0074B0A4A1A61012307E0054B0D
:10175000084A1A61012302E000BF00BF00231846B7
:1017600080BD00BF0C104020FD31400029324000F8
:10177000553240007532400080B500AF0D4BDB881C
:10178000002B01D0002312E00A4B5B88002B0DD107
:10179000084B9B88DBB2184601F0DCFC054B9B88AC
:1017A000DBB2184601F01AFB034600E0002318469E
:1017B00080BD00BF0C10402080B500AF044B5B889B
:1017C000DBB203F07F03DBB2184601F0B9F880BD4D
:1017D0000C10402080B400AF074BDB88002B01D0F9
:1017E000002303E0044B054A1A6101231846BD4655
:1017F0005DF8047B704700BF0C104020B917400013
:1018000080B584B000AF0023FB71224B5B88DBB254
:10181000012B08D0022B0BD0002B0ED11E48042127
:1018200001F0E0F80BE00823FB711C4BBB6006E005
:101830001723FB711A4BBB6001E0002326E0FB7904
:10184000002B22D00023FB730DE0FB7BFA7BB968F1
:101850000A44127891B2134A5B0013440A465A8034
:10186000FB7B0133FB73FA7BFB799A42EDD3FB7967
:101870000133DBB25B00DAB20A4B1A70094B1B78FA
:101880009BB20848194601F0ADF8012318461037FD
:10189000BD4680BD0C104020080240200C024020B4
:1018A000180240203002402080B582B000AF824B49
:1018B0005B88FB71804B5B881B0A9BB2DBB2013BF0
:1018C0000E2B00F2E78001A252F823F00919400024
:1018D000451940007F1A4000951A4000951A4000B3
:1018E000C3194000D9194000951A4000951A4000CC
:1018F000951A4000951A4000951A4000951A40002C
:10190000951A40005D1A400001F006F8034683F086
:101910000103DBB2002B0AD0684B9A68674B9B68C7
:101920001B789BB21046194601F05CF8B4E0634B9B
:101930001A68624B1B681B789BB21046194601F06F
:1019400051F8A9E000F0E8FF0346002B1AD05B4BEA
:101950009B685B7CFA799A4201D30023A7E0574B3E
:101960001A69FB79DB0013441968544B1A69FB7937
:10197000DB0013441B685B889BB20846194601F0E4
:1019800031F819E04D4B1B685B7CFA799A4201D320
:1019900000238CE0494B5A68FB79DB00134419683B
:1019A000464B5A68FB79DB0013441B685B889BB28B
:1019B0000846194601F016F83F4B9B6802225A7000
:1019C0006AE03E4BDA683D4BDB681B789BB2104601
:1019D000194601F007F85FE000F09EFF034683F030
:1019E0000103DBB2002B1AD0344B9B685B7CFA7985
:1019F0009A4201D300235AE0304B1A69FB79DB008D
:101A0000134419682D4B1A69FB79DB0013441B68DA
:101A10005B889BB20846194600F0E4FF19E0274BAB
:101A20001B685B7CFA799A4201D300233FE0234B89
:101A30005A68FB79DB0013441968204B5A68FB791C
:101A4000DB0013441B685B889BB20846194600F014
:101A5000C9FF194B9B6807225A701DE0174B5B6941
:101A6000002B01D1002322E0144B5A69134B5B6910
:101A70005B889BB21046194600F0B4FF0CE0FFF7FC
:101A8000BFFE034683F00103DBB2002B01D000232D
:101A90000DE001E000230AE0074BDA88064B9B8942
:101AA0009A4203D2044BDA88034B9A8101231846E9
:101AB0000837BD4680BD00BF0C104020F00140201B
:101AC00080B500AF064BDB88012B01D0002304E07A
:101AD0000448012100F086FF0123184680BD00BFA5
:101AE0000C104020CC0A402080B582B000AF384BAB
:101AF000DB88002B01D0002365E000F043FF0346A4
:101B0000002B01D100235EE000F006FF0346002B0E
:101B100009D02F4B5B88DBB22E4A9268527C9342ED
:101B20000BDD00234FE02A4B5B88DBB2294A1268A9
:101B3000527C934201DD002345E0FFF701FD244B79
:101B40005B88DAB2244B1A70234B1B78002B01D12F
:101B5000012338E000F0E0FE0346002B0CD01D4BC3
:101B60001A691D4B1B7819466FF060430B44DB006C
:101B700013441A4A13600BE0164B5A68164B1B7835
:101B800019466FF060430B44DB001344134A1360A3
:101B90000023FB710FE0FB7918460021FFF780FC62
:101BA000034683F00103DBB2002B01D000230AE0DF
:101BB000FB790133FB71094B1B681B681B79FA79B0
:101BC0009A42E8D3012318460837BD4680BD00BFBE
:101BD0000C104020F0014020CC0A4020D00A4020C8
:101BE00080B582B000AF1E4BDB88012B01D00023F3
:101BF00032E01C4B1B78002B01D100232CE0184B4A
:101C00009B88FB71184B1B681B681B79FA799A42F9
:101C100001D3002320E0FB7918460021FFF7A8FB41
:101C2000034683F00103DBB2002B01D0002313E055
:101C30000D4B1B685A68FB799B0013441B683B6083
:101C40003B68DB68984703461A46084B1A700748FA
:101C5000012100F0C7FE012318460837BD4680BDAC
:101C60000C104020CC0A4020D00A4020C80A402056
:101C700080B582B000AF144BDB88002B01D000236D
:101C80001EE0124B1B78002B01D1002318E00E4BF5
:101C90009B88FB710C4B5B88BB71FB791846FFF787
:101CA000B3FB034683F00103DBB2002B01D000231A
:101CB00006E0FA79BB7910461946FFF7F1FB0346B7
:101CC00018460837BD4680BD0C104020CC0A402085
:101CD00080B500AF4E4B1B78DBB25BB2002B3FDA16
:101CE0004B4BDB88002B01D100238FE0484B1B7846
:101CF00003F01F03002B14D1454B5B78062B08D053
:101D0000082B0AD0002B00D00BE0FFF76FFC034636
:101D10007CE0FFF7C9FD034678E0FFF7D1FE0346FC
:101D200074E03B4B1B7803F01F03012B08D1384BA9
:101D30005B780A2B00D003E0FFF752FF034665E013
:101D4000334B1B7803F01F03022B5ED1304B5B78C3
:101D5000002B01D000BF58E0FFF75CFC034655E0C4
:101D60002B4B1B7803F01F03002B2AD1284B5B78E9
:101D7000013B082B24D801A252F823F0A91D4000F2
:101D8000C11D4000B11D4000C11D4000A11D40000B
:101D9000C11D4000C11D4000C11D4000B91D4000D3
:101DA000FFF718FD034631E0FFF752FC03462DE034
:101DB000FFF788FC034629E0FFF796FE034625E07F
:101DC00000BF134B1B7803F01F03012B08D1104BEE
:101DD0005B780B2B00D003E0FFF74AFF034615E0CA
:101DE0000B4B1B7803F01F03022B0ED1084B5B78C3
:101DF000012B02D0032B04D007E0FFF749FC034678
:101E000004E0FFF7B9FC034600E00023184680BD5C
:101E10000C10402080B582B000AF204B1B78002B07
:101E200001D1002336E01E4B9B88FB711D4B1B68C4
:101E30001B681B79FA799A4201D300232AE0FB79C7
:101E400018460021FFF794FA034683F00103DBB242
:101E5000002B01D000231DE0124B1B685A68FB7950
:101E60009B0013441B683B603B68DB689847034654
:101E70001A46FB7918461146FFF77AFA034683F0B3
:101E80000103DBB2002B01D0002303E03B689B6819
:101E90009847034618460837BD4680BDCC0A402007
:101EA0000C104020D00A402080B582B000AF1E4BFD
:101EB0001B78002B01D1002332E01C4B9B88FB7167
:101EC0000023FB7124E01A4B1B685A68FB799B00C6
:101ED00013441B683B603B68DB68984703461A461F
:101EE000FB7918461146FFF743FA034683F00103D6
:101EF000DBB2002B01D0002312E03B689B689847BF
:101F00000346002B01D001230AE0FB790133FB716A
:101F1000074B1B681B681B79FA799A42D3D30023BD
:101F200018460837BD4680BDCC0A40200C10402022
:101F3000D00A402080B500AF1F4B00229A811E4B73
:101F400000221A611C4B00225A611B4B1B78DBB22A
:101F50005BB2002B05DA184BDB88002B01D1002384
:101F600027E0154B1B7803F06003002B06D1FFF729
:101F7000AFFE0346002B01D001231AE00E4B1B7865
:101F800003F01F03012B06D1FFF744FF0346002B8C
:101F900001D001230DE0084B1B7803F01F03022B37
:101FA00006D1FFF781FF0346002B01D0012300E09B
:101FB0000023184680BD00BF0C10402080B483B0C1
:101FC00000AF78607B68DB6C18460C37BD465DF867
:101FD000047B704780B483B000AF78607B689B6CF3
:101FE00018460C37BD465DF8047B704780B584B059
:101FF00000AF786039607868FFF7E0FFF8607868D4
:10200000FFF7E8FF0246FB681340FB60FB68002B0C
:1020100038D00023BB6032E01C4ABB681B0113446C
:102020001A683B689A4223D1184ABB681B011344C3
:102030005A68FB681340002B1AD0144ABB681B0176
:10204000134408335B681149BA6812010A441068E6
:102050000E49BA6812010A445268114698470B4A61
:10206000BB681B0113445B68DB43FA681340FB60E9
:10207000BB680133BB60BB68062B00D902E0FB687C
:10208000002BC9D11037BD4680BD00BFDC0A4020FF
:1020900080B500AF02480A21FFF7A8FF80BD00BF4E
:1020A000000E0E4080B500AF02480B21FFF79EFFE7
:1020B00080BD00BF00100E4080B500AF0248102167
:1020C000FFF794FF80BD00BF00140E4080B483B0C2
:1020D00000AF78607B68013B032B1AD801A252F84D
:1020E00023F000BFF5204000FB204000032140000A
:1020F0000B21400000237B600EE04FF480737B6077
:102100000AE04FF440737B6006E04FF400737B609D
:1021100002E000237B6000BF0949094B1B6B23F4DD
:1021200040727B6813430B6300BF054B9B6E03F04B
:102130000803002BF9D00C37BD465DF8047B7047CF
:1021400000060E4080B485B000AF78601D491D4B7D
:102150001B6B23F070027B6813430B634FF4006327
:10216000FB6007E0FB68002B01D1012323E0FB6843
:10217000013BFB60134B9B6E03F00803002BF1D077
:10218000104A104B1B6B23F0030343F0020313634D
:102190004FF40063FB6007E0FB68002B01D10123D3
:1021A00009E0FB68013BFB60064B9B6E03F00803F4
:1021B000002BF1D0002318461437BD465DF8047B90
:1021C000704700BF00060E4080B483B000AF786057
:1021D0007B68012B05D10749064B9A68064B1343D0
:1021E0008B60044B054A1A600C37BD465DF8047BD2
:1021F000704700BF10180E40000010A5080000A591
:1022000080B400AF094B5B6903F08003002B07D05B
:10221000074B9B6E03F08003002B01D0012300E0ED
:1022200000231846BD465DF8047B704710180E4029
:1022300000060E4080B483B000AF78601549154B9E
:102240001A6A154B13430B6200BF124B9B6E03F4CB
:102250000033002BF9D00F490E4B1A6A0F4B134075
:102260007A68134343F45C130B6200BF094B9B6E07
:1022700003F40033002BF9D00649064B1A6A084BC9
:10228000134043F45C130B620C37BD465DF8047BCE
:10229000704700BF00060E40080037008FFFC8FFE0
:1022A000FFFFC8FE80B483B000AF786039607B6800
:1022B000002B08D01349134B1B6A134A1A40134BC7
:1022C00013430B6218E00F490E4B1A6A104B134070
:1022D0003A68120292B21A430E4B13430B6200BFCC
:1022E000084B9B6E03F00103002BF9D00549054B09
:1022F0001A6A094B13430B620C37BD465DF8047B29
:10230000704700BF00060E40FCFFC8FE0200370108
:10231000FCFFC8FF010037000000370180B400AFA8
:10232000044B9B6E03F480331846BD465DF8047B76
:10233000704700BF00060E4080B400AF034B4FF063
:1023400000529A62BD465DF8047B704700060E405D
:1023500080B400AF044B9B6E03F002031846BD46E9
:102360005DF8047B704700BF00060E4080B400AFEC
:10237000074B4FF44412DA6100BF054B9B6E03F02C
:102380004003002BF9D0BD465DF8047B704700BFC9
:1023900000060E4080B400AF044B9B6E03F0400378
:1023A0001846BD465DF8047B704700BF00060E402E
:1023B00080B485B000AF78600B4A7B6803F07F0380
:1023C000C2F80C31084BD3F80C3143F01023FB60FA
:1023D000054AFB68C2F80C31002318461437BD4685
:1023E0005DF8047B704700BF00060E4080B483B0E8
:1023F00000AF7860064A7B681B0203F4706343F009
:10240000010393630C37BD465DF8047B704700BF42
:1024100000060E4080B400AF034B20221A60BD4678
:102420005DF8047B704700BF00060E4080B483B0A7
:1024300000AF78607B68C3F312037B600549054BEE
:102440001A6F7B6813430B670C37BD465DF8047B3E
:10245000704700BF00060E4080B400AF094B1B78E8
:10246000DBB2002B14BF01230023DBB283F0010396
:10247000DBB203F00103DBB21846BD465DF8047B16
:10248000704700BF4C0B402080B483B000AF0346C0
:10249000FB71084997F907305B09FA7902F01F02CE
:1024A000012000FA02F241F823200C37BD465DF806
:1024B000047B704700E100E080B483B000AF0346C6
:1024C0003960FB7197F90730002B0BDA0D49FB7966
:1024D00003F00F03043B3A68D2B25201D2B20B446C
:1024E0001A7609E0084997F907303A68D2B25201E2
:1024F000D2B20B4483F800230C37BD465DF8047B51
:10250000704700BF00ED00E000E100E080B483B060
:1025100000AFEFF310837B607B68002B0CBF0123BF
:102520000023DBB23B6072B6BFF35F8F044B002227
:102530001A703B6818460C37BD465DF8047B70473F
:102540006002402080B483B000AF78607B68002BCD
:1025500014BF01230023DBB218460C37BD465DF8DB
:10256000047B704780B582B000AF78607868FFF771
:10257000E9FF0346002B05D0044B01221A70BFF37C
:102580005F8F62B60837BD4680BD00BF6002402045
:1025900080B483B000AF0346FB710C37BD465DF8D5
:1025A000047B704780B483B000AF0346FB710C37E7
:1025B000BD465DF8047B704780B483B000AF78609F
:1025C00039600C37BD465DF8047B704780B483B03A
:1025D00000AF786039600C37BD465DF8047B70470A
:1025E00080B483B000AF786039600C37BD465DF8C9
:1025F000047B704780B582B000AF0346FB71FB7966
:1026000083F00103DBB2002B06D00D4B1B78002BAF
:1026100002D00220FFF7C6FFFB79002B09D0084B40
:102620001B7883F00103DBB2002B02D00220FFF7FE
:10263000AFFF034AFB7913700837BD4680BD00BF6A
:102640004D0B402080B500AFFFF706FF034683F037
:102650000103DBB2002B0CD0504B5B6803F001038D
:10266000002B06D172B6BFF35F8F4D4B00221A705C
:1026700092E04A4B5B6803F00403002B0ED0474BFB
:1026800004229A60454BD3F8043803F440531B0BE3
:10269000002B02D1FEF77CFF7DE07CE03F4B5B68C6
:1026A00003F00203002B05D03C4B02229A60FEF798
:1026B0006FFF70E001F044F90346002B00D06AE0A0
:1026C00001F03CFB0346002B00D064E0334B5B6819
:1026D00003F00803002B0BD0304B08229A6001F066
:1026E000B9F9FEF72DFF00F033FE00F06FFE52E067
:1026F0002A4B1B6903F00103002B1FD0274B5B689B
:1027000003F00103002B19D0244A244BD3F80038DE
:1027100023F48043C2F80038204B01225A611F4B3A
:1027200010229A611D4A1D4BD3F8003843F48043B0
:10273000C2F800380020FFF75DFF2CE0174B1B6943
:1027400003F01003002B26D0144B5B6803F010033A
:10275000002B20D0114A114BD3F8003823F48043CA
:10276000C2F8003806E00D4B5B6803F00103002B54
:1027700000D006E0094BD3F8043803F48043002B63
:10278000F1D0064B10225A61044B01229A610120BC
:10279000FFF730FF00BF00BF80BD00BF00800340D7
:1027A0006002402080B582B000AFFFF7AFFE7860D6
:1027B0002220FFF7FDFDFDF7A5FF22200521FFF7F1
:1027C0007BFE2220FFF760FE4FF48020FFF72EFEF5
:1027D000274B4FF00072C3F80028254A244BD3F84A
:1027E000003843F40043C2F80038214A204B1B68EC
:1027F00023F4805313601E4A1D4B1B6823F440636F
:1028000013601B4A1A4BD3F8003823F48043C2F8F4
:10281000003800BF164BD3F8043803F48043002B74
:10282000F8D001F0E9F8124A114BD3F8003843F41C
:102830008043C2F800380F4B1B7883F00103DBB2F2
:10284000002B09D00B4B01221A700B4B00221A707F
:102850000320FFF79DFE02E00020FFF7CBFE00F013
:102860000DF87868FFF77EFE0837BD4680BD00BFD3
:10287000008003404E0B40204D0B402080B582B0BD
:1028800000AFFFF743FE78600120FFF7B3FE214A57
:10289000204BD3F8003823F48043C2F8003800BF3F
:1028A0001C4BD3F8043803F48043002BF8D0194AAA
:1028B000184B1B6823F480731360164B08229A612F
:1028C000144B01229A61134B10229A61114B04227E
:1028D0009A61104B02229A610E4B08229A600D4BAE
:1028E00004229A600B4B02229A600A4B0122DA60A2
:1028F000084B10229A60074A064BD3F8003843F47D
:102900008043C2F800387868FFF72CFE0837BD46D0
:1029100080BD00BF0080034080B400AF074BD3F8F8
:10292000043803F440531B0B002B14BF0123002376
:10293000DBB21846BD465DF8047B7047008003405B
:1029400080B483B000AF0346FB710D4A0C4B1B688B
:1029500023F0800313600A49094B1B6823F07F02B0
:10296000FB7903F07F0313430B60054A044B1B689C
:1029700043F0800313600C37BD465DF8047B70475D
:102980000080034080B400AF054B1B68DBB203F04E
:102990007F03DBB21846BD465DF8047B704700BF7D
:1029A0000080034080B400AF054B1A6A43F6F87309
:1029B0001340DB089BB21846BD465DF8047B7047A8
:1029C0000080034080B400AF054B1B6A9BB2C3F389
:1029D0000D039BB21846BD465DF8047B704700BFEF
:1029E0000080034080B483B000AF78600B467B80EA
:1029F000054A7B689360044A7B8893810C37BD4607
:102A00005DF8047B704700BF0C104020F0B589B022
:102A100002AF0346FB710B46BB711346BB80FB79CB
:102A200003F08003002B14BF01230023BB74FB7948
:102A300003F00F03FB71FB79032B01D900236DE138
:102A4000994BDA69FB79012101FA03F31340002B5A
:102A500001D0002362E1BB7903F00303022B09D00C
:102A6000032B04D0012B08D102237B7507E001233F
:102A70007B7504E002237B7501E000234EE17B7D42
:102A8000022B06D0032B07D0012B08D100233B7566
:102A900007E001233B7504E002233B7501E00023BE
:102AA0003CE1FB799A00814B1344FA7991007F4A0B
:102AB0000A4412687E491140BA79D20202F4C05029
:102AC000BA7C002A02D04FF4807200E0002210434A
:102AD000BA88082A03D9BA88B2F5806F06DABA88AC
:102AE000082A03D9BA885200012A17D0BA88082ABE
:102AF00003D9BA88B2F5806F08DABA88082A03D9F0
:102B0000BA885200013A03E00F2201E040F2FF725E
:102B1000B2FA82F2C2F11C02120101E06FF03F0230
:102B200010433A7D920002F00C02104341F67C12F1
:102B300002400A431A60FB79012202FA03F3FB8286
:102B40000323FB742AE0584BDA69FB7C012101FA6C
:102B500003F31340002B1ED0FB7C012202FA03F387
:102B60009AB2FB8A13439BB2FB824F494E4BDA6900
:102B7000FB7C012000FA03F3DB431340CB61FB7CB9
:102B80009A004A4B1344FA7C9100484A0A4412685E
:102B900022F002021A60FB7C013BFB74FA7CFB7999
:102BA0009A42D0D8FB79FB74B3E0FA8AFB7C42FAF4
:102BB00003F303F00103002B00F0A880FB7C5A1EF6
:102BC00013465B001344DB003A4A1344FB60FB6886
:102BD0001B7DC3F30003DBB2002B14BF01230023D2
:102BE000FB72FA68137D6FF300031375FB7C9A0088
:102BF0002E4B1344FA7C91002C4A0A44126842F08E
:102C000002021A602849284BDA69FB7C012000FA8D
:102C100003F31343CB61FB7C9A00274B13441B68DF
:102C200003F48023002B1BD1FB681B68002B01D110
:102C3000002373E0FB7C9A001C4B13441B6803F4D5
:102C40008073002B03D0FB7C63F07F03FB74FB6875
:102C50001B68FA68D168FA7C0120984700235DE080
:102C6000FB7C9A00114B1344FA7C91000F4A0A44F2
:102C7000126842F400721A60FB7A002B46D0FB689F
:102C8000DA68FB681B69D21AFB68DA60FB7C9A0081
:102C9000064B13441B6803F48073002B0ED0FB7C9F
:102CA00063F07F03DBB20AE0008003400081034051
:102CB00083E6FFFF540B402030810340FB7CFA6821
:102CC000127DC2F34002D2B2002A14BF01220022B8
:102CD000D6B2FA685168FA68D2688D18FA689168B5
:102CE000FA68D2688C1AFA6812680092184631465F
:102CF0002A46234600F08CF90346FB72FB7A83F0E8
:102D00000103DBB2002B01D0002307E0FB7C013381
:102D1000FB74FB7C032B7FF648AF012318461C375E
:102D2000BD46F0BD80B584B000AF0346FB71FB79B2
:102D300003F00F03FB73FB7B032B00D927E015493E
:102D4000144BDA69FB7B012000FA03F3DB431340E9
:102D5000CB61FB7B9A00104B1344FA7B91000E4A27
:102D60000A44126822F002021A60FB79184600F049
:102D700091FEFB7B5A1E094913465B001344DB009E
:102D80000B4403F1100213796FF3820313711037B0
:102D9000BD4680BD0080034000810340540B4020AD
:102DA00080B485B000AF0346FB71FB7903F00F03DD
:102DB000FB73FB7B9A00084B13441B6803F400234E
:102DC000002B14BF01230023DBB218461437BD4685
:102DD0005DF8047B704700BFC081034080B586B0BA
:102DE00000AF0346FB71FB7903F00F03FB75FB7D1E
:102DF0005A1E13465B001344DB00364A13443B6102
:102E0000FB7D032B01D9002360E0FB7D9A00324B50
:102E100013441B6803F40023002B06D13B691B7D80
:102E200003F00403DBB2002B01D001234EE03B6929
:102E30001B7D03F00103DBB2002B01D0002345E032
:102E4000FFF764FBF860FB795BB2002B21DAFB7DB6
:102E50009A00224B13441B6803F440531B0B002BB6
:102E600017D03A69137D43F004031375FB7D9A0074
:102E70001B4B13444FF480521A601A4AFB7D4FF4E7
:102E8000805101FA03F39361F868FFF76BFB0123AC
:102E90001CE0FB7D9A00144B1344FA7D9100124A0A
:102EA0000A44126822F400721A60FB7D9A000F4BEC
:102EB000134440221A60FB7D9A00094B13444FF4DF
:102EC00000221A60F868FFF74DFB012318461837F7
:102ED000BD4680BD540B4020C0810340308103407B
:102EE000F081034000800340008103406081034083
:102EF00080B584B000AF0346FB71FB7903F00F038C
:102F0000BB73BB7B5A1E13465B001344DB00384A7D
:102F10001344BB600023FB73BB7B032B01D900234D
:102F200062E0BB681B7D03F00403DBB2002B14D00E
:102F3000BA68137D6FF382031375BB7B9A002D4B28
:102F400013444FF480521A602B4ABB7B4FF48051DC
:102F500001FA03F353610123FB73BB7B9A00274BF8
:102F600013441B6803F40023002B2AD0BB7B9A0078
:102F7000234B13441B6803F04003002B0CD0BB7B96
:102F80009A00204B134440221A60BB7B9A001E4BD0
:102F900013444FF480221A60BB7B9A00154B1344F4
:102FA0004FF400221A60BB7B9A00184B1344BA7B83
:102FB0009100164A0A44126842F400721A60012312
:102FC000FB73FB7B002B0ED0BB681B7D03F0010362
:102FD000DBB2002B07D0BA68137D6FF300031375C3
:102FE000BB681B689847012318461037BD4680BD53
:102FF000540B40202082034000800340C0810340E6
:103000003081034060810340F08103400081034030
:1030100080B588B000AFBA607B600346FB730B4697
:10302000BB73FB7B03F00F039A00464B13441B68F2
:1030300003F48073002B14BF01230023FB77FB7B79
:1030400003F00F03FB73FB7B032B01D9002375E017
:10305000FB7B5A1E13465B001344DB003A4A1344C1
:10306000BB613A4BDA69FB7B012101FA03F31340A0
:10307000002B0FD0FB7B9A00354B13441B6803F4E5
:103080000023002B06D1BB691B7D03F00403DBB2D8
:10309000002B01D0002351E0FFF738FA7861BB69BB
:1030A0001B7D03F00103DBB2002B04D07869FFF72E
:1030B00059FA002342E0BA69137D43F00103137506
:1030C0007869FFF74FFABB69BA685A60BB697A68DA
:1030D0009A60BB690022DA60BB6900221A61BB6991
:1030E000BA6A1A60BB7B002B02D17B68002B01D12E
:1030F000012300E00023DBB203F00103D9B2BA6977
:10310000137D61F341031375BB68002B11D07B68FD
:10311000002B0ED0FB7F83F00103DBB2002B04D029
:10312000B8687968FFF752FA03E0B8687968FFF782
:1031300043FAFB7B184600F0FDFC012318462037BC
:10314000BD4680BD00810340540B402000800340F9
:10315000C081034080B584B000AF0346FB71FB79AA
:1031600003F00F03FB73204AFB7B013B4FF0007120
:1031700001FA03F35361FB7B1A011C4B1344002239
:103180009A60194AFB7B4FF4805101FA03F35361B3
:10319000BFF34F8FBFF36F8FFB795BB2002B1BDA4E
:1031A00010E0FB7B9A00124B13444FF400521A605C
:1031B00000BFFB7B9A000F4B13441B6803F40053C2
:1031C000002BF6D1FB7B9A000B4B13441B6803F4D6
:1031D00040531B0B002BE4D1FB79184600F05AFC3E
:1031E0001037BD4680BD00BF008003400083034010
:1031F000F0810340C08103403081034080B400AFC0
:10320000084A084B1B6823F4406343F400631360CF
:10321000044A044B1B6843F400531360BD465DF839
:10322000047B70470080034080B400AF084A084B1D
:103230001B6823F4406343F400631360044A044BA7
:103240001B6843F480431360BD465DF8047B704700
:103250000080034080B400AF054A054B1B6823F48F
:10326000406343F400631360BD465DF8047B704720
:1032700000800340F0B593B000AF2F4B1C463E1DBD
:1032800004F1300E35462346186859689A68DB68A1
:103290000FC5103410367445F4D1334622461068F9
:1032A000186012791A71254A244BDB6923F0010357
:1032B000D3612349224B1B68224A1A4041F2301342
:1032C00013430B601E4A1E4B1B6843F0020313603E
:1032D0001A4A1A4BDB6943F00103D361174A174BB3
:1032E0001B6823F4406343F400631360134A134BD9
:1032F0001B6843F400431360134B3B643B1DFB63AB
:10330000002387F847300CE03B6C5A1C3A64FA6B98
:10331000511CF96312781A7097F84730013387F817
:10332000473097F84730342BEED9084B4FF48042A2
:103330001A604C37BD46F0BD445440000080034045
:103340000081034083E6FFFF000010A020820340BD
:1033500080B582B000AF194A184B1B6823F07F0379
:103360001360164A154B1B6843F080031360144921
:10337000134B1A68134B134043F030030B60104A91
:103380000F4B1B6843F0020313600C4A0B4BDB69C5
:1033900043F00103D361FFF7B9F878600A4B0422C8
:1033A0001A60094B02221A60044B4FF480529A6152
:1033B0007868FFF7D7F80837BD4680BD0080034026
:1033C0000081034083E6FFFFF081034080B582B0B7
:1033D00000AFFFF79BF878600B4B01221A6078680A
:1033E000FFF7C0F8094B02221A60094B00221A614C
:1033F000074B00225A61064B00229A81054B00229E
:103400001A700837BD4680BD2082034060810340AA
:103410000C1040204F0B402080B584B000AF3B4BD8
:103420001B78002B03D000F07FFAFFF7CFFF384B5B
:103430001A68384B13401B0D082B05D000F024FAF6
:10344000354B04221A605DE0344BBB600023FB73F4
:103450000AE0FB7B324A1A44BB68591CB9601B78EE
:103460001370FB7B0133FB73FB7B072BF1D92C4BD8
:103470005A882B4B5A802A4B9A88294B9A80284B82
:10348000DA88274BDA80FEF755FD034683F0010307
:10349000DBB2002B05D000F0F7F91F4B04221A60B5
:1034A00030E01D4B04221A601D4B1B78DBB25BB26F
:1034B000002B0BDA1B4B00221A801B4B00221A80B8
:1034C000124B02221A7000F033F81BE0144BDB8819
:1034D000002B02D100F0EAF914E0124B00221A800E
:1034E000114B00221A80094B01221A700A4B10223C
:1034F0001A60FFF70BF878600C4B10221A6078689E
:10350000FFF730F81037BD4680BD00BF4F0B40209D
:10351000308103400000F07F60810340000010A074
:103520000C104020500B4020520B4020F0810340F3
:1035300080B584B000AFFEF7E9FF3860464B01224A
:103540001A603868FFF70EF8444B1B78032B04D140
:1035500000F0EAF9FFF73AFF7BE0414B9A89414BD3
:103560001B88D31AFB81FB89002B27D13E4B1A887D
:103570003C4B1B8813449AB23B4B1A80384BDA8879
:10358000394B1B889A4203D0384B1B78002B02D052
:1035900000F0AEF95DE0324B5B69002B0ED0304B92
:1035A0005B699847034683F00103DBB2002B05D12A
:1035B0002C4B00221A802A4B9B89FB81FB893F2BD5
:1035C00005D94023FB81294B00221A7002E0274BCA
:1035D00001221A70264BBB60214B9B68214A12883E
:1035E00013447B60FEF792FF3860224B1B6803F0A8
:1035F0000203002B06D03868FEF7B4FF174B0422F5
:103600001A7026E000237B730AE0BB685A1CBA607C
:103610007A68511C796012781A707B7B01337B7356
:103620007B7B9BB2FA899A42EFD80E4B1A88FB89B2
:1036300013449AB20B4B1A80BFF34F8FBFF36F8FB7
:103640000D4B01221A600D4B01221A603868FEF7FB
:1036500089FF1037BD4680BD208203404F0B4020BC
:103660000C104020520B4020500B40209C0B40205F
:10367000000010A03081034060810340F0810340CE
:1036800080B584B000AF594B1B78012B0FD0574B3E
:103690001B78022B03D0554B1B78042B02D100F072
:1036A00043F901E000F0F0F8FFF790FE9BE0504B8B
:1036B0001A68504B13401B0DBB814F4B9B891A4618
:1036C0004E4B1B881946BB890B449A4205DA4A4B7C
:1036D0009A894A4B1B88D31ABB81494BBB60464B26
:1036E0009B68464A128813447B600023FB730AE000
:1036F0007B685A1C7A60BA68511CB96012781A70DB
:10370000FB7B0133FB73FB7B9BB2BA899A42EFD8F8
:103710003A4B1A88BB8913449AB2384B1A80BB893A
:10372000402B0AD1344BDB881A46364B1B8819468E
:10373000324B1B880B449A421CDC304B1A882E4BB0
:103740009A812D4B5B69002B0ED02B4B5B69984700
:10375000034683F00103DBB2002B05D000F094F8A0
:10376000294B02221A603EE0274B02221A6000F029
:103770009DF838E0204B9A89204B1B889A4223D130
:103780001D4B5B69002B05D100F07EF81E4B022219
:103790001A6028E0184B5B699847034683F00103E1
:1037A000DBB2002B05D000F06FF8174B02221A6035
:1037B00019E0144B1A88114B1B8813449AB2114B11
:1037C0001A800E4B00221A800F4B02221A600E4BF9
:1037D00010221A60FEF79AFE38600C4B10221A6015
:1037E0003868FEF7BFFE1037BD4680BD4F0B402046
:1037F000308103400000F07F0C104020520B40202D
:10380000000010A0500B402060810340F081034075
:1038100080B500AF0B4B1B6803F00203002B00D0F8
:103820000EE0094B1B78012B02D100F03FF807E0B6
:10383000054B1B78042B03D1044B4FF400221A6074
:1038400080BD00BF308103404F0B4020F08103401A
:1038500080B400AF094B1B6803F00103002B00D0BC
:1038600007E0074B1B78032B03D1064B4FF40022D4
:103870001A60BD465DF8047B704700BF308103408D
:103880004F0B4020F081034080B400AF054B052270
:103890001A70054B4FF400221A60BD465DF8047B98
:1038A000704700BF4F0B4020F081034080B582B0CD
:1038B00000AF0C4B03221A70FEF728FE78600A4B0B
:1038C00001221A60094B01221A60074B08221A6074
:1038D000064B08221A607868FEF744FE0837BD469A
:1038E00080BD00BF4F0B402060810340F08103404A
:1038F00080B582B000AF094B04221A70FEF706FEB5
:103900007860074B10221A60064B10221A60786804
:10391000FEF728FE0837BD4680BD00BF4F0B402094
:1039200060810340F081034080B500AF034B1B6909
:10393000002B02D0014B1B69984780BD0C10402022
:1039400080B500AF274B5B6803F48053002B01D197
:10395000002344E0244B10221A60234B08221A60F3
:10396000224B1B6803F00403002B03D0FFF754FD28
:10397000012334E01D4B1B6803F00103002B09D029
:103980001B4B1B6803F00103002B03D0FFF7D0FD96
:10399000012324E0154B1B6803F00203002B03D026
:1039A000FFF76EFE01231AE0104B1B6803F00803BB
:1039B000002B06D00F4B08221A60FFF749FF0123A6
:1039C0000DE00A4B1B6803F01003002B06D0094BD7
:1039D00010221A60FFF71CFF012300E000231846A5
:1039E00080BD00BF0080034020820340308103403F
:1039F000C08103406081034080B483B000AF0023E6
:103A0000FB711CE0FA79124913465B001344DB009A
:103A10000B4403F1100213796FF300031371FA7969
:103A20000B4913465B001344DB000B4403F1100207
:103A300013796FF382031371FB790133FB71FB7907
:103A4000022BDFD90C37BD465DF8047B704700BF01
:103A5000540B402080B582B000AF0023FB7111E011
:103A6000FA7913465B001344DB00094A1A44FB79D8
:103A70000133DBB2104601211A4600F027F8FB792A
:103A80000133FB71FB79022BEAD90837BD4680BDB3
:103A9000540B402080B582B000AF0346FB71FB7928
:103AA00003F00F03FB71FB795A1E13465B001344AE
:103AB000DB00054A1A44FB79104601211A4600F042
:103AC00005F80837BD4680BD540B402080B582B054
:103AD00000AF78600B46FB701346BB707B681B7DA4
:103AE00003F00103DBB2002B00D11DE07A68137DE7
:103AF0006FF3000313757B681B68002B00D113E084
:103B0000BB789A000A4B13441B6803F48073002BA4
:103B100003D0BB7863F07F03BB707B681B68F878C9
:103B20007A689168BA7898470837BD4680BD00BF6B
:103B30000081034080B586B000AF0346FB710023CF
:103B40007B61FB795A1E13465B001344DB00734A0A
:103B50001344FB60FB681B7D03F00103DBB2002B09
:103B600000D1D7E0FB68DA68FB689B689A4200F0F6
:103B70009080FB689A68FB68DB68D31A3B613B69FD
:103B8000B3F5803F05D94FF480333B6100237B615F
:103B900002E03B691B047B61FB799A00604B134494
:103BA0001B6803F48073002B1AD0FB799A005C4BDE
:103BB00013441B6803F070031B091A460823934043
:103BC000013B1A463B691340002B26D07B6943F02A
:103BD00008037B61FA68137D6FF3410313751CE0E2
:103BE000FB799A004E4B13441B6803F4C053DB0A65
:103BF000012B0ED1FB799A00494B13441B6803F04B
:103C000070031B091A46082393401A463B699A42DF
:103C100003D37B6943F014037B61FB791A01414BA9
:103C20001344FA685168FA68D2680A445A607B699A
:103C300043F021037B61FEF769FCB860FB791A0150
:103C4000384B1344DB6803F01003002B1AD1FB79C7
:103C50001A01344B13447A699A60FB68DA683B694D
:103C60001A44FB68DA60FB683A691A612E4AFB79EC
:103C7000013B4FF0007101FA03F39361B868FEF75E
:103C800071FC47E0B868FEF76DFCFB68DA68FB681A
:103C90009A60FB799A00224B13441B6803F48073EB
:103CA000002B29D0FB681B7D03F00203DBB2002B45
:103CB0002AD0FB799A001D4B134401221A60FB792C
:103CC0009A001B4B13441B6803F48033002B05D070
:103CD000FB799A00174B134401221A60FB799A0072
:103CE000154B134401221A600F4AFB794FF480519F
:103CF00001FA03F393610DE0FB685A68FB689B6867
:103D000010461946FEF76CFCFB79F86800211A464C
:103D1000FFF7DCFE1837BD4680BD00BF540B4020C6
:103D20000081034000830340008003406081034022
:103D30003081034090810340F081034080B584B01E
:103D400000AF0123FB73C7E0FB7B5A1E13465B00E9
:103D50001344DB00654A1344BB60654B1A69FB7B67
:103D6000013B4FF0007101FA03F31340002B37D0F1
:103D70005F4B5A68FB7B013B4FF0007101FA03F384
:103D80001340002B2CD0FB7B1A015A4B1344DB68E9
:103D900003F00103002B01D00123A2E0544AFB7B76
:103DA000013B4FF0007101FA03F35361FB7B1A01F1
:103DB000504B1344DB681B0C7B607B68002B09D0E5
:103DC000BB68DA687B68D21ABB68DA60BB68DA68FD
:103DD000BB689A60FB7B1846FFF7ACFE012380E0CE
:103DE000434B1A69FB7B4FF4805101FA03F31340F4
:103DF000002B6ED0FB7B9A003F4B13441B6803F0F3
:103E00000103002B23D0FB7B9A003C4B13441B681F
:103E100003F00103002B1AD0FB7B9A00384B1344AC
:103E200001221A60FB7B9A00364B134401221A6070
:103E3000FB7B9A00324B13444FF480421A60FB7BA9
:103E4000B86800211A46FFF741FE012349E0FB7BD9
:103E50009A00294B13441B6803F48053002B38D07D
:103E6000FB7B9A00254B13441B6803F440531B0B48
:103E7000002B2ED1FB7B9A00214B13444FF4805230
:103E80001A601B4AFB7B4FF4805101FA03F3536124
:103E9000BA68137D6FF382031375FB7B9A001A4B8C
:103EA0001344FA7B9100184A0A44126822F4007203
:103EB0001A60FB7B9A00154B13444FF400221A60E2
:103EC000FB7B9A00114B13444FF480221A600123AC
:103ED00007E0FB7B0133FB73FB7B032B7FF634AFE7
:103EE000002318461037BD4680BD00BF540B40204C
:103EF0000080034000830340C081034030810340C1
:103F0000208203406081034000810340F081034030
:103F100080B483B000AFEFF310837B607B68002B2D
:103F20000CBF01230023DBB23B6072B6BFF35F8F8F
:103F3000044B00221A703B6818460C37BD465DF8EA
:103F4000047B70476002402080B483B000AF78608B
:103F50007B68002B14BF01230023DBB218460C370B
:103F6000BD465DF8047B704780B582B000AF7860D5
:103F70007868FFF7E9FF0346002B05D0044B0122C8
:103F80001A70BFF35F8F62B60837BD4680BD00BFB1
:103F90006002402080B584B000AFF860B9607A60FC
:103FA0007B681B0203F47062BB68134343F08063B9
:103FB000F868194601F078FA002318461037BD4614
:103FC00080BD00BF80B586B000AFF860B9607A6090
:103FD000BB680E2B02D0BB680F2B02D14FF0FF3312
:103FE00014E0FFF795FF78617B681A02094B1340D4
:103FF000BA68D2B2134343F0B443F868194601F0EB
:104000004BFA38617869FFF7AFFF3B6918461837FC
:10401000BD4680BD00FFFF0080B485B000AF786072
:104020003960104A3B68B2FBF3F3FB60FA68134651
:104030001B039B1ABB607A68FB689A4203D37A68B9
:10404000BB689A4202D94FF6FF7305E07A68FB68B5
:10405000B2FBF3F3C3F30B0318461437BD465DF808
:10406000047B70470020A10780B485B000AFF860E2
:10407000B96011461A460B46FB801346BB80FB888D
:10408000C3F30B02BB681A43BB881B041946054BDC
:104090000B401A43FB685A601437BD465DF8047B39
:1040A000704700BF0000FF0F80B483B000AF78609E
:1040B0007B68054A934202D17B68044A1A600C3738
:1040C000BD465DF8047B704750180E40010000A506
:1040D00080B483B000AF786039607B685B68C3F3FD
:1040E0000B03DA013B68B2FBF3F3044A02FB03F370
:1040F00018460C37BD465DF8047B704740420F0000
:1041000080B487B000AFF860B9607A603B60114B53
:104110007B61BB68A3F580035B0A7B82BB689BB2B3
:10412000C3F308033B82FB68002B02D0FB687A696B
:104130001A607B68002B02D07B687A8A1A803B6801
:10414000002B02D03B683A8A1A801C37BD465DF8C6
:10415000047B7047000C0E4080B582B000AF7860E1
:104160003960054879683A68FFF714FF002318465C
:104170000837BD4680BD00BF000C0E4080B584B03E
:1041800000AF786007F10C0207F10A031046796866
:104190001A460023FFF7B4FFFB687A8918461121FD
:1041A000FFF710FF0346002B01D0102300E000238F
:1041B00018461037BD4680BD80B584B002AF786028
:1041C00039603B68802B01D980233B603B680093BA
:1041D0000748142115227B6801F06EF90346002B75
:1041E00001D0102300E0002318460837BD4680BDEB
:1041F000000C0E4080B584B000AF786039603B6839
:10420000802B01D9112325E03B689B001348796876
:104210001A4601F003F94FF48003BB600023FB60F2
:104220000AE0BB681A1DBA600C49FA6851F82220EE
:104230001A60FB680133FB60FB687F2BF1D90848EB
:1042400012210022FFF7BEFE0346002B01D01023EF
:1042500000E0002318461037BD4680BDA00B40206B
:10426000000C0E4080B500AF034813210022FFF779
:10427000A9FE0346184680BD000C0E4080B400AF76
:10428000034B044A1A60BD465DF8047B704700BFCB
:1042900000180E40010000A580B400AF044B1B685D
:1042A0000133034A1360BD465DF8047B704700BFCD
:1042B000A00D402080B500AF00F010F900F0B6FD71
:1042C000054B1B68B3F5FA6F05D3034B00221A6048
:1042D0000248FFF7E9FEF1E7A00D402050180E401C
:1042E00080B483B000AF0346FB71084997F90730EB
:1042F0005B09FA7902F01F02012000FA02F241F88C
:1043000023200C37BD465DF8047B704700E100E0D8
:1043100080B483B000AF0346FB71094997F90730B9
:104320005B09FA7902F01F02012000FA02F2203341
:1043300041F823200C37BD465DF8047B704700BF71
:1043400000E100E080B483B000AF0346FB7109498F
:1043500097F907305B09FA7902F01F02012000FA91
:1043600002F2603341F823200C37BD465DF8047B30
:10437000704700BF00E100E080B483B000AF0346A7
:104380003960FB7197F90730002B0BDA0D49FB7987
:1043900003F00F03043B3A68D2B25201D2B20B448D
:1043A0001A7609E0084997F907303A68D2B2520103
:1043B000D2B20B4483F800230C37BD465DF8047B72
:1043C000704700BF00ED00E000E100E080B582B082
:1043D00000AF78607B68013BB3F1807F01D301239C
:1043E0000FE00A4A7B68013B53604FF0FF30072122
:1043F000FFF7C2FF054B00229A60044B07221A60A8
:10440000002318460837BD4680BD00BF10E000E01D
:1044100080B483B000AF78607B68072B25D801A2F9
:1044200052F823F0454440004B44400051444000C2
:10443000574440005B4440005F44400063444000F8
:10444000674440004FF4FA4310E04FF400430DE09E
:104450004FF400430AE0084B08E0084B06E0084B25
:1044600004E0074B02E0064B00E0002318460C373F
:10447000BD465DF8047B704700093D0000127A00DC
:10448000001BB70080B500AF0620FFF7C1FF024652
:1044900013469B0013449A001344184680BD00BF86
:1044A00080B500AFFFF7EEFF0346184680BD00BFA2
:1044B00080B582B000AF78607868FDF779FF083783
:1044C000BD4680BD80B500AF0A20FFF7F1FF0B208D
:1044D000FFF7EEFF1020FFF7EBFF80BD80B500AFC8
:1044E000FCF71EF900F056F82220FDF761FFFFF7F8
:1044F000E9FF074B1B680133054A136000F056F8CB
:1045000000F008F800F016F8FDF714F880BD00BFC1
:10451000A40D402080B500AFFFF7C2FF0246044B58
:10452000A3FB02239B091846FFF750FF80BD00BF85
:10453000D34D621080B584B000AF13484FF40041F2
:10454000FFF76AFDF860114BBB60FB689AB2FB682D
:104550009BB20F48B968FFF787FD0D484FF4004143
:10456000FFF7B6FD03467B600420FFF7D1FE042071
:10457000FFF7E8FE04200021FFF7FEFE0420FFF70E
:10458000AFFE1037BD4680BDC0C62D000010003004
:1045900050180E4080B582B000AF00200621FFF712
:1045A000DBFD78600837BD4680BD00BF2DE9B04314
:1045B00084B000AF3B4618460121FFF7FDFDF860CF
:1045C0003B68B3F1FF3F01D1C8233B603B68013337
:1045D0003B60FFF747FEF860FFF762FF03461A46AD
:1045E0004FF00003921843EB03034FEA830949EAB3
:1045F00092794FEA820812EB080243EB090341F279
:104600002B704FF00001121843EB010310461946BE
:1046100041F22C724FF0000300F02AFC02460B46D8
:104620001346184600F050FF3B4618460121FFF79D
:10463000E1FDF860FFF734FF03461A464FF0000330
:10464000921843EB03039D0045EA927594001219FA
:1046500043EB050341F22B704FF00001121843EBBE
:1046600001031046194641F22C724FF0000300F08E
:10467000FFFB02460B461346184600F025FF3B465B
:1046800018460121FFF798FDF8603B68022B0FD810
:104690004FF484031B687B607B6883F30888064BB8
:1046A0004FF484029A60054B1B68BB60BB68984757
:1046B0001037BD46BDE8B08300ED00E004004200C5
:1046C00080B483B000AFEFF310837B607B68002B76
:1046D0000CBF01230023DBB23B6072B6BFF35F8FD8
:1046E000044B00221A703B6818460C37BD465DF833
:1046F000047B70476002402080B483B000AF7860D4
:104700007B68002B14BF01230023DBB218460C3753
:10471000BD465DF8047B704780B582B000AF78601D
:104720007868FFF7E9FF0346002B05D0044B012210
:104730001A70BFF35F8F62B60837BD4680BD00BFF9
:104740006002402080B483B000AF78607B68072BA4
:1047500025D801A252F823F0794740007F47400056
:10476000854740008B4740008F47400093474000FB
:10477000974740009B4740004FF4FA4310E04FF446
:1047800000430DE04FF400430AE0084B08E0084BFB
:1047900006E0084B04E0074B02E0064B00E0002374
:1047A00018460C37BD465DF8047B704700093D0094
:1047B00000127A00001BB70080B500AF0620FFF79B
:1047C000C1FF024613469B0013449A001344184647
:1047D00080BD00BF80B500AFFFF7EEFF034618466F
:1047E00080BD00BF80B584B000AF0346FB71FCF70D
:1047F000E1FB0346BB810023FB812BE0194BB3F89F
:1048000058329BB25A1C91B2164AA2F858121A4654
:10481000144B134418460121FCF76AFC114BB3F802
:1048200058329BB2B3F5167F03D10E4B0022A3F88A
:1048300058220C4BB3F858329AB20A4BB3F85A329A
:104840009BB29A4203D1074B012283F85C22FB8979
:104850000133FB81FA89BB899A42CFD31037BD4619
:1048600080BD00BFAC0D402080B485B000AF786043
:104870007B680022A3F858227B680022A3F85A2202
:104880007B68002283F85C220123FB6007E07A68E2
:10489000FB68134400221A70FB680133FB60FB685D
:1048A000B3F5167FF3DB1437BD465DF8047B704724
:1048B00080B485B000AF78600B467B8013467B7078
:1048C0007B68B3F85A32FB81FA897B881344FB81F9
:1048D000FB89B3F5167F03D3FB89A3F51673FB8120
:1048E0007B78002B03D07B68FA89A3F85A22FB89D6
:1048F000DBB218461437BD465DF8047B704700BF35
:1049000080B485B000AF78600B467B8013467B7027
:104910007B68B3F85A32FB81FA897B889A4204D3C8
:10492000FA897B88D31AFB8109E07B68B3F85A3295
:104930009AB27B88D31A9BB203F51673FB817B78FE
:10494000002B03D07B68FA89A3F85A22FB89DBB2DB
:1049500018461437BD465DF8047B704780B483B0B9
:1049600000AF78607B68B3F858329AB27B68B3F8CE
:104970005A329BB29A420AD37B68B3F858329AB241
:104980007B68B3F85A329BB2D31A9BB20CE07B68B7
:10499000B3F858329AB27B68B3F85A329BB2D31A42
:1049A0009BB203F516739BB218460C37BD465DF8F3
:1049B000047B704780B582B000AF78600B467B8087
:1049C0007B88786819460022FFF772FF03461A4673
:1049D0007B689B5C18460837BD4680BD90B583B0A8
:1049E00000AF78600B467B807B8878681946002290
:1049F000FFF786FF03461A467B689B5C1C467B8854
:104A0000013B9BB2786819460022FFF779FF034605
:104A10001A467B689B5C1B021C437B88023B9BB253
:104A2000786819460022FFF76BFF03461A467B6839
:104A30009B5C1B041C437B88033B9BB27868194634
:104A40000022FFF75DFF03461A467B689B5C1B064E
:104A5000234318460C37BD4690BD00BF90B585B0C6
:104A600000AF03463960FB711346BB8038680021F4
:104A7000FFF7A0FF03469CB238680121FFF79AFFB9
:104A800003461B029BB2224613439BB2BB8138688C
:104A90000421FFF78FFF0346FB72FB7ADB09DBB2D1
:104AA000002B14BF01230023BB72FB7A03F07F03AA
:104AB000FB7238680221FFF77DFF03467B7238687E
:104AC0000321FFF777FF03463B72BB7A002B0ED022
:104AD0007B7A9AB23B7A1B029BB213439BB29BB286
:104AE0000633FB81BA88FB899A4202D20EE0062384
:104AF000FB81FB89386819460122FFF7D9FEF97955
:104B00003A7ABB890846396800F012F81437BD4676
:104B100090BD00BF80B500AF4FF48400FFF72EFBBF
:104B2000014B024A1A6080BD00180E40010000A52A
:104B300090B5ADF2944D02AF044638460160104680
:104B40001946FB1D22461A70BB1D02461A703B1DFA
:104B50000A461A8007F10C031A464FF400731046F8
:104B600000211A4600F065FC3B1D1B88A72B00F0B6
:104B7000D680A82B24D02F2B40F0D48007F50373C8
:104B800000221A7007F5037300225A7007F50373A9
:104B900000229A7007F503730122DA70FB1D197861
:104BA00007F5037201230093112301930846302176
:104BB000042300F009F93B461868FFF755FEB1E001
:104BC0003B4618684FF40171FFF708FFC7F87804F7
:104BD000D7F8783403F58003C7F87834D7F87834F9
:104BE000C7F87434D7F87834C3F31003002B05D119
:104BF000D7F87804FFF7C2FAC7F87004D7F878340A
:104C0000C7F86C340023C7F8843416E0D7F884342E
:104C10009B00D7F86C24D118D7F884349B000A3352
:104C20003A461268134408461946042200F0F6FB7F
:104C3000D7F884340133C7F88434D7F884347F2B11
:104C4000E4DDFFF73DFDC7F86804384B1B881B0205
:104C50001A46374B1340374A1A433748114600F07B
:104C60001BFCC7F86404D7F86804FFF755FD2F4B09
:104C70001B8801339AB22D4B1A80D7F86434002B6D
:104C800001D0FFF747FF0023C7F8803411E0D7F8C1
:104C90008034D7F874241344197807F10C02D7F83C
:104CA000803413440A461A70D7F880340133C7F8A9
:104CB0008034D7F88034B3F5007FE8DB0023C7F8F1
:104CC0007C3414E007F10C02D7F87C3413441A78D2
:104CD000D7F87C340A3339460968CB5C9A4201D054
:104CE000FFF718FFD7F87C340133C7F87C34D7F8C6
:104CF0007C34B3F5007FE5DBFB1D197807F10C026E
:104D000001230093112301930846A9214FF4007356
:104D100000F05AF83B461868FFF7A6FD02E000F0E5
:104D20000DF800BF07F28C47BD4690BD62024020DF
:104D300000FFFF000100005A000C0E40B0B582B029
:104D400000AF00233B60FFF78DFA7860FFF742FD6C
:104D500003461A464FF00003921843EB03039D00ED
:104D600045EA92759400121943EB050341F22B704A
:104D70004FF00001121843EB01031046194641F2AF
:104D80002C724FF0000300F073F802460B461346F6
:104D9000184600F099FB3B4618460121FFF72AFA16
:104DA000786000F003F80837BD46B0BD80B400AFAE
:104DB000034B044A1A60BD465DF8047B704700BF90
:104DC00000180E40010000A580B586B000AFBA60A3
:104DD0001A460346FB730B46BB811346FB80BB8917
:104DE000DBB23B74BB891B0A9BB2DBB27B74FB88D2
:104DF000DBB2BB74FB881B0A9BB2DBB2FB7497F877
:104E0000203063F07F03DBB23B7597F824307B756D
:104E100007F1100318460621FCF75CFAFB88B86816
:104E20001946FCF757FA1837BD4680BD80B582B0E9
:104E300000AF0E4B93F85C32DBB2002B03D00B4873
:104E4000FFF712FD0FE00948FFF788FD0346FB80DE
:104E5000FB889BB2052B06D9FB889BB20020034937
:104E60001A46FFF7FBFD0837BD4680BDAC0D40205C
:104E700053B94AB9002908BF00281CBF4FF0FF31C1
:104E80004FF0FF3000F03CB882B0EC462DE9005006
:104E900000F01EF8DDF804E002B00CBC704700BF63
:104EA0002DE9F041904606460F461D46069C00F04F
:104EB00029F808FB01FC8646A8FB002300FB05C57A
:104EC000B21A2B4467EB0303C4E90023BDE8F08169
:104ED0002DE9F8431D46174680468946089E00F096
:104EE00053F900FB05F3A0FB074507FB0137B8EBBF
:104EF00004043D4469EB0505C6E90045BDE8F883B7
:104F0000704700BF00292DE9F047C0F2A2800026BB
:104F1000002BC0F298808C4690469E46154604466B
:104F20000F46CBBB8A4256D9B2FA82F33BB1C3F1EA
:104F300020029F409D409C4020FA02F21743280C1B
:104F4000220C1FFA85FEB7FBF0F100FB11770EFB78
:104F500001F342EA0747BB4207D97F1980F001817C
:104F6000BB4240F2FE8002392F44FF1AA4B2B7FBC5
:104F7000F0F300FB13770EFB03FE44EA0747BE4540
:104F800006D97F1980F0EB80BE4540F2E880023BF5
:104F900043EA0143002203E08B420FD9002213466B
:104FA000341C4FF0000518BF0124604265EB450139
:104FB0005840514000196941BDE8F087B3FA83F2C7
:104FC000002A40F08380804540F2CD808B42C0F0C3
:104FD000CA801346E4E712B90123B3FBF2F5B5FA30
:104FE00085F2002A3BD1781B4FEA154E1FFA85FC4B
:104FF0000122210CB0FBFEF80EFB18000CFB08F39D
:1050000041EA0047BB4208D97F1980F0B080BB421B
:1050100040F2AD80A8F102082F44FF1AA4B2B7FBFA
:10502000FEF30EFB13770CFB03FC44EA0747BC4579
:1050300006D97F1980F09980BC4540F29680023BEA
:1050400043EA0843ACE752426FEA060663EB4303C8
:1050500061E740424FF0FF3661EB410158E7954070
:10506000C2F1200107FA02F34FEA154ECF4024FAAD
:1050700001F194401FFA85FC1943B7FBFEF24FEA99
:1050800011480EFB12770CFB02F348EA0747BB42BC
:1050900005D97F1971D2BB426FD9023A2F44FF1A4A
:1050A00089B2B7FBFEF80EFB18770CFB08F041EA5B
:1050B0000743984206D95B1961D298425FD9A8F19B
:1050C00002082B44181A48EA024292E7C2F120076C
:1050D00003FA02FE08FA02F5914028FA07F32CFAC7
:1050E00007FCF84043EA0E0E08434FEA1E48070C3F
:1050F0001FFA8EFABCFBF8F908FB19CC0AFB09F180
:1051000047EA0C4C614507D91CEB0E0C32D26145C5
:1051100030D9A9F10209F444C1EB0C0C80B2BCFBFC
:10512000F8F308FB13CC0AFB03FA40EA0C418A456A
:1051300006D911EB0E0125D28A4523D9023B7144D1
:1051400043EA0943CAEB0101A3FB0589494503D39F
:1051500003D19440444500D2013B002220E7013BAB
:1051600016E7013901E701231AE7013B68E708F177
:10517000FF3852E709F1FF39CEE7013A8FE708F12E
:10518000FF389FE7013BDBE72DE9F043002B40D1DF
:105190008A42044615464AD9B2FA82F30F464BB109
:1051A000C3F12006994000FA03F402FA03F5F04037
:1051B00040EA0107290C260C1FFA85FEB7FBF1F027
:1051C00001FB10770EFB00F246EA07439A4207D92B
:1051D0005B1980F0EA809A4240F2E78002382B4463
:1051E0009A1AA4B2B2FBF1F301FB13220EFB03FEE9
:1051F00044EA0242964506D9521980F0DA80964573
:1052000040F2D780023B43EA004000263146BDE829
:10521000F0838B4244D8B3FA83F6002E45D1824204
:1052200040F2BF808B42C0F0BC803046EEE712B93E
:105230000125B5FBF2F5B5FA85F2002A7BD14A1BB0
:105240002F0C1FFA85FE0126230CB2FBF7F007FB9B
:1052500010220EFB00FC43EA02418C4507D9491994
:1052600080F0A1808C4540F29E8002382944CCEB2E
:105270000101A4B2B1FBF7F307FB13110EFB03FE10
:1052800044EA0144A64506D9641980F09080A645F9
:1052900040F28D80023B43EA00403146BDE8F08396
:1052A000002630463146BDE8F083C6F12005B34004
:1052B00002FA06F701FA06F4EA40E94020FA05F599
:1052C0001A4325434FEA124C4FEA154E93B2B1FBF5
:1052D000FCF80CFB181103FB08F44EEA01418C4268
:1052E00006D9891869D28C4267D9A8F102081144FD
:1052F000091BADB2B1FBFCF40CFB141103FB04FE63
:1053000045EA01439E4505D99B1854D29E4552D982
:10531000023C134444EA0844CEEB0303A4FB078990
:105320004B4503D351D1B04040454ED20026601EBC
:105330003146BDE8F083C2F12006954001FA02F340
:1053400000FA02F42F0CF140F0401FFA85FEB1FB89
:10535000F7F6184307FB16110EFB06F24FEA104C46
:105360004CEA01439A4205D95B1929D29A4227D9BE
:10537000023E2B449B1A80B2B3FBF7FC07FB1C33A5
:105380000EFB0CF140EA0343994206D95B1919D28E
:10539000994217D9ACF1020C2B445A1A4CEA064632
:1053A00052E7012032E7013861E7013818E7013B95
:1053B00071E7013B27E7013CACE708F1FF3897E7CD
:1053C000013ED7E70CF1FF3CE7E7204600261DE74A
:1053D00070B50E4B00250E4C1E46E41AA410A542D3
:1053E00004D056F8253001359847F8E700F046F824
:1053F000084C094B0025E41A1E46A410A54204D00F
:1054000056F8253001359847F8E770BD88544000BC
:10541000885440008C54400088544000431E0A4485
:1054200010B5914204D011F8014B03F8014FF8E791
:1054300010BD02440346934202D003F8011BFAE771
:1054400070470000000000000000000000AAAAAAA7
:10545000AAAAAAAAAAEEEEEEEEEEEEEEEEFEFFFF8E
:10546000FFFFFFFFFFFFFFFFFF7FBFDFEFF7FBFD4A
:10547000FC7EBFDFEFF7FBFD7E000000F8B500BF4C
:10548000F8BC08BC9E46704781014000F8B500BFDB
:10549000F8BC08BC9E46704701B40248844601BC73
:1054A000604700BFCD00402001B40248844601BCE3
:1054B000604700BFB100402001B40248844601BCEF
:1054C000604700BF0D00402001B40248844601BC83
:0C54D000604700BF010040205D0140006B
:0854DC0028FAFF7F0100000027
:1054E400BFF35F8F0138FBD1704700BF80B489B030
:1054F40000AFF860B9607A603B604FF48003BB6131
:105504003B68002B01D102233CE0FB681B6843F499
:105514008032FB681A60BB68DBB243F0B442FB68BC
:105524005A60FB689B687B617B6903F00103002B75
:10553400F7D10023FB610CE0FB699B003A6813443C
:10554400FA699200B9690A4412681A60FB69013366
:10555400FB61FA69BB6A9A42EED37B68DBB243F023
:10556400B442FB685A60FB689B687B617B6903F00B
:105574000103002BF7D0FB681B6823F48032FB681F
:105584001A60002318462437BD465DF8047B704733
:1055940080B483B000AF786039607B683A681A6081
:1055A4000C37BD465DF8047B704700BF80B485B0FE
:1055B40000AF786039607B683A685A607B689B68A2
:1055C400FB60FB6803F00103002BF7D0FA68044B7F
:1055D400134018461437BD465DF8047B704700BF7E
:1055E4000E000F0000093D00FD074000090A4000BD
:1055F4005D0A40002D0B4000000000001D09400022
:10560400290A40001D0B40002D0B40003D0B4000BB
:1056140012010002020000401313032F00020102D2
:10562400000100000A060002020000400100000020
:1056340009024300020100C0320904000001020211
:1056440001000524001001042402020524060001BF
:105654000524010301070583034000100904010028
:10566400020A00000007058102400000070502024B
:105674004000000009024300020100C03209040096
:1056840000010202010005240010010424020205A5
:1056940024060001052401030107058303400010CB
:1056A40009040100020A000000070581020002004B
:1056B4000705020200020000080140201C014020EE
:1056C40050014020D801402094014020D8014020BE
:1056D40030014020E00140203001402044014020BE
:1056E400E8014020000000000403090454686F72BC
:1056F4006C6162730000000054686F726C616273C5
:10570400204D434D20426F6F746C6F61646572006D
:105714000003000000000000000000000000000082
:105724000000000000000000000000000000000075
:105734000000000000000000000000000000000065
:04574400010000015F
:04000005004001B9FD
:00000001FF
