:020000040042B8
:10000000D067402061024200DD024200DD02420072
:10001000DD024200DD024200DD024200000000007D
:10002000000000000000000000000000A16D43007F
:10003000DD02420000000000716F4300D96F4300F1
:10004000DD024200DD024200DD024200DD0242002C
:10005000DD024200DD024200DD024200DD0242001C
:10006000CD9E420000000000B1244200C5244200A1
:1000700000000000DD024200DD024200DD0242001D
:10008000D924420000000000DD024200DD024200EF
:10009000DD024200DD024200DD024200DD024200DC
:1000A000DD024200DD02420000000000000000000E
:1000B00000000000B52F420000000000DD024200F9
:1000C000DD024200DD0242007D36420000000000F9
:1000D0000000000000000000000000000000000020
:1000E000B92F4200CD024200CD024200CD024200B3
:1000F000CD024200CD024200CD02420000000000CD
:100100000000000000000000CD024200CD024200CD
:10011000CD024200000000000000000000000000CE
:10012000CD024200CD024200D5984200CD024200ED
:10013000CD0242000000000000000000CD0242009D
:1001400000000000000000000000000000000000AF
:10015000CD024200CD024200CD024200044B0548D0
:100160001B1A062B02D9044B03B11847704700BF76
:10017000379D4300349D43000000000005490648B8
:10018000091A891001EBD171491002D0034B03B158
:1001900018477047349D4300349D43000000000021
:1001A00010B5064C237843B9FFF7D8FF044B13B1C1
:1001B0000448AFF300800123237010BDA00240204B
:1001C00000000000349D430008B5084B1BB10849EE
:1001D0000848AFF300800848036813B9BDE8084039
:1001E000CCE7064B002BF9D09847F7E7000000005A
:1001F000A4024020349D4300349D430000000000D1
:1002000080B582B000AF786039603A68796802489A
:1002100006F0B2FEFEE700BFA087430080B400AF47
:1002200000BFBD465DF8047B704700BF80B483B05B
:1002300000AF4FF0800372B683F31188BFF36F8F66
:10024000BFF34F8F62B67B60FEE700BF80B500AFA3
:1002500005F010FA15F0DEFA0023184680BD00BF45
:1002600080B582B000AF164B7B60164B3B607A685E
:100270003B689A420CD007E03B681A1D3A607A68E6
:10028000111D796012681A603B680F4A9342F3D3DC
:100290000E4B3B6004E03B681A1D3A6000221A6076
:1002A0003B680B4A9342F6D30A4B7B600A4A7B6851
:1002B00023F07F03936018F071F9FFF7C7FFFEE7A3
:1002C000349D430000004020A0024020A0024020B6
:1002D000D04740200000420000ED00E080B483B031
:1002E00000AF42F20F737B60EFF305833B603B6826
:1002F0007B60F9E780B400AF524B1B6B03F0030344
:10030000012B14D0012B02D3022B38D07AE04E4BB4
:100310005B6903F08003002B04D04C4B4FF4004288
:100320001A606FE0494B4FF4FA421A606AE0454B9D
:100330001B6A03F08073002B03D0444B444A1A60BD
:1003400060E0424B434A1A603E4B1B6A03F0700365
:10035000102B04D0202B08D0002B0ED00EE03B4BEE
:100360001B685B00394A136008E0384B1A68134673
:100370005B001344354A136000E000BF42E0314B9C
:100380001B6A03F08073002B03D0304B304A1A6095
:100390001CE02E4B2F4A1A602A4B1B6A03F0700395
:1003A000102B04D0202B08D0002B0ED00EE0274BB2
:1003B0001B685B00254A136008E0244B1A6813464B
:1003C0005B001344214A136000E000BF1D4B1B6B10
:1003D00003F00303022B14D11A4B9A6A1E4B1340ED
:1003E0001B0C0133194A126802FB03F3174A13600E
:1003F000144B9B6ADBB2154A1268B2FBF3F3134A43
:10040000136000BF0F4B1B6B03F07003702B08D100
:100410000E4B1B68114AA2FB03235B080B4A1360B7
:100420000AE0084B1B6B03F070031B09074A1268B4
:1004300022FA03F3054A136000BFBD465DF8047B52
:10044000704700BF00060E4010180E400401402007
:10045000001BB70000093D000000FF07ABAAAAAAD5
:1004600080B483B000AF78607B681D4A934204D8A3
:100470001C4B4FF080621A602BE07B681A4A934253
:1004800003D8184B194A1A6023E07B68184A934234
:1004900003D8144B174A1A601BE07B68164A934234
:1004A00003D8104B154A1A6013E07B68144A934234
:1004B00004D80C4B4FF004221A600AE07B68114A02
:1004C000934203D8074B104A1A6002E0054B0F4ACB
:1004D0001A6000BF0C37BD465DF8047B704700BF53
:1004E000BFF35E01000C0E407FE7BD020001000477
:1004F0003FDB1C0400020004FFCE7B050003000468
:10050000BFC2DA067FB63908000500040006000401
:1005100080B582B000AF78607B68072B31D801A22C
:1005200052F823F081054200450542004D05420086
:10053000550542005D054200650542006D0542001B
:1005400077054200002002F083F81AE0012002F053
:100550007FF816E0002002F0B1F812E0102002F05F
:10056000ADF80EE0202002F0A9F80AE03E210020BC
:1005700002F0DCF805E03E21012002F0D7F800E0AF
:1005800000BF00BF0837BD4680BD00BF80B582B048
:1005900000AF78607B68072B26D801A252F823F0C1
:1005A000C1054200C5054200C5054200D70542000D
:1005B000D7054200D7054200D7054200D7054200C3
:1005C000012312E002F060F80346002B14BF012360
:1005D0000023DBB209E002F0E5F80346002B14BF6C
:1005E00001230023DBB200E0002318460837BD4694
:1005F00080BD00BF80B483B000AF78607B68072BFC
:1006000025D801A252F823F0290642002F06420005
:10061000350642003B0642003F06420043064200C8
:10062000470642004B0642004FF4FA4310E04FF4F5
:1006300000430DE04FF400430AE0084B08E0084B8C
:1006400006E0084B04E0074B02E0064B00E0002305
:1006500018460C37BD465DF8047B704700093D0025
:1006600000127A00001BB70080B582B000AF0346CD
:10067000FB7100BFFB791846FFF788FF034683F044
:100680000103DBB2002BF5D100BF0837BD4680BDAA
:1006900080B586B000AFF8607A603B600B46FB72B5
:1006A0007B68002B07D13B68002B04D1FB684FF41B
:1006B00070021A6019E0FB7A1846FFF79BFF0246AA
:1006C0007B68B2FBF3F37B617B693A6802FB03F35F
:1006D0007B613B68013B1A04064B13407A68D2B237
:1006E000134343F47C52FB681A6000BF1837BD46C1
:1006F00080BD00BF0000FF0780B582B000AF78600A
:1007000039603B68002B08D102F05AF8084A7B6830
:100710001B6843F00053936205E0054A7B681B6841
:1007200043F48033D36100BF0837BD4680BD00BFAE
:1007300000060E4080B582B000AF78607B68002B69
:1007400003D102F04BF8034602E002F069F80346D9
:1007500018460837BD4680BD80B582B000AF03465D
:10076000FB71FB79033B042B08D8FB791846FFF794
:10077000CFFEFB791846FFF777FF00E000BF00BF10
:100780000837BD4680BD00BF80B582B000AF78603D
:1007900000BF7868FFF7CEFF0346002BF9D0002397
:1007A00018460837BD4680BD80B500AF0620FFF76C
:1007B00021FF024613469B0013449A001344184637
:1007C00080BD00BF80B500AFFFF7EEFF03461846BF
:1007D00080BD00BF80B582B000AF02F00DF80020F0
:1007E00002F04AF802F05CF800BF0837BD4680BD51
:1007F00080B582B000AF1348FFF732FE0620FFF746
:10080000ABFF381D192301220621FFF741FF3B1DD5
:1008100000211846FFF770FF0020FFF7B5FF022008
:1008200001F096FE002001F0D1FEFFF763FDFFF717
:10083000C9FF03461846FFF713FE00BF0837BD4641
:1008400080BD00BF000E270780B483B000AFEFF378
:1008500010837B607B68002B0CBF01230023DBB27D
:100860003B6072B6BFF35F8F044B00221A703B6887
:1008700018460C37BD465DF8047B704732024020B5
:1008800080B483B000AF78607B68002B14BF012375
:100890000023DBB218460C37BD465DF8047B704779
:1008A00080B582B000AF78607868FFF7E9FF034653
:1008B000002B05D0044B01221A70BFF35F8F62B684
:1008C00000BF0837BD4680BD3202402080B483B0EF
:1008D00000AF0023BB71444B00221A70BB79434A1E
:1008E000002122F81310BA79414913469B001344A2
:1008F0005B000B44A1221A70BA793D4913469B0054
:1009000013445B000B44013320221A70BA79384932
:1009100013469B0013445B000B44023300221A80F1
:10092000BB79002B02D10023FB7102E00023FB7195
:1009300000BFBA79FB7998B22D4913469B00134446
:100940005B000B44043302461A80BA7928491346E7
:100950009B0013445B000B44063302221A80BA79D1
:10096000234913469B0013445B000B4408330022C9
:100970001A80BA791F491346DB009B1A0B440022E8
:100980001A70002262F02F025A70002242F0070211
:100990009A700022DA70BA7916491346DB009B1A66
:1009A0000B44043300221A70BA7912491346DB0053
:1009B0009B1A0B44053300221A70BA790D4913466D
:1009C000DB009B1A0B44063308221A70064B1B7877
:1009D000DBB20133DAB2044B1A70012318460C372C
:1009E000BD465DF8047B7047D2024020C40240201F
:1009F000C8024020BC02402080B582B000AF002376
:100A0000FB712D4B00221A70FB792C4A0021D15426
:100A1000FB792B4A0021D154FB792A4A0021D15479
:100A2000FB79294A002122F82310FB79264A9B00F2
:100A3000134400225A80FB79244A002122F8131023
:100A4000FB79184600F01AFAFB79214A0021D154AB
:100A5000FB79204A0021D154FB791F4A002122F85A
:100A60002310FB791C4A9B00134400225A80FB7917
:100A70001A4A002122F81310FB79184600F0FCF8FE
:100A8000034683F00103DBB2002B01D000230FE00B
:100A9000094B1B78DBB20133DAB2074B1A70064BF5
:100AA0001B78DBB2012B02D10D4B01221A700123FE
:100AB00018460837BD4680BDD3024020F40A4020C6
:100AC000F80A4020EC0A4020E80A4020F00A4020C2
:100AD000E4064020DC064020D8064020E006402006
:100AE000D402402080B400AF054B1B78DBB2013B41
:100AF000DAB2034B1A7000BFBD465DF8047B704745
:100B0000D202402080B483B000AF094B1B78DBB227
:100B1000013BDAB2064B1A70054B1B78FB71054B93
:100B200000221A7000BF0C37BD465DF8047B704789
:100B3000D3024020D402402080B582B000AF00F044
:100B400077F80346FB71294B1B78DBB25BB2002BB5
:100B50001CDA264B1B7803F06003202B16D1234BA5
:100B60005B78212B12D1214BDB88072B01D000238E
:100B700038E0FA791346DB009B1A1D4A13441B4ADE
:100B800093601A4B07229A8101232BE0174B1B78A5
:100B9000DBB25BB2002B24DB144B1B7803F0600349
:100BA000202B1ED1114B5B78202B02D0222B16D08C
:100BB00017E00E4BDB88072B01D0002312E00B4B14
:100BC0000C4A1A61FA791346DB009B1A084A13444F
:100BD000064A9360054B07229A81012302E0012314
:100BE00000E0002318460837BD4680BDE41A4020C7
:100BF000BC024020610C420080B400AF00231846C4
:100C0000BD465DF8047B704780B400AF00231846F2
:100C1000BD465DF8047B704780B500AF034B1B7881
:100C2000184600F02BF900BF80BD00BFF90A402034
:100C300080B483B000AF094B9B88DBB2002B02D19C
:100C40000023FB7102E00023FB7100BFFB79184613
:100C50000C37BD465DF8047B704700BFE41A4020A6
:100C600080B582B000AFFFF7E3FF0346FB7100BF22
:100C70000837BD4680BD00BF80B588B002AF0346CF
:100C8000FB710023FB71FFF7DFFD3861FB792D4A13
:100C9000D35CFB73FB792C4AD35CDBB2002B0ED107
:100CA000FB792A4A32F813309AB2F979FB7B28484B
:100CB00049000B4430F813309BB29A4204D2386991
:100CC000FFF7EEFD002339E0FB79204A002122F8EE
:100CD0001310FB79FA7B002A0CBF01220022D2B24A
:100CE0001146184AD154FB79174A0121D154386969
:100CF000FFF7D6FDFB79184600F0D6F90346002B26
:100D000003D0FB79184608F0ADFBFB79002B02D12C
:100D10000223FB7502E00223FB7500BFFA79FB7B1F
:100D2000520013445B020B4A1A44F87D0A4B0093AD
:100D30004FF40073012103F08DF90346184618376C
:100D4000BD4680BDDC064020E4064020E006402091
:100D5000D8064020D80240205D0D420080B586B004
:100D600002AF03463960FB711346BB71BB79022B9E
:100D700002D10023FB7302E00023FB7300BFFB7969
:100D8000002B2FD1FB7B194AD35CDBB2002B0CBFAD
:100D900001230023DBB2BB733B68002B0FD1FA7B2E
:100DA000BB7B520013445B02114A1A44B879114BC1
:100DB00000934FF40073012103F04CF913E0FA7B28
:100DC000BB7B396888B20C4952001344024621F8B3
:100DD0001320FB7B094A0021D154FB7B1846FFF707
:100DE0004BFF00E000BF1037BD4680BDDC06402051
:100DF000D80240205D0D4200D8064020E406402085
:100E000080B584B000AF03463960FB711346BB71F7
:100E1000BB79812B02D10023FB7302E00023FB731B
:100E200000BFFB79002B1DD1FB7BFA7B0F498A5C4D
:100E3000D2B2002A0CBF01220022D2B211460C4AC3
:100E40005B000B44002122F81310FB7B094A0021B0
:100E5000D154FB7B084A0021D154FB7B184600F09B
:100E60000DF800E000BF1037BD4680BDEC0A402001
:100E7000E80A4020F80A4020F40A402090B589B0E2
:100E800002AF0346FB710023FB71FB79634AD35C1D
:100E9000DBB2002B40F0BB8002F05EFD0346002B6E
:100EA00009D0FB795E4A32F8134002F0ADFD0346EB
:100EB0009C420AD1AEE0FB79594A32F8134002F065
:100EC00093FD03469C4200F0A480FFF7BDFC38610F
:100ED000FB79544AD35CFB75FA79FB7D5249520089
:100EE000134431F81330002B1FD1504B1B880133B2
:100EF0009AB24E4B1A8002F02FFD034683F0010395
:100F0000DBB2002B03D0494B1B88632B09D902F0BD
:100F100023FD0346002B08D0444B1B88B3F5487FC4
:100F200003D23869FFF7BCFC74E0404B00221A8002
:100F3000FB793F4AD35CDBB283F00103DBB2002BC9
:100F40000AD0FB79FA7D002A0CBF01220022D2B21E
:100F50001146344AD15406E0FB7D002B0CBF01231F
:100F60000023DBB2FB75FB792C4A0121D15438698F
:100F7000FFF796FCFA79FB7D2B495200134431F8B8
:100F80001330B3F5007F14BF01230023FB73FB7BF9
:100F9000002B16D002F0E0FC0346002B08D0FC79B1
:100FA00002F032FD03461A461D4B23F814200DE0D3
:100FB000FC7902F019FD03461A46194B23F8142058
:100FC00004E0FB79164A002122F81310FB79002B6C
:100FD00002D18123BB7502E08123BB7500BFFA7982
:100FE000FB7D520013445B02124A9C18FA79FB7D88
:100FF0000D495200134431F813301A46F97BB87D7D
:101000000D4B00931346224603F024F802E000BF84
:1010100000E000BF1C37BD4690BD00BFF40A402071
:10102000F00A4020EC0A4020E80A4020FA0A40205A
:10103000F80A4020E8064020010E420080B586B044
:1010400000AF0346FB710023FB71FFF7FDFB7861E6
:10105000FB790E4A32F813307B82FB79FA790C491E
:101060008A5CD2B211460B4A5B000B4432F8133053
:101070009BB21A467B8AD31AFB607869FFF710FC93
:10108000FB6818461837BD4680BD00BFE00640200B
:10109000DC064020D806402080B500AF0020FFF7D6
:1010A000CDFF0346184680BD80B582B000AF034631
:1010B000FB71FB791846FFF7C1FF0346002B14BFF5
:1010C00001230023DBB218460837BD4680BD00BFB0
:1010D00080B588B000AF0346B9607A60FB73BB6827
:1010E000FB610023FB73FFF7AFFB7861FB7B344AA6
:1010F00032F813307B82FB7B324AD35C7B74FA7B01
:101100007B7C31495200134431F813309BB27A8A08
:101110009A422CBF012300233B747869FFF7C0FB80
:101120003B7C002B09D0294B1B78DBB283F00103F9
:10113000DBB2002BD7D07B683DE0FA7B7B7C224979
:101140005200134431F813309BB21A467B8AD31AEB
:10115000BB61BA697B689A4201D97B68BB61F97B44
:101160007A7C7B8A49000A4452021344184A134489
:10117000BA691946F86917F056FAFB7BFA7B1049F1
:1011800031F8122091B2BA6992B20A4491B20C4A73
:1011900022F81310FA69BB691344FB617A68BB69D2
:1011A000D31A7B60FB7B1846FFF766FD7B68002B3C
:1011B00000D098E7002318462037BD4680BD00BF09
:1011C000E0064020DC064020D8064020D402402023
:1011D000D802402080B582B000AF786039603A68AC
:1011E00079680020FFF774FF034618460837BD46AC
:1011F00080BD00BF80B586B000AF0346FB71002301
:10120000FB71FFF721FB3861FB791E4AD35CFB734E
:10121000FA79FB7B1C495200134431F813307B618F
:101220007B69B3F5007F21D1FB79184AD35CDBB22F
:1012300083F00103DBB2002B18D0FB79144AD35C96
:10124000DBB283F00103DBB2002B0FD0FB79104A35
:101250000121D154FB79FA7B002A0CBF0122002224
:10126000D2B21146074AD15400237B617B69C3F592
:101270000073BB603869FFF713FBBB68184618376B
:10128000BD4680BDEC0A4020E80A4020F40A402018
:10129000F80A402080B582B000AF0346FB71FB79AD
:1012A0001846FFF7A7FF0346002B14BF01230023B6
:1012B000DBB218460837BD4680BD00BF80B588B098
:1012C00000AF0346B9607A60FB73BB68BB61002363
:1012D000FB73FA7B33491346DB009B1A0B4406333E
:1012E0001B78092B02D17B685B007B60FB7B184677
:1012F000FFF7D0FF034683F00103DBB2002B09D0D8
:10130000294B1B78DBB283F00103DBB2002BEDD05D
:101310007B6843E0FFF798FA7861FB7B234AD35C54
:10132000FB74FA7BFB7C22495200134431F81330E2
:101330003B823B8AC3F50073FB61FA697B689A4282
:1013400001D97B68FB61F97BFA7C3B8A49000A443E
:1013500052021344174A1344FA69B969184617F040
:1013600062F9FA7BFB7CF96988B2398A014488B258
:101370000F4952001344024621F813207869FFF701
:101380008FFABA69FB691344BB617A68FB69D31AA7
:101390007B607B68002B00D0A8E70023184620372D
:1013A000BD4680BDBC024020D4024020EC0A402053
:1013B000E80A4020E806402080B582B000AF78609F
:1013C00039603A6879680020FFF778FF03461846CD
:1013D0000837BD4680BD00BF80B400AF064B1B6818
:1013E0001B68054A12681268528892B21344184664
:1013F000BD465DF8047B7047080B402080B584B083
:1014000000AF78600B46FB70FFF7E6FFF8607B6883
:101410001B781A467B6813447B6010E07B685B781E
:10142000042B11D07B685B78FA789A4201D17B68F3
:101430000CE07B681B781A467B6813447B60FA6873
:101440007B689A42EAD800E000BF002318461037B4
:10145000BD4680BD80B584B000AF03460A46FB712F
:101460001346BB711E4B1B78002B01D1002332E0C9
:101470001C4B1B681B681B79FA799A4201D3002325
:1014800029E0184B1B681B68174A1360FFF7A4FF7D
:10149000F8601AE0144B1B685B78042B0DD1124BDB
:1014A0001B689B78FA799A4207D10F4B1B68DB784F
:1014B000BA799A4201D101230DE00B4B1B680A4A0D
:1014C000126812781344084A1360074B1B68FA68C5
:1014D0009A42DFD8002318461037BD4680BD00BFB2
:1014E000040B4020080B40200C0B402080B584B03A
:1014F00000AF0346FB71FB7900211846FFF7AAFFF6
:10150000034683F00103DBB2002B01D000232FE060
:10151000194B1B685A68FB799B0013441B68BB601E
:10152000BB68DB68984703461A46FB7911461846A4
:10153000FFF790FF034683F00103DBB2002B01D0DD
:10154000002315E00D4B1B68FB600521F868FFF7D1
:1015500055FFF860FB68002B05D0FB689B781846A8
:1015600002F000FCF1E700BFBB685B68984701230D
:1015700018461037BD4680BD080B40200C0B40209C
:1015800080B584B000AF03460A46FB711346BB71B9
:10159000BA79FB7911461846FFF75CFF034683F0E2
:1015A0000103DBB2002B01D0002327E0154B1B68A1
:1015B000FB600521F868FFF721FFF860FB68002B4E
:1015C00011D0FB689878FB68D978FB689B889BB240
:1015D0001A4602F03DFA034683F00103DBB2002B0A
:1015E000E7D000230AE000BF074B1B685A68FB796D
:1015F0009B0013441B681B68984703461846103726
:10160000BD4680BD0C0B4020080B402080B500AFCC
:1016100002F0E8F800BF80BD80B582B000AF0F4B8C
:101620001B78002B10D00023FB7106E0FB791846D5
:10163000FFF75CFFFB790133FB71094B1B681B68EB
:101640001B79FA799A42F1D3044B00221A70054BA8
:1016500001221A8000BF0837BD4680BD040B402020
:10166000080B4020FC0A402080B582B000AF144B2C
:101670001B78002B1FD00023FB7115E0114B1B685A
:101680005A68FB799B0013441B681B69002B08D028
:101690000C4B1B685A68FB799B0013441B681B6941
:1016A0009847FB790133FB71064B1B681B681B795C
:1016B000FA799A42E2D300BF0837BD4680BD00BF29
:1016C000040B4020080B402080B500AF064BDB88A0
:1016D000022B01D0002304E00221044802F0A4F907
:1016E0000123184680BD00BFE41A4020FC0A4020B8
:1016F00080B500AF0B4BDB88022B01D000230EE03E
:10170000084B9B88DBB2184602F06CFB03469AB28A
:10171000054B1A800221044802F086F9012318467D
:1017200080BD00BFE41A4020100B402080B400AF01
:101730000C4BDB88002B01D000230DE0094B5B88AC
:10174000012B08D1084B1B8823F002039AB2064BE9
:101750001A80012300E000231846BD465DF8047B93
:10176000704700BFE41A4020FC0A402080B500AF5B
:101770000A4BDB88002B01D000230CE0074B5B8871
:10178000002B07D1054B9B88DBB2184602F0D2FB39
:10179000034600E00023184680BD00BFE41A402045
:1017A00080B500AF264BDB88002B01D0002345E03D
:1017B000234B5B88012B02D0022B02D03DE000239B
:1017C0003CE002F0C9F8034683F00103DBB2002BD2
:1017D00030D11B4B9B88DBB2002B2DD1FFF71CFFB8
:1017E000174B9B881B0A9BB2DBB2013B032B1FD814
:1017F00001A252F823F000BF09184200131842005A
:101800001D184200271842000D4B0E4A1A61012391
:1018100014E00B4B0C4A1A6101230FE0084B0B4AF2
:101820001A6101230AE0064B094A1A61012305E007
:1018300000BF02E000BF00E000BF0023184680BDEB
:10184000E41A40204142420071424200A14242005B
:10185000C542420080B500AF0D4BDB88002B01D0A4
:10186000002312E00A4B5B88002B0DD1084B9B88AC
:10187000DBB2184602F090FC054B9B88DBB21846A1
:1018800002F0CEFA034600E00023184680BD00BFF8
:10189000E41A402080B500AF054B5B88DBB203F053
:1018A0007F03DBB2184602F06BF800BF80BD00BFBB
:1018B000E41A402080B400AF074BDB88002B01D036
:1018C000002303E0044B054A1A6101231846BD4674
:1018D0005DF8047B704700BFE41A40209518420071
:1018E00080B584B000AF0023FB71224B5B88DBB274
:1018F000012B08D0022B0BD0002B0ED104211E4847
:1019000002F092F80BE00823FB711C4BBB6006E071
:101910000723FB711A4BBB6001E0002326E0FB7933
:10192000002B22D00023FB730DE0FB7BFA7BB96810
:101930000A44127891B2134A5B0013440A465A8053
:10194000FB7B0133FB73FA7BFB799A42EDD3FB7986
:101950000133DBB25B00DAB20A4B1A70094B1B7819
:101960009BB21946074802F05FF80123184610376A
:10197000BD4680BDE41A4020080240200C024020F1
:10198000180240202002402080B582B000AF804B7A
:101990005B88FB717E4B5B881B0A9BB2DBB2013B11
:1019A0000E2B00F2E28001A252F823F0E919420066
:1019B000251A4200571B42006B1B42006B1B420062
:1019C0009F1A4200B51A42006B1B42006B1B42007B
:1019D0006B1B42006B1B42006B1B42006B1B4200E7
:1019E0006B1B4200351B420001F0B6FF034683F03B
:1019F0000103DBB2002B0AD0664B9A68654B9B68EB
:101A00001B789BB21946104602F00EF8B0E0614B0D
:101A10001A68604B1B681B789BB21946104602F08F
:101A200003F8A5E001F098FF0346002B19D0594BAD
:101A30009B685B7CFA799A4201D30023A3E0554B63
:101A40001A69FB79DB0013441868524B1A69FB7959
:101A5000DB0013441B685B889BB2194601F0E4FF6E
:101A600018E04C4B1B685B7CFA799A4201D3002347
:101A700089E0484B5A68FB79DB0013441868454BF2
:101A80005A68FB79DB0013441B685B889BB21946DC
:101A900001F0CAFF3E4B9B6802225A7068E03D4B42
:101AA000DA683C4BDB681B789BB21946104601F0A4
:101AB000BBFF5DE001F050FF034683F00103DBB2A2
:101AC000002B19D0334B9B685B7CFA799A4201D387
:101AD000002358E02F4B1A69FB79DB001344186888
:101AE0002C4B1A69FB79DB0013441B685B889BB2A3
:101AF000194601F099FF18E0264B1B685B7CFA79C8
:101B00009A4201D300233EE0224B5A68FB79DB0066
:101B1000134418681F4B5A68FB79DB0013441B6899
:101B20005B889BB2194601F07FFF194B9B68072227
:101B30005A701DE0174B5B69002B01D1002322E096
:101B4000144B5A69134B5B695B889BB2194610466C
:101B500001F06AFF0CE0FFF7C3FE034683F00103C8
:101B6000DBB2002B03D000230DE000230BE000BF0D
:101B7000074BDA88064B9B899A4203D2044BDA88DA
:101B8000034B9A81012318460837BD4680BD00BF2C
:101B9000E41A4020F001402080B500AF064BDB88FE
:101BA000012B01D0002304E00121044801F03CFF97
:101BB0000123184680BD00BFE41A4020040B4020DA
:101BC00080B582B000AF384BDB88002B01D00023FA
:101BD00065E001F0F9FE0346002B01D100235EE031
:101BE00001F0BAFE0346002B09D02F4B5B88DBB215
:101BF0002E4A9268527C93420BDD00234FE02A4B21
:101C00005B88DBB2294A1268527C934201DD0023D3
:101C100045E0FFF701FD244B5B88DAB2244B1A70D4
:101C2000234B1B78002B01D1012338E001F094FEF7
:101C30000346002B0CD01D4B1A691D4B1B7819460F
:101C40006FF060430B44DB0013441A4A13600BE04F
:101C5000164B5A68164B1B7819466FF060430B44BD
:101C6000DB001344134A13600023FB710FE0FB7980
:101C700000211846FFF784FC034683F00103DBB222
:101C8000002B01D000230AE0FB790133FB71094BE3
:101C90001B681B681B79FA799A42E8D3012318461E
:101CA0000837BD4680BD00BFE41A4020F001402047
:101CB000040B4020080B402080B582B000AF1E4BC3
:101CC000DB88012B01D0002332E01C4B1B78002B5A
:101CD00001D100232CE0184B9B88FB71184B1B682B
:101CE0001B681B79FA799A4201D3002320E0FB7923
:101CF00000211846FFF7AEFB034683F00103DBB279
:101D0000002B01D0002313E00D4B1B685A68FB79B0
:101D10009B0013441B683B603B68DB6898470346A5
:101D20001A46084B1A700121064801F07DFE012376
:101D300018460837BD4680BDE41A4020040B4020F9
:101D4000080B4020000B402080B582B000AF144B40
:101D5000DB88002B01D000231EE0124B1B78002BE8
:101D600001D1002318E00E4B9B88FB710C4B5B8864
:101D7000BB71FB791846FFF7B9FB034683F00103FB
:101D8000DBB2002B01D0002306E0BA79FB791146C3
:101D90001846FFF7F5FB034618460837BD4680BDD9
:101DA000E41A4020040B402080B500AF4E4B1B7856
:101DB000DBB25BB2002B3EDA4B4BDB88002B01D150
:101DC00000238FE0484B1B7803F01F03002B14D136
:101DD000454B5B78062B08D0082B0AD0002B00D08F
:101DE0000BE0FFF771FC03467CE0FFF7CDFD0346F7
:101DF00078E0FFF7D1FE034674E03B4B1B7803F01D
:101E00001F03012B08D1384B5B780A2B00D003E06D
:101E1000FFF752FF034665E0334B1B7803F01F03C7
:101E2000022B5ED1304B5B78002B00D059E0FFF7DE
:101E30005FFC034656E02C4B1B7803F01F03002B7E
:101E40002BD1294B5B78013B082B25D801A252F8F6
:101E500023F000BF811E4200991E4200891E4200ED
:101E6000991E4200791E4200991E4200991E4200AE
:101E7000991E4200911E4200FFF71CFD034631E00F
:101E8000FFF754FC03462DE0FFF78AFC034629E0E8
:101E9000FFF796FE034625E000BF134B1B7803F0C7
:101EA0001F03012B08D1104B5B780B2B00D003E0F4
:101EB000FFF74AFF034615E00B4B1B7803F01F03A7
:101EC000022B0ED1084B5B78012B02D0032B04D0E0
:101ED00007E0FFF74BFC034604E0FFF7BBFC0346BB
:101EE00000E00023184680BDE41A402080B582B08F
:101EF00000AF204B1B78002B01D1002336E01E4B96
:101F00009B88FB711D4B1B681B681B79FA799A42F1
:101F100001D300232AE0FB7900211846FFF79AFA43
:101F2000034683F00103DBB2002B01D000231DE048
:101F3000124B1B685A68FB799B0013441B683B607B
:101F40003B68DB68984703461A46FB7911461846FA
:101F5000FFF780FA034683F00103DBB2002B01D0C8
:101F6000002303E03B689B68984703461846083700
:101F7000BD4680BD040B4020E41A4020080B4020E1
:101F800080B582B000AF1E4B1B78002B01D100231F
:101F900032E01C4B9B88FB710023FB7124E01A4B41
:101FA0001B685A68FB799B0013441B683B603B68C5
:101FB000DB68984703461A46FB7911461846FFF737
:101FC00049FA034683F00103DBB2002B01D0002362
:101FD00012E03B689B6898470346002B01D0012321
:101FE0000AE0FB790133FB71074B1B681B681B7907
:101FF000FA799A42D3D3002318460837BD4680BDEC
:10200000040B4020E41A4020080B402080B500AFAC
:102010001F4B00229A811E4B00221A611C4B00228A
:102020005A611B4B1B78DBB25BB2002B05DA184BF5
:10203000DB88002B01D1002327E0154B1B7803F030
:102040006003002B06D1FFF7AFFE0346002B01D043
:1020500001231AE00E4B1B7803F01F03012B06D15E
:10206000FFF744FF0346002B01D001230DE0084B8E
:102070001B7803F01F03022B06D1FFF781FF0346F5
:10208000002B01D0012300E00023184680BD00BFD3
:10209000E41A402080B487B000AFF860B9607A607D
:1020A000FB687A685A64BB68B3F1C05F4AD0B3F189
:1020B000C05F08D8B3F1006F16D0B3F1805F2CD0A9
:1020C000002B69D064E0B3F1205F65D0B3F1205FED
:1020D00003D8B3F1005F4AD05AE0B3F1405F5BD060
:1020E000B3F1605F58D053E0FB681B6F7B61FB6806
:1020F0001A6F7B68D9437B690B401A40FB681A67EB
:10210000FB685B6F7B61FB685A6F7B68D9437B69B7
:102110000B401A40FB685A673AE0FB681B6F7B6113
:102120007A687B691A43FB681A67FB685B6F7B619F
:10213000FB685A6F7B68D9437B690B401A40FB6888
:102140005A6725E0FB681B6F7B61FB681A6F7B6831
:10215000D9437B690B401A40FB681A67FB685B6FC9
:102160007B617A687B691A43FB685A6710E0FB68F9
:102170001B6F7B617A687B691A43FB681A67FB688F
:102180005B6F7B617A687B691A43FB685A6700BFA3
:10219000FB687A685A6000E000BF1C37BD465DF8F6
:1021A000047B704780B485B000AFF860B9607A6096
:1021B0007B6803F01003002B20D0FB68BA68C3F8DB
:1021C000B0207B6803F02003002B04D0FB68BA68C2
:1021D000C3F8D42003E0FB68BA68C3F8D0207B685A
:1021E00003F04003002B04D0FB68BA68C3F8C0209A
:1021F00008E0FB68BA68C3F8C42003E0FB68BA686B
:10220000C3F8B42000BF1437BD465DF8047B7047A7
:1022100080B483B000AF786039607B683A681A6434
:1022200000BF0C37BD465DF8047B704780B483B0B7
:1022300000AF786039607B683A685A6400BF0C3739
:10224000BD465DF8047B704780B483B000AF786012
:102250007B68DB6C18460C37BD465DF8047B704725
:1022600080B483B000AF78607B689B6C18460C37F5
:10227000BD465DF8047B704780B483B000AF034671
:10228000FB71094997F907305B09FA7902F01F02DF
:10229000012000FA02F241F8232000BF0C37BD46AE
:1022A0005DF8047B704700BF00E100E080B483B0BC
:1022B00000AF0346FB71094997F907305B09FA79CA
:1022C00002F01F02012000FA02F2203341F823201D
:1022D00000BF0C37BD465DF8047B704700E100E0AD
:1022E00080B483B000AF0346FB71094997F907300A
:1022F0005B09FA7902F01F02012000FA02F2603352
:1023000041F8232000BF0C37BD465DF8047B7047C1
:1023100000E100E080B483B000AF03463960FB7198
:1023200097F90730002B0BDA0D49FB7903F00F0307
:10233000043B3A68D2B25201D2B20B441A7609E099
:10234000084997F907303A68D2B25201D2B20B4429
:1023500083F8002300BF0C37BD465DF8047B70474F
:1023600000ED00E000E100E080B584B000AF7860EF
:1023700039607868FFF768FFF8607868FFF770FFEA
:102380000246FB681340FB60FB68002B3CD0002337
:10239000BB6034E01E4ABB681B0113441A683B68EB
:1023A0009A4226D11A4ABB681B01134404331A68A7
:1023B000FB681340002B1CD0154ABB681B0113445B
:1023C0000C331B681249BA6812010A44106810499C
:1023D000BA6812010A4404321268114698470C4A3E
:1023E000BB681B01134404331B68DB43FA681340CA
:1023F000FB60BB680133BB60BB68062B03D8FB687E
:10240000002BC7D100E000BF00BF1037BD4680BD24
:10241000140B402080B586B000AFF860B9607A60D8
:102420003B60214B1B68062B01D9012338E00023B8
:10243000FB7511E0FB7D1B011C4A13443B613B69AA
:102440001A68BB689A4204D13B695A687B689A4211
:1024500008D0FB7D0133FB75FA7D134B1B689A4254
:10246000E8D900E000BF3B69BA681A603B697A6846
:102470005A603B693A689A603B693A6ADA60FA7D69
:10248000094B1B6801339A4204D1074B1B68013387
:10249000054A13603A687968F868FFF783FE0023FD
:1024A00018461837BD4680BD840B4020140B4020D1
:1024B00080B500AF0A210248FFF756FF00BF80BD7C
:1024C000000E0E4080B500AF0B210248FFF74CFF15
:1024D00000BF80BD00100E4080B500AF1021024843
:1024E000FFF742FF00BF80BD00140E4080B586B0EC
:1024F00000AFF8600B467A60FB7200237B61F868DE
:10250000FFF7AEFE78614FF0FF31F868FFF78EFEFF
:10251000F868FFF799FE97F90B301846FFF7C6FEEB
:1025200097F90B301846FFF7DBFE97F90B30796807
:102530001846FFF7EFFE97F90B301846FFF79CFEA1
:102540007969F868FFF764FE00BF1837BD4680BDA3
:1025500080B483B000AF78607B68013B032B1AD84E
:1025600001A252F823F000BF792542007F254200E6
:10257000872542008F25420000237B600EE04FF448
:1025800080737B600AE04FF440737B6006E04FF499
:1025900000737B6002E000237B6000BF0A490A4BA6
:1025A0001B6B23F440727B6813430B6300BF064B25
:1025B0009B6E03F00803002BF9D000BF0C37BD461B
:1025C0005DF8047B704700BF00060E4080B485B004
:1025D00000AF78601D491D4B1B6B23F070027B68B8
:1025E00013430B634FF40063FB6007E0FB68002BB1
:1025F00001D1012323E0FB68013BFB60134B9B6E81
:1026000003F00803002BF1D0104A104B1B6B23F092
:10261000030343F0020313634FF40063FB6007E01E
:10262000FB68002B01D1012309E0FB68013BFB6043
:10263000064B9B6E03F00803002BF1D000231846D5
:102640001437BD465DF8047B704700BF00060E409E
:1026500080B483B000AF78607B68012B05D1074957
:10266000064B9A68064B13438B60044B054A1A606D
:1026700000BF0C37BD465DF8047B704710180E4054
:10268000000010A5080000A580B400AF094B5B69ED
:1026900003F08003002B07D0074B9B6E03F08003F1
:1026A000002B01D0012300E000231846BD465DF851
:1026B000047B704710180E4000060E4080B483B0B3
:1026C00000AF78601549154B1A6A154B13430B621E
:1026D00000BF124B9B6E03F40033002BF9D00F495F
:1026E0000E4B1A6A0F4B13407A68134343F45C1382
:1026F0000B6200BF094B9B6E03F40033002BF9D033
:102700000649064B1A6A084B134043F45C130B62EC
:1027100000BF0C37BD465DF8047B704700060E40D5
:10272000080037008FFFC8FFFFFFC8FE80B483B0EA
:1027300000AF786039607B68002B08D01349134BD9
:102740001B6A134A1A40134B13430B6218E00F49DC
:102750000E4B1A6A104B13403A68120292B21A4397
:102760000E4B13430B6200BF084B9B6E03F001033B
:10277000002BF9D00549054B1A6A094B13430B622C
:1027800000BF0C37BD465DF8047B704700060E4065
:10279000FCFFC8FE02003701FCFFC8FF0100370044
:1027A0000000370180B400AF044B9B6E03F480330C
:1027B0001846BD465DF8047B704700BF00060E401A
:1027C00080B400AF044B4FF000529A6200BFBD4688
:1027D0005DF8047B704700BF00060E4080B400AF78
:1027E000044B9B6E03F002031846BD465DF8047B64
:1027F000704700BF00060E4080B400AF074B4FF497
:102800004412DA6100BF054B9B6E03F04003002BBE
:10281000F9D000BFBD465DF8047B704700060E404E
:1028200080B400AF044B9B6E03F040031846BD46D6
:102830005DF8047B704700BF00060E4080B485B091
:1028400000AF78600B4A7B6803F07F03C2F80C315D
:10285000084BD3F80C3143F01023FB60054AFB68AA
:10286000C2F80C31002318461437BD465DF8047BCE
:10287000704700BF00060E4080B483B000AF7860A0
:10288000064A7B681B0203F4706343F00103936301
:1028900000BF0C37BD465DF8047B704700060E4054
:1028A00080B400AF034B20221A6000BFBD465DF824
:1028B000047B704700060E4080B483B000AF7860A0
:1028C0007B68C3F312037B600549054B1A6F7B6875
:1028D00013430B6700BF0C37BD465DF8047B7047A0
:1028E00000060E4080B400AF094B1B78DBB2002B12
:1028F00014BF01230023DBB283F00103DBB203F03A
:102900000103DBB21846BD465DF8047B704700BF8B
:10291000880B402080B582B000AF78607868FFF700
:102920008DFF00BF0837BD4680BD00BF80B582B0B7
:1029300000AF78607B68094A934203D11520FFF706
:10294000E9FF06E07B68064A934202D12A20FFF79E
:10295000E1FF00BF0837BD4680BD00BF00800040DA
:102960000080054080B485B000AFF860B9607A603F
:10297000FB68BA680C3253F8223023F0F001FB6890
:10298000BA680C3243F82210FB68BA680C3253F86C
:1029900022207B6842EA0301FB68BA680C3243F8E4
:1029A000221000BF1437BD465DF8047B704700BF9E
:1029B00080B485B000AFF860B9601346FB71FB7955
:1029C000002B02D14FF6FF731BE0FB68BA680C3294
:1029D00053F8223023F47F41FB68BA680C3243F885
:1029E0002210FB68BA680C3253F82220FB791B02D4
:1029F0009BB242EA0301FB68BA680C3243F822102A
:102A000000231BB218461437BD465DF8047B70479F
:102A100080B485B000AFF860B96011461A460B4625
:102A2000FB711346BB71FB68BA680C3253F8223055
:102A300099B2FB68BA680C3243F82210FB68BA6896
:102A40000C3253F82220FB791B0403F47F03B9797D
:102A500009060B4342EA0301FB68BA680C3243F8EB
:102A6000221000BF1437BD465DF8047B704700BFDD
:102A700080B483B000AFEFF310837B607B68002BE2
:102A80000CBF01230023DBB23B6072B6BFF35F8F44
:102A9000044B00221A703B6818460C37BD465DF89F
:102AA000047B70473202402080B483B000AF78606E
:102AB0007B68002B14BF01230023DBB218460C37C0
:102AC000BD465DF8047B704780B582B000AF78608A
:102AD0007868FFF7E9FF0346002B05D0044B01227D
:102AE0001A70BFF35F8F62B600BF0837BD4680BD66
:102AF0003202402080B483B000AF78600B467B8008
:102B000000BF0C37BD465DF8047B704780B483B0CE
:102B100000AF78607B681B6B18460C37BD465DF8CC
:102B2000047B704780B483B000AF78607B68DB6A59
:102B300018460C37BD465DF8047B704780B584B0FD
:102B400000AF0346FB71FB790A4AD35CFF2B00D12F
:102B5000FEE7FFF78DFFF860FB79064AD25C013291
:102B6000D1B2044AD154F868FFF7AEFF00BF103766
:102B7000BD4680BD5C1A402080B483B000AF786051
:102B80007B68072B25D801A252F823F0AD2B420019
:102B9000B32B4200B92B4200BF2B4200C32B420093
:102BA000C72B4200CB2B4200CF2B42004FF4FA43FD
:102BB00010E04FF400430DE04FF400430AE0084BEF
:102BC00008E0084B06E0084B04E0074B02E0064B28
:102BD00000E0002318460C37BD465DF8047B7047C3
:102BE00000093D0000127A00001BB70080B500AF5D
:102BF0000620FFF7C1FF024613469B0013449A00CC
:102C00001344184680BD00BF80B500AFFFF7EEFF4C
:102C10000346184680BD00BF80B483B000AF786023
:102C20007B68094A934201D1012306E07B68074A89
:102C3000934201D1002300E0002318460C37BD4623
:102C40005DF8047B704700BF0040064000C00340B1
:102C500080B483B000AF78607B68094A934201D1A9
:102C6000282306E07B68074A934201D11D2300E038
:102C70001D2318460C37BD465DF8047B704700BF26
:102C80000040064000C0034080B485B000AF7860CB
:102C900039600023FB603B68DB7C002B02D04FF0E7
:102CA000004200E000223B6859683B689B68B1FB2A
:102CB000F3F3013B1B029BB21A433B681B7C1B06D0
:102CC00003F070631A433B685B7C1B0703F04053BF
:102CD0001A433B68DB68134343F40003FB607B68E3
:102CE000FA685A603B681B7D002B02D04FF080725F
:102CF00000E000223B681B681A433B685B7D002BA9
:102D000002D04FF0007300E000231A437B689A6002
:102D10003B689B7D1B0203F4407343F00C027B680D
:102D2000C3F8942000BF1437BD465DF8047B70479C
:102D300080B586B000AFF8600B467A607B817B89F6
:102D40001946F868FFF7D6FE00237B61FB681B6E0F
:102D50007B617B89012202FA03F3DB437A6913402A
:102D60007B617B681B78002B04D07B89012202FAEF
:102D700003F300E000237A6913437B61FB687A69FF
:102D80001A66FB685B6D7B617B895B00032202FA3C
:102D900003F3DB437A6913407B617B685B781A46F7
:102DA0007B895B0002FA03F31A467B6913437B615C
:102DB000FB687A695A6500BF1837BD4680BD00BF01
:102DC00080B582B000AF78607B6800221A60FFF7A0
:102DD0001BFF02467B685A607B680F4A9A607B68DB
:102DE0004FF48022DA607B6802221A747B68012229
:102DF0005A747B6801229A747B680022DA747B68BB
:102E000001221A757B6801225A757B6801229A7526
:102E100000BF0837BD4680BD808D5B0080B483B0A5
:102E200000AF78607B6800221A707B6801225A70BC
:102E300000BF0C37BD465DF8047B704780B584B099
:102E400000AF786039607868FFF760FE034603F0F2
:102E50008073002B01D019232CE07B6801221A60BB
:102E600039687868FFF710FF7B68154A93420DD1E7
:102E70000023FB6007E0134AFB68002142F823109F
:102E8000FB680133FB60FB680F2BF4D97B680E4AAB
:102E900093420ED10023FB6008E00A4AFB6810331E
:102EA000002142F82310FB680133FB60FB680F2B05
:102EB000F3D900235BB218461037BD4680BD00BF72
:102EC00000C00340641A40200040064080B582B034
:102ED00000AF03463960FB71FB790A491A013B6870
:102EE000134451F82330002B07D0FB7905491A0110
:102EF0003B68134451F82330984700BF0837BD465C
:102F000080BD00BF641A402090B587B000AF7860E4
:102F10007868FFF7FBFD04467868FFF703FE034679
:102F20002340FB607868FFF777FE386100237B6100
:102F300039E07B690B2B0FD801227B6902FA03F37E
:102F40001A46FB681340002B2AD03B69DBB2796933
:102F50001846FFF7BBFF23E07B690E2B10D87B6977
:102F60000C33012202FA03F31A46FB681340002BCC
:102F700016D03B69DBB279691846FFF7A7FF0FE06F
:102F80007B690F33012202FA03F31A46FB681340F0
:102F9000002B05D03B69DBB279691846FFF796FF35
:102FA0007B6901337B617B690F2BC2D900BF1C3762
:102FB000BD4690BD80B500AF0248FFF7A5FF00BF3A
:102FC00080BD00BF00C0034080B500AF0248FFF7DE
:102FD0009BFF00BF80BD00BF0040064080B584B0AD
:102FE00000AF78607868FFF733FEF860F868FFF7A5
:102FF00025FC0220FFF7A2FD00BF1037BD4680BDB3
:1030000080B483B000AFEFF310837B607B68002B4C
:103010000CBF01230023DBB23B6072B6BFF35F8FAE
:10302000044B00221A703B6818460C37BD465DF809
:10303000047B70473202402080B483B000AF7860D8
:103040007B68002B14BF01230023DBB218460C372A
:10305000BD465DF8047B704780B582B000AF7860F4
:103060007868FFF7E9FF0346002B05D0044B0122E7
:103070001A70BFF35F8F62B600BF0837BD4680BDD0
:103080003202402080B584B000AFF860B9607A6049
:103090007B681B0203F47062BB68134343F08063D8
:1030A0001946F86816F038FE002318461037BD465A
:1030B00080BD00BF80B586B000AFF860B9607A60AF
:1030C000BB680E2B02D0BB680F2B02D14FF0FF3331
:1030D00014E0FFF795FF78617B681A02094B1340F3
:1030E000BA68D2B2134343F0B4431946F86816F0F5
:1030F000FBFD38617869FFF7AFFF3B691846183769
:10310000BD4680BD00FFFF0080B483B000AF786093
:103110007B68DB6818460C37BD465DF8047B70475A
:1031200080B483B000AF786039607A683B689B01F7
:1031300013445C331B6818460C37BD465DF8047BAE
:10314000704700BF80B485B000AFF860B9607A60A6
:10315000FA68BB689B01134460337A681A6000BF49
:103160001437BD465DF8047B704700BF80B485B05E
:1031700000AFF860B9607A60FA68BB689B011344DD
:1031800064337A681A6000BF1437BD465DF8047B6B
:10319000704700BF80B485B000AFF860B9607A6056
:1031A0007B6823F07F42F968BB689B010B44703356
:1031B0001A6000BF1437BD465DF8047B704700BF3E
:1031C00080B485B000AFF860B9607A607B68C3F303
:1031D0000B02F968BB689B010B4474331A6000BF93
:1031E0001437BD465DF8047B704700BF80B485B0DE
:1031F00000AFF860B9607A60FA68BB689B0113445D
:1032000078337A681A6000BF1437BD465DF8047BD6
:10321000704700BF80B485B000AFF860B9607A60D5
:10322000FA68BB689B0113447C337A681A6000BF5C
:103230001437BD465DF8047B704700BF80B485B08D
:1032400000AFF860B9607A607B6823F07F42F9686C
:10325000BB6802339B010B441A6000BF1437BD46A4
:103260005DF8047B704700BF80B485B000AFF860A4
:10327000B9607A607B6823F07F42F968BB680233EB
:103280009B010B4404331A6000BF1437BD465DF840
:10329000047B704780B584B000AFF860B9607A6095
:1032A000B968F868FFF73CFF7B685B681A46B96845
:1032B000F868FFF747FF7B689B681A46B968F868AB
:1032C000FFF754FF7B681B681A46B968F868FFF778
:1032D00061FF7B681B691A46B968F868FFF770FFE1
:1032E0007B685B691A46B968F868FFF793FF7B68EB
:1032F0009B691A46B968F868FFF7A0FF7B68DB692D
:103300001A46B968F868FFF7AFFF7B68DB681A46B2
:10331000B968F868FFF76AFF00BF1037BD4680BD87
:1033200080B483B000AF0346FB71094997F90730B9
:103330005B09FA7902F01F02012000FA02F241F85B
:10334000232000BF0C37BD465DF8047B704700BFEB
:1033500000E100E080B483B000AF03463960FB7148
:1033600097F90730002B0BDA0D49FB7903F00F03B7
:10337000043B3A68D2B25201D2B20B441A7609E049
:10338000084997F907303A68D2B25201D2B20B44D9
:1033900083F8002300BF0C37BD465DF8047B7047FF
:1033A00000ED00E000E100E080B483B000AFEFF397
:1033B00010837B607B68002B0CBF01230023DBB2F2
:1033C0003B6072B6BFF35F8F044B00221A703B68FC
:1033D00018460C37BD465DF8047B7047320240202A
:1033E00080B483B000AF78607B68002B14BF0123EA
:1033F0000023DBB218460C37BD465DF8047B7047EE
:1034000080B582B000AF78607868FFF7E9FF0346C7
:10341000002B05D0044B01221A70BFF35F8F62B6F8
:1034200000BF0837BD4680BD3202402080B584B061
:1034300000AF0346FB71FB790A4AD35CFF2B00D136
:10344000FEE7FFF7B1FFF860FB79064AD25C013274
:10345000D1B2044AD154F868FFF7D2FF00BF103749
:10346000BD4680BD5C1A402080B584B000AF0346E5
:10347000FB71FB790A4AD35C002B00D1FEE7FFF712
:1034800093FFF860FB79064AD25C013AD1B2044A54
:10349000D154F868FFF7B4FF00BF1037BD4680BDB8
:1034A0005C1A402080B487B000AF786039603B6818
:1034B0007B617B683B612023FB60FB68013B1A4614
:1034C0003B691340002B0DD0FB68013B1A463B695A
:1034D0001A407B6913447B61FB685B421A463B6977
:1034E00013403B61BFF36F8FBFF34F8F0BE00C4A6C
:1034F0003B69C2F86832FB683A6913443B617A69F8
:10350000FB68D31A7B617B69002BF0DCBFF34F8F24
:10351000BFF36F8F00BF1C37BD465DF8047B70475B
:1035200000ED00E080B489B000AF786039603B689E
:10353000FB617B68BB6120237B61BB693B61FB69ED
:10354000BA691344FB607B69013B1A463B6913402F
:10355000002B06D17B69013B1A46FB681340002B08
:103560001BD07B695B421A463B6913403B617B6918
:103570005B421A46FB681340FB60BFF36F8FBFF3DB
:103580004F8F094A3B69C2F87032074AFB68C2F89C
:103590007032BFF34F8FBFF36F8F00BF2437BD462C
:1035A0005DF8047B704700BF00ED00E080B487B099
:1035B00000AF786039603B687B617B683B612023AA
:1035C000FB60FB68013B1A463B691340002B0DD0A2
:1035D000FB68013B1A463B691A407B6913447B61D7
:1035E000FB685B421A463B6913403B61BFF36F8F38
:1035F000BFF34F8F0AE00C4A3B691360FB683A69DE
:1036000013443B617A69FB68D31A7B617B69002BA9
:10361000F1DCBFF34F8FBFF36F8F00BF1C37BD4688
:103620005DF8047B704700BF5CEF00E080B582B0BE
:1036300000AF0346FB71FB7983F00103DBB2002B83
:1036400006D00D4B1B78002B02D00220FFF70CFF99
:10365000FB79002B09D0084B1B7883F00103DBB208
:10366000002B02D00220FFF7E1FE034AFB79137022
:1036700000BF0837BD4680BD890B402080B500AF34
:10368000FFF730F9034683F00103DBB2002B0CD0C7
:10369000524B5B6803F00103002B06D172B6BFF3F7
:1036A0005F8F4F4B00221A7097E04C4B5B6803F022
:1036B0000403002B0DD0494B04229A60474BD3F8EA
:1036C000043803F440531B0B002B7FD1FDF7CCFFD4
:1036D0007CE0424B5B6803F00203002B05D03F4BBC
:1036E00002229A60FDF7C0FF75E001F059F9034628
:1036F000002B6DD101F056FB0346002B6AD1374BEE
:103700005B6803F00803002B0BD0344B08229A604F
:1037100001F0D0F9FDF780FF00F044FE00F082FEDA
:1037200059E02E4B1B6903F00103002B1FD02B4BDC
:103730005B6803F00103002B19D0284A274BD3F80C
:10374000003823F48043C2F80038244B01225A6128
:10375000224B10229A61214A204BD3F8003843F4BF
:103760008043C2F800380020FFF760FF33E01B4BB6
:103770001B6903F01003002B2ED0184B5B6803F07D
:103780001003002B28D0154A144BD3F8003823F42B
:103790008043C2F8003805E0104B5B6803F001037A
:1037A000002B07D10D4BD3F8043803F48043002BD2
:1037B000F2D000E000BF094B10225A61074B0122F2
:1037C0009A610120FFF732FF00BF04E000BF02E072
:1037D00000BF00E000BF00BF00BF80BD008003400D
:1037E0003202402080B582B000AFFFF7DDFD786087
:1037F0002220FFF723F8FCF7EDFF05212220FFF739
:10380000A9FD2220FFF78CFD4FF48020FFF754F82C
:10381000274B4FF00072C3F80028254A244BD3F8F9
:10382000003843F40043C2F80038214A204B1B689B
:1038300023F4805313601E4A1D4B1B6823F440631E
:1038400013601B4A1A4BD3F8003823F48043C2F8A4
:10385000003800BF164BD3F8043803F48043002B24
:10386000F8D001F0F9F8124A114BD3F8003843F4BC
:103870008043C2F800380F4B1B7883F00103DBB2A2
:10388000002B09D00B4B01221A700B4B00221A702F
:103890000320FFF7CBFD02E00020FFF7C7FE00F09A
:1038A0000DF87868FFF7ACFD00BF0837BD4680BD56
:1038B000008003408A0B4020890B402080B582B0F5
:1038C00000AFFFF771FD78600120FFF7AFFE214ADE
:1038D000204BD3F8003823F48043C2F8003800BFEF
:1038E0001C4BD3F8043803F48043002BF8D0194A5A
:1038F000184B1B6823F480731360164B08229A61DF
:10390000144B01229A61134B10229A61114B04222D
:103910009A61104B02229A610E4B08229A600D4B5D
:1039200004229A600B4B02229A600A4B0122DA6051
:10393000084B10229A60074A064BD3F8003843F42C
:103940008043C2F800387868FFF75AFD00BF083797
:10395000BD4680BD0080034080B400AF074BD3F864
:10396000043803F440531B0B002B14BF0123002326
:10397000DBB21846BD465DF8047B7047008003400B
:1039800080B483B000AF0346FB710E4A0D4B1B6839
:1039900023F0800313600B490A4B1B6823F07F025E
:1039A000FB7903F07F0313430B60064A054B1B684A
:1039B00043F08003136000BF0C37BD465DF8047B05
:1039C000704700BF0080034080B400AF054B1B6808
:1039D000DBB203F07F03DBB21846BD465DF8047B23
:1039E000704700BF0080034080B400AF054B1A6AE7
:1039F00043F6F8731340DB089BB21846BD465DF8EA
:103A0000047B70470080034080B400AF054B1B6A05
:103A10009BB2C3F30D039BB21846BD465DF8047B11
:103A2000704700BF0080034080B483B000AF78606F
:103A30000B467B80054A7B689360044A7B889381B0
:103A400000BF0C37BD465DF8047B7047E41A402088
:103A500090B589B002AF0346FB710B46BB711346AC
:103A6000BB80FB7903F08003002B14BF01230023EC
:103A7000BB74FB7903F00F03FB71FB79032B01D9B6
:103A800000236BE1AC4BDA69FB79012101FA03F306
:103A90001340002B01D0002360E1BB7903F0030346
:103AA000022B09D0032B04D0012B08D102237B75F4
:103AB00007E001237B7504E002237B7501E000230E
:103AC0004CE17B7D022B06D0032B07D0012B08D1C4
:103AD00000233B7507E001233B7504E002233B759F
:103AE00001E000233AE1FB799A00944B1344FA7900
:103AF0009100924A0A44126891491140BA79D2025F
:103B000002F4C050BA7C002A02D04FF4807200E068
:103B100000221043BA88082A03D9BA88B2F5806F08
:103B200006DABA88082A03D9BA885200012A17D0BF
:103B3000BA88082A03D9BA88B2F5806F08DABA8839
:103B4000082A03D9BA885200013A03E00F2201E0A3
:103B500040F2FF72B2FA82F2C2F11C02120101E0DD
:103B60006FF03F0210433A7D920002F00C021043C6
:103B700041F67C1202400A431A60FB79012202FAE4
:103B800003F3FB820323FB742AE06B4BDA69FB7CB3
:103B9000012101FA03F31340002B1ED0FB7C01220C
:103BA00002FA03F39AB2FB8A13439BB2FB82624987
:103BB000614BDA69FB7C012000FA03F3DB4313401D
:103BC000CB61FB7C9A005D4B1344FA7C91005B4A0D
:103BD0000A44126822F002021A60FB7C013BFB746B
:103BE000FA7CFB799A42D0D8FB79FB74B1E0FA8A6F
:103BF000FB7C42FA03F303F00103002B00F0A680E4
:103C0000FB7C5A1E13465B001344DB004D4A1344F1
:103C1000FB60FB681B7DC3F30003DBB2002B14BF0A
:103C200001230023FB72FA68137D6FF30003137501
:103C3000FB7C9A00414B1344FA7C91003F4A0A44B2
:103C4000126842F002021A603B493B4BDA69FB7C86
:103C5000012000FA03F31343CB61FB7C9A003A4B3B
:103C600013441B6803F48023002B1BD1FB681B68E3
:103C7000002B01D1002371E0FB7C9A002F4B1344F1
:103C80001B6803F48073002B03D0FB7C63F07F037D
:103C9000FB74FB681B68FA68D168FA7C01209847BE
:103CA00000235BE0FB7C9A00244B1344FA7C9100D8
:103CB000224A0A44126842F400721A60FB7A002B0E
:103CC00044D0FB68DA68FB681B69D21AFB68DA60CB
:103CD000FB7C9A00194B13441B6803F48073002B80
:103CE00004D0FB7C63F07F03D8B200E0F87CFB6873
:103CF0001B7DC3F34003DBB2002B14BF0123002361
:103D0000D9B2FB685A68FB68DB68D418FB689A680C
:103D1000FB68DB68D21AFB681B68009313462246D7
:103D200000F098F90346FB72FB7A83F00103DBB2E3
:103D3000002B0BD0002311E00080034000810340E2
:103D400083E6FFFF900B402030810340FB7C013372
:103D5000FB74FB7C032B7FF64AAF012318461C370C
:103D6000BD4690BD80B584B000AF0346FB71FB79C2
:103D700003F00F03FB73FB7B032B28D81649164B6C
:103D8000DA69FB7B012000FA03F3DB431340CB61CC
:103D9000FB7B9A00114B1344FA7B91000F4A0A44B3
:103DA000126822F002021A60FB79184600F0A2FEA7
:103DB000FB7B5A1E0A4913465B001344DB000B448D
:103DC00003F1100213796FF38203137100E000BF57
:103DD0001037BD4680BD00BF008003400081034016
:103DE000900B402080B485B000AF0346FB71FB7997
:103DF00003F00F03FB73FB7B9A00084B13441B6813
:103E000003F40023002B14BF01230023DBB2184668
:103E10001437BD465DF8047B704700BFC081034086
:103E200080B586B000AF0346FB71FB7903F00F034A
:103E3000FB75FB7D5A1E13465B001344DB00364ABC
:103E400013443B61FB7D032B01D9002360E0FB7D24
:103E50009A00324B13441B6803F40023002B06D155
:103E60003B691B7D03F00403DBB2002B01D001236F
:103E70004EE03B691B7D03F00103DBB2002B01D058
:103E8000002345E0FFF790FAF860FB795BB2002B66
:103E900021DAFB7D9A00224B13441B6803F4405344
:103EA0001B0B002B17D03A69137D43F004031375E5
:103EB000FB7D9A001B4B13444FF480521A601A4A40
:103EC000FB7D4FF4805101FA03F39361F868FFF72B
:103ED00097FA01231CE0FB7D9A00144B1344FA7DF2
:103EE0009100124A0A44126822F400721A60FB7DA3
:103EF0009A000F4B134440221A60FB7D9A00094B35
:103F000013444FF400221A60F868FFF779FA01238E
:103F100018461837BD4680BD900B4020C081034035
:103F200030810340F0810340008003400081034062
:103F30006081034080B584B000AF0346FB71FB791C
:103F400003F00F03BB73BB7B5A1E13465B00134485
:103F5000DB00384A1344BB600023FB73BB7B032B9D
:103F600001D9002362E0BB681B7D03F00403DBB2D0
:103F7000002B14D0BA68137D6FF382031375BB7BDB
:103F80009A002D4B13444FF480521A602B4ABB7B8E
:103F90004FF4805101FA03F353610123FB73BB7BA0
:103FA0009A00274B13441B6803F40023002B2AD0EC
:103FB000BB7B9A00234B13441B6803F04003002B88
:103FC0000CD0BB7B9A00204B134440221A60BB7B71
:103FD0009A001E4B13444FF480221A60BB7B9A0058
:103FE000154B13444FF400221A60BB7B9A00184B08
:103FF0001344BA7B9100164A0A44126842F40072D4
:104000001A600123FB73FB7B002B0ED0BB681B7D6A
:1040100003F00103DBB2002B07D0BA68137D6FF306
:1040200000031375BB681B689847012318461037B7
:10403000BD4680BD900B402020820340008003409D
:10404000C08103403081034060810340F081034020
:104050000081034080B588B000AFBA607B60034642
:10406000FB730B46BB73FB7B03F00F039A00464BBD
:1040700013441B6803F48073002B14BF0123002337
:10408000FB77FB7B03F00F03FB73FB7B032B01D957
:10409000002375E0FB7B5A1E13465B001344DB00D4
:1040A0003A4A1344BB613A4BDA69FB7B012101FABE
:1040B00003F31340002B0FD0FB7B9A00354B1344C6
:1040C0001B6803F40023002B06D1BB691B7D03F0A2
:1040D0000403DBB2002B01D0002351E0FFF764F9A9
:1040E0007861BB691B7D03F00103DBB2002B04D0B8
:1040F0007869FFF785F9002342E0BA69137D43F040
:10410000010313757869FFF77BF9BB69BA685A60D8
:10411000BB697A689A60BB690022DA60BB690022D9
:104120001A61BB69BA6A1A60BB7B002B02D17B683B
:10413000002B01D1012300E00023DBB203F00103D7
:10414000D9B2BA69137D61F341031375BB68002BC3
:1041500011D07B68002B0ED0FB7F83F00103DBB214
:10416000002B04D07968B868FFF7DCF903E07968C0
:10417000B868FFF797F9FB7B184600F00DFD0123A7
:1041800018462037BD4680BD00810340900B40207B
:1041900000800340C081034080B584B000AF034677
:1041A000FB71FB7903F00F03FB73204AFB7B013BA0
:1041B0004FF0007101FA03F35361FB7B1A011C4BB2
:1041C000134400229A60194AFB7B4FF4805101FA94
:1041D00003F35361BFF34F8FBFF36F8FFB795BB274
:1041E000002B1BDA10E0FB7B9A00124B13444FF4B8
:1041F00000521A6000BFFB7B9A000F4B13441B68F0
:1042000003F40053002BF6D1FB7B9A000B4B1344B5
:104210001B6803F440531B0B002BE4D1FB791846B9
:1042200000F068FC00BF1037BD4680BD0080034031
:1042300000830340F0810340C0810340308103408C
:1042400080B400AF094A094B1B6823F4406343F470
:1042500000631360054A054B1B6843F40053136069
:1042600000BFBD465DF8047B704700BF008003407F
:1042700080B400AF094A094B1B6823F4406343F440
:1042800000631360054A054B1B6843F480431360C9
:1042900000BFBD465DF8047B704700BF008003404F
:1042A00080B400AF064A064B1B6823F4406343F416
:1042B0000063136000BFBD465DF8047B704700BF1C
:1042C00000800340F0B593B000AF304B1C463E1D5C
:1042D00004F1300E35462346186859689A68DB6841
:1042E0000FC5103410367445F4D133462246106899
:1042F000186012791A71264A254BDB6923F00103F5
:10430000D3612449234B1B68234A1A4041F23013DE
:1043100013430B601F4A1F4B1B6843F002031360DB
:104320001B4A1B4BDB6943F00103D361184A184B4E
:104330001B6823F4406343F400631360144A144B76
:104340001B6843F400431360144B3B643B1DFB6349
:10435000002387F847300CE03B6C5A1C3A64FA6B38
:10436000511CF96312781A7097F84730013387F8B7
:10437000473097F84730342BEED9094B4FF4804241
:104380001A6000BF4C37BD46F0BD00BFD087430068
:10439000008003400081034083E6FFFF000010A07F
:1043A0002082034080B582B000AF1A4A194B1B68C7
:1043B00023F07F031360174A164B1B6843F08003FA
:1043C00013601549144B1A68144B134043F0300323
:1043D0000B60114A104B1B6843F0020313600D4A37
:1043E0000C4BDB6943F00103D361FEF7DDFF78601E
:1043F0000B4B04221A600A4B02221A60054B4FF441
:1044000080529A617868FEF7FBFF00BF0837BD460F
:1044100080BD00BF008003400081034083E6FFFFB2
:10442000F081034080B582B000AFFEF7BDFF786039
:104430000C4B01221A607868FEF7E2FF0A4B022259
:104440001A600A4B00221A61084B00225A61074B7E
:1044500000229A81064B00221A7000BF0837BD4621
:1044600080BD00BF2082034060810340E41A4020E9
:104470008B0B402080B584B000AF3B4B1B78002BEA
:1044800003D000F07FFAFFF7CDFF384B1A68384BA6
:1044900013401B0D082B05D000F024FA354B0422E5
:1044A0001A605DE0344BBB600023FB730AE0FB7BCA
:1044B000324A1A44BB68591CB9601B781370FB7BE5
:1044C0000133FB73FB7B072BF1D92C4B5A882B4B09
:1044D0005A802A4B9A88294B9A80284BDA88274B96
:1044E000DA80FDF793FD034683F00103DBB2002B76
:1044F00005D000F0F7F91F4B04221A6030E01D4B85
:1045000004221A601D4B1B78DBB25BB2002B0BDA66
:104510001B4B00221A801B4B00221A80124B0222D6
:104520001A7000F033F81BE0144BDB88002B02D12B
:1045300000F0EAF914E0124B00221A80114B00221D
:104540001A80094B01221A700A4B10221A60FEF7DA
:104550002BFF78600C4B10221A607868FEF750FF32
:104560001037BD4680BD00BF8B0B4020308103401B
:104570000000F07F60810340000010A0E41A40209A
:104580008C0B40208E0B4020F081034080B584B01E
:1045900000AFFEF709FF3860464B01221A60386809
:1045A000FEF72EFF444B1B78032B04D100F0EAF9F1
:1045B000FFF738FF7BE0414B9A89414B1B88D31AA8
:1045C000FB81FB89002B27D13E4B1A883C4B1B8873
:1045D00013449AB23B4B1A80384BDA88394B1B880C
:1045E0009A4203D0384B1B78002B02D000F0AEF972
:1045F0005DE0324B5B69002B0ED0304B5B69984716
:10460000034683F00103DBB2002B05D12C4B0022C3
:104610001A802A4B9B89FB81FB893F2B05D94023BC
:10462000FB81294B00221A7002E0274B01221A70ED
:10463000264BBB60214B9B68214A128813447B6048
:10464000FEF7B2FE3860224B1B6803F00203002B1A
:1046500006D03868FEF7D4FE174B04221A7026E005
:1046600000237B730AE0BB685A1CBA607A68511C4D
:10467000796012781A707B7B01337B737B7B9BB2F2
:10468000FA899A42EFD80E4B1A88FB8913449AB2E2
:104690000B4B1A80BFF34F8FBFF36F8F0D4B01226F
:1046A0001A600D4B01221A603868FEF7A9FE103718
:1046B000BD4680BD208203408B0B4020E41A402081
:1046C0008E0B40208C0B4020D80B4020000010A007
:1046D0003081034060810340F081034080B584B0A5
:1046E00000AF594B1B78012B0FD0574B1B78022B77
:1046F00003D0554B1B78042B02D100F043F901E0A5
:1047000000F0F0F8FFF78EFE9BE0504B1A68504B1C
:1047100013401B0DBB814F4B9B891A464E4B1B8888
:104720001946BB890B449A4205DA4A4B9A894A4B8F
:104730001B88D31ABB81494BBB60464B9B68464ADA
:10474000128813447B600023FB730AE07B685A1CC9
:104750007A60BA68511CB96012781A70FB7B013319
:10476000FB73FB7B9BB2BA899A42EFD83A4B1A880B
:10477000BB8913449AB2384B1A80BB89402B0AD1AB
:10478000344BDB881A46364B1B881946324B1B8844
:104790000B449A421CDC304B1A882E4B9A812D4BCD
:1047A0005B69002B0ED02B4B5B699847034683F067
:1047B0000103DBB2002B05D000F094F8294B022254
:1047C0001A603EE0274B02221A6000F09DF838E0A4
:1047D000204B9A89204B1B889A4223D11D4B5B6941
:1047E000002B05D100F07EF81E4B02221A6028E053
:1047F000184B5B699847034683F00103DBB2002B3B
:1048000005D000F06FF8174B02221A6019E0144B24
:104810001A88114B1B8813449AB2114B1A800E4B05
:1048200000221A800F4B02221A600E4B10221A60CF
:10483000FEF7BAFD38600C4B10221A603868FEF79C
:10484000DFFD1037BD4680BD8B0B4020308103401B
:104850000000F07FE41A40208E0B4020000010A0E2
:104860008C0B402060810340F081034080B500AF95
:104870000B4B1B6803F00203002B0FD1094B1B7875
:10488000012B02D100F040F809E0064B1B78042B05
:1048900005D1054B4FF400221A6000E000BF80BD37
:1048A000308103408B0B4020F081034080B400AF87
:1048B000094B1B6803F00103002B08D1074B1B7841
:1048C000032B05D1064B4FF400221A6000E000BF15
:1048D000BD465DF8047B7047308103408B0B402060
:1048E000F081034080B400AF054B05221A70054BE0
:1048F0004FF400221A6000BFBD465DF8047B70478C
:104900008B0B4020F081034080B582B000AF0C4B90
:1049100003221A70FEF748FD78600A4B01221A60E4
:10492000094B01221A60074B08221A60064B082225
:104930001A607868FEF764FD00BF0837BD4680BD89
:104940008B0B402060810340F081034080B582B032
:1049500000AF094B04221A70FEF726FD7860074B62
:1049600010221A60064B10221A607868FEF748FD84
:1049700000BF0837BD4680BD8B0B402060810340DF
:10498000F081034080B500AF044B1B69002B02D0BF
:10499000024B1B69984700BF80BD00BFE41A40204E
:1049A00080B500AF274B5B6803F48053002B01D127
:1049B000002344E0244B10221A60234B08221A6083
:1049C000224B1B6803F00403002B03D0FFF752FDBA
:1049D000012334E01D4B1B6803F00103002B09D0B9
:1049E0001B4B1B6803F00103002B03D0FFF7CEFD28
:1049F000012324E0154B1B6803F00203002B03D0B6
:104A0000FFF76CFE01231AE0104B1B6803F008034C
:104A1000002B06D00F4B08221A60FFF747FF012337
:104A20000DE00A4B1B6803F01003002B06D0094B66
:104A300010221A60FFF71AFF012300E00023184636
:104A400080BD00BF008003402082034030810340CE
:104A5000C08103406081034080B483B000AF002375
:104A6000FB711CE0FA79124913465B001344DB002A
:104A70000B4403F1100213796FF300031371FA79F9
:104A80000B4913465B001344DB000B4403F1100297
:104A900013796FF382031371FB790133FB71FB7997
:104AA000022BDFD900BF0C37BD465DF8047B704791
:104AB000900B402080B582B000AF0023FB7110E066
:104AC000FA7913465B001344DB00094A9818FB7916
:104AD0000133DBB21A46012100F028F8FB790133DB
:104AE000FB71FB79022BEBD900BF0837BD4680BDB7
:104AF000900B402080B582B000AF0346FB71FB797C
:104B000003F00F03FB71FB795A1E13465B0013443D
:104B1000DB00054A1344FA790121184600F006F833
:104B200000BF0837BD4680BD900B402080B582B0E5
:104B300000AF78600B46FB701346BB707B681B7D33
:104B400003F00103DBB2002B1DD07A68137D6FF3F5
:104B5000000313757B681B68002B16D0BB789A0086
:104B60000C4B13441B6803F48073002B03D0BB78F9
:104B700063F07F03BB707B681B68F8787A68916884
:104B8000BA78984702E000BF00E000BF0837BD4692
:104B900080BD00BF0081034080B586B000AF0346F2
:104BA000FB7100237B61FB795A1E13465B001344A3
:104BB000DB00744A1344FB60FB681B7D03F00103B8
:104BC000DBB2002B00F0D980FB68DA68FB689B68D9
:104BD0009A4200F09080FB689A68FB68DB68D31A01
:104BE0003B613B69B3F5803F05D94FF480333B61AE
:104BF00000237B6102E03B691B047B61FB799A0027
:104C0000614B13441B6803F48073002B1AD0FB79AB
:104C10009A005D4B13441B6803F070031B090822C4
:104C200002FA03F3013B1A463B691340002B26D0DE
:104C30007B6943F008037B61FA68137D6FF34103DE
:104C400013751CE0FB799A004F4B13441B6803F467
:104C5000C053DB0A012B0ED1FB799A004A4B134457
:104C60001B6803F070031B09082202FA03F31A46BB
:104C70003B699A4203D37B6943F014037B61FB7960
:104C80001A01424B1344FA685168FA68D2680A4420
:104C90005A607B6943F021037B61FEF785FBB860B6
:104CA000FB791A01394B1344DB6803F01003002B26
:104CB0001AD1FB791A01354B13447A699A60FB6863
:104CC000DA683B691A44FB68DA60FB683A691A6182
:104CD0002F4AFB79013B4FF0007101FA03F3936116
:104CE000B868FEF78DFB49E0B868FEF789FBFB6802
:104CF000DA68FB689A60FB799A00234B13441B68BF
:104D000003F48073002B29D0FB681B7D03F00203A2
:104D1000DBB2002B2AD0FB799A001E4B13440122F0
:104D20001A60FB799A001C4B13441B6803F4803310
:104D3000002B05D0FB799A00184B134401221A600E
:104D4000FB799A00164B134401221A60104AFB7932
:104D50004FF4805101FA03F393610FE0FB685A6846
:104D6000FB689B6819461046FEF720FCFB791A4643
:104D70000021F868FFF7DAFE00E000BF1837BD46F3
:104D800080BD00BF900B40200081034000830340A2
:104D900000800340608103403081034090810340E4
:104DA000F081034080B584B000AF0123FB73C9E0FC
:104DB000FB7B5A1E13465B001344DB00664A134418
:104DC000BB60664B1A69FB7B013B4FF0007101FA37
:104DD00003F31340002B39D0604B5A68FB7B013B37
:104DE0004FF0007101FA03F31340002B2ED0FB7B30
:104DF0001A015B4B1344DB6803F00103002B01D065
:104E00000123A4E0554AFB7B013B4FF0007101FAFE
:104E100003F35361FB7B1A01514B1344DA68514B86
:104E200013401B0C7B607B68002B09D0BB68DA68E1
:104E30007B68D21ABB68DA60BB68DA68BB689A60C4
:104E4000FB7B1846FFF7A8FE012380E0434B1A695D
:104E5000FB7B4FF4805101FA03F31340002B6ED01B
:104E6000FB7B9A00404B13441B6803F00103002BAB
:104E700023D0FB7B9A003D4B13441B6803F00103D6
:104E8000002B1AD0FB7B9A00394B134401221A6085
:104E9000FB7B9A00374B134401221A60FB7B9A007C
:104EA000334B13444FF480421A60FB7B1A460021B7
:104EB000B868FFF73BFE012349E0FB7B9A002A4BD1
:104EC00013441B6803F48053002B38D0FB7B9A00FB
:104ED000264B13441B6803F440531B0B002B2ED1AD
:104EE000FB7B9A00224B13444FF480521A601B4AFA
:104EF000FB7B4FF4805101FA03F35361BA68137DD1
:104F00006FF382031375FB7B9A001B4B1344FA7BF0
:104F10009100194A0A44126822F400721A60FB7B5D
:104F20009A00164B13444FF400221A60FB7B9A0040
:104F3000124B13444FF480221A60012307E0FB7BDD
:104F40000133FB73FB7B032B7FF632AF0023184644
:104F50001037BD4680BD00BF900B4020008003404D
:104F6000008303400000FFFFC08103403081034005
:104F7000208203406081034000810340F0810340B0
:104F800080B485B000AF786039600023FB607B6837
:104F9000AC221A603B681A683B685B68B2FBF3F3AB
:104FA0001B09FB60FB68002B03D0FB68B3F5803F57
:104FB00001D301230AE07B68FA681A623B689A68A9
:104FC0007B685A607B6850221A60002318461437A9
:104FD000BD465DF8047B704780B483B000AF786055
:104FE00039607B683A689A6000BF0C37BD465DF84F
:104FF000047B704780B483B000AF78607B685B69E6
:1050000018460C37BD465DF8047B704780B483B00A
:1050100000AF786039607B685B6903F00103002BA7
:1050200001D1012305E07B689B69DAB23B681A7005
:10503000002318460C37BD465DF8047B704700BF5F
:1050400080B485B000AF7860104BFB60104B1B68DC
:10505000002B02D10E4B0F4A1A600D4B1B68BB6030
:10506000BA687B681A44FB689A4202DD4FF0FF334E
:1050700006E0074B1A687B681344054A1360BB6857
:1050800018461437BD465DF8047B7047FCFF452089
:10509000DC0B4020D069402080B487B000AFF860BE
:1050A000B9607A603B60124B7B61BB68A3F58003FB
:1050B0005B0A7B82BB689BB2C3F308033B82FB683D
:1050C000002B02D0FB687A691A607B68002B02D043
:1050D0007B687A8A1A803B68002B02D03B683A8A48
:1050E0001A8000BF1C37BD465DF8047B704700BFC7
:1050F000000C0E4080B487B000AFF860B9607A60F1
:105100003B60FA680D4B13407B61BB680B4A1A4049
:1051100041F6FF7313443B617B68002B02D07B6830
:105120007A691A603B68002B02D03B683A691A60C2
:1051300000BF1C37BD465DF8047B704700E0FFFFF1
:1051400080B582B000AF786039603A687968044809
:10515000FDF798FF002318460837BD4680BD00BF05
:10516000000C0E4080B58AB000AFF860B9607A607C
:105170003B601023FB8407F1140307F11802B968A0
:10518000F868FFF7B7FF7B68002B02D0BA697B682D
:105190001A603B68002B02D07A693B681A60B969D3
:1051A00007F1120207F11C000023FFF775FF796970
:1051B00007F1100200230020FFF76EFF10E0FB69EB
:1051C0007A8A08211846FDF775FF38623B6A002B82
:1051D00001D03B6A09E07A8AFB8C13449BB27B8244
:1051E0007A8A3B8A9A42EAD3002318462837BD467A
:1051F00080BD00BF80B58AB000AF78603960002301
:105200003B620023FB610023BB6107F10A0207F147
:105210000C0000237968FFF73FFF07F10802002325
:1052200039680020FFF738FF1023FB827A89FB8A58
:10523000B2FBF3F39BB27B753A89FB8AB2FBF3F3C3
:105240009BB23B75FB6800220A211846FDF732FF2E
:1052500038613B69002B01D03B6940E0FB68184690
:10526000FDF752FF786207E0FB681846FDF74CFF38
:105270007862FB692033FB617A7DFB699A42F3D344
:105280007A7DFB6920339A42EED27A7DFB69D31A8C
:10529000BB613A7D7B7DD31A0133FB611BE00122A8
:1052A000BB6902FA03F31A467B6A1340002B02D053
:1052B0003B6A01333B62FB69013BFB61BB69013324
:1052C000BB61BB69202B06D1FB681846FDF71CFFAC
:1052D00078620023BB61FB69002BE0D13B6A184672
:1052E0002837BD4680BD00BF80B584B002AF78606E
:1052F00039603B68802B01D980233B603B68009379
:105300007B6815221421064814F0F6FC0346002B96
:1053100001D0102300E0002318460837BD4680BDA9
:10532000000C0E4080B584B000AF786039603B68F7
:10533000802B01D9112325E03B689B001A46796830
:10534000124813F070F94FF48003BB600023FB6038
:105350000AE0BB681A1DBA600C49FA6851F82220AD
:105360001A60FB680133FB60FB687F2BF1D90022D8
:1053700012210748FDF79EFE0346002B01D01023A3
:1053800000E0002318461037BD4680BDE00B4020EA
:10539000000C0E4080B500AF002213210248FDF73B
:1053A00089FE0346184680BD000C0E4080B400AF55
:1053B000BFF34F8FBFF36F8F094B0022C3F850220A
:1053C000074A074B5B6943F400335361BFF34F8FC8
:1053D000BFF36F8F00BFBD465DF8047B704700BF11
:1053E00000ED00E080B48BB000AF264BD3F88030E6
:1053F000FB61FB695B0BC3F30E037B62FB6903F08C
:1054000007030433BB61FB69DB08C3F309037B615A
:105410007B69FB60FB68B3FA83F37B607B68DBB27C
:1054200003F01F033B61BFF34F8F7B693B623A6A16
:105430003B6902FA03F319467A6ABB6902FA03F37D
:105440000B43BB600F4ABB68C2F860323B6A5A1E0E
:105450003A62002BEBD17B6A5A1E7A62002BE4D1B0
:10546000BFF34F8F074A074B5B6943F480335361A7
:10547000BFF34F8FBFF36F8F00BF2C37BD465DF872
:10548000047B704700ED00E080B483B000AF78602B
:105490007B68072B25D801A252F823F0BD544200A7
:1054A000C3544200C9544200CF544200D354420076
:1054B000D7544200DB544200DF5442004FF4FA4319
:1054C00010E04FF400430DE04FF400430AE0084BB6
:1054D00008E0084B06E0084B04E0074B02E0064BEF
:1054E00000E0002318460C37BD465DF8047B70478A
:1054F00000093D0000127A00001BB70080B500AF24
:105500000620FFF7C1FF024613469B0013449A0092
:105510001344184680BD00BF80B500AFFFF7EEFF13
:105520000346184680BD00BF80B582B000AF7860EA
:105530007868FDF783F900BF0837BD4680BD00BF1E
:1055400080B500AF0A20FFF7EFFF0B20FFF7ECFF5D
:105550001020FFF7E9FF00BF80BD00BF80B400AF9F
:10556000BFF34F8FBFF36F8F0C4A0C4BD3F89032C1
:1055700023F00103C2F89032084A084BD3F8943262
:1055800023F00103C2F89432BFF34F8FBFF36F8F44
:1055900000BFBD465DF8047B704700BF00ED00E032
:1055A00080B582B000AF06210020FFF7C9FD78600A
:1055B0007B68002B02D0034801F0DEFC00BF0837F7
:1055C000BD4680BD08884300F0B583B000AF3B46C0
:1055D00001211846FFF788FE786000233B60FFF743
:1055E000D9FE7860FFF798FF03464FF00004DB1800
:1055F00044EB0404A60046EA93769D005B1944EB55
:10560000060441F22B714FF000025D1844EB0206D4
:105610002846314641F22C724FF0000312F032FE60
:1056200003460C46184614F06FFB3B460121184612
:10563000FFF778FE786000BF0C37BD46F0BD00BFB5
:1056400080B582B000AF0A494FF48000FFF7D2FD69
:1056500078607B68072B06D80023002204494FF4AA
:105660008000FFF77FFD00BF0837BD4680BD00BF4B
:1056700000C0410080B582B000AF234B01221A70F8
:10568000BFF35F8F62B6FBF7B3F8204B204A5A6036
:10569000FFF78CFEFFF7A6FE1E4B1F4A5A601D4BFC
:1056A0001E4A5A60FFF75AFFFFF74AFFFFF778FFDD
:1056B000FFF78AFFFFF7C4FF194B7B607B68194A2D
:1056C000C3F8142101F0D6FC174801F055FC174A25
:1056D0001749184801F050FC04F004F808F0CCFF1A
:1056E00009F05EFB03F018FB0AF0B0FA0AF016FCB2
:1056F00004F0E0FF012001F091FF01F0B7FF00BFCF
:105700000837BD4680BD00BF3202402050180E4011
:1057100000800010000C0E400C08005A0C07005AC4
:105720000080084010104020248843004488430033
:10573000508843005C88430080B483B000AF214BA5
:105740007B607B6803221A617B6803225A617B6855
:105750001D4A9A617B681D4ADA617B684FF480625A
:105760001A627B6800229A627B6800225A627B6818
:105770000022DA627B68144A1A667B68144A5A6609
:105780007B6810229A667B6800221A677B68002279
:10579000DA667B6800225A677B6807330D4A106817
:1057A00018607B680C4A106818609188927999801B
:1057B0009A717B6820229A7100BF0C37BD465DF854
:1057C000047B70470C1B402074884300E00D402090
:1057D000E0114020808843008488430080B58AB06F
:1057E00000AFF860B9607A603C4B1B78002B01D1A8
:1057F000FFF7A2FFFA6813465B001344DB00603337
:10580000364A1344BB61BB68FB61BB691B693B62E1
:10581000BB69DB687B6100237B623A6A7B699A42E1
:105820002AD9BB699A683B6AD31A3B613A697B689B
:10583000934228BF13463B61BB695A683B6A1344D5
:105840003A691946F86912F0EEFE7A6A3B69134428
:105850007B62FA693B691344FB617A683B69D31A3E
:105860007B603A6A3B6913443B62BB699A683B6A56
:105870009A4201D100233B627A693B6AD31A3B61A9
:105880003A697B68934228BF13463B613B69002B12
:1058900018D0BB695A683B6A13443A691946F869DB
:1058A00012F0C1FE7A6A3B6913447B62FA693B6974
:1058B0001344FB617A683B69D31A7B603A6A3B699F
:1058C00013443B627B6A002B02D0BB693A6A1A61BF
:1058D0007B6A18462837BD4680BD00BF0C1B4020A0
:1058E00080B58AB000AFF860B9607A60BB687B624F
:1058F000FB685A1C13465B001344DB003F4A134409
:105900003B623B6A1B69FB613B6ADB68BB61FA690E
:10591000BB699A4254D83B6A9A68BB69D31A013B67
:105920007B617A697B689A420FD33B6A5A68BB698C
:1059300013447A68796A184612F075FEBA697B6872
:105940001A443B6ADA60012354E07A69FB69134424
:105950007B617A697B689A424BD33B6A9A68BB69E0
:10596000D31A3B613A697B689A420ED93B6A5A68FE
:10597000BB6913447A68796A184612F054FEBA6912
:105980007B681A443B6ADA6018E03B6A5A68BB6974
:1059900013443A69796A184612F045FE3B6A586822
:1059A0007A6A3B69D1187A683B69D31A1A4612F0B1
:1059B0003AFE7A683B69D21A3B6ADA60012319E041
:1059C000FA69BB69D31A013B7B617A697B689A42A9
:1059D0000FD33B6A5A68BB6913447A68796A1846E0
:1059E00012F021FEBA697B681A443B6ADA6001232F
:1059F00000E0002318462837BD4680BD0C1B402020
:105A000080B586B000AFF860B9607A603B60304B1B
:105A10001B78002B01D1FFF78FFE2D4B1B691A4617
:105A2000FB689A424CD9EFF311834FF0200181F3C8
:105A300011883B61FB68002B32D02549FB685A1C5A
:105A400013465B001344DB000B44BA681A6020491C
:105A5000FB685A1C13465B001344DB000B44043301
:105A60007A681A601A49FA6813465B001344DB002F
:105A70000B4420333A681A601549FA6813465B00F4
:105A80001344DB000B44283300221A601049FA68E3
:105A900013465B001344DB000B44243300221A60DE
:105AA0000B49FA6813465B001344DB000B442C33AC
:105AB0003A6A1A603B6983F3118800237B6102E034
:105AC0004FF0FF337B617B6918461837BD4680BDB8
:105AD0000C1B402080B586B000AFF860B9607A60DA
