:020000040040BA
:1000000020304020010240007D0240007D0240007F
:100010007D0240007D0240007D02400000000000A3
:100020000000000000000000000000007D02400011
:100030007D024000000000007D024000654340005A
:100040007D0240007D0240007D0240007D024000B4
:10005000494340007D0240007D0240007D02400097
:100060007D024000000000000121400015214000F9
:10007000000000007D0240007D0240007D02400043
:1000800029214000000000007D0240007D02400068
:100090007D0240007D0240007D0240007D02400064
:1000A0007D0240007D0240000000000000000000D2
:1000B000000000007D024000000000007D024000C2
:1000C0007D0240007D024000D52640000000000077
:1000D0000000000000000000000000000000000020
:1000E0007D0240007D0240007D0240007D02400014
:1000F0007D0240007D0240007D02400000000000C3
:1001000000000000000000007D0240007D02400071
:100110007D02400000000000000000000000000020
:100120007D0240007D0240007D0240007D024000D3
:100130007D02400000000000000000007D02400041
:1001400000000000000000000000000000000000AF
:100150007D0240007D0240007D024000044B0548C6
:100160001B1A062B02D9044B03B11847704700BF76
:100170004F5340004C534000000000000549064822
:10018000091A891001EBD171491002D0034B03B158
:10019000184770474C5340004C534000000000008B
:1001A00010B5064C237843B9FFF7D8FF044B13B1C1
:1001B0000448AFF300800123237010BD6402402087
:1001C000000000004C53400008B5084B1BB1084923
:1001D0000848AFF300800848036813B9BDE8084039
:1001E000CCE7064B002BF9D09847F7E7000000005A
:1001F000680240204C5340004C5340000000000077
:1002000080B582B000AF164B7B60164B3B607A68BE
:100210003B689A420CD007E03B681A1D3A607A6846
:10022000111D796012681A603B680F4A9342F3D33C
:100230000E4B3B6004E03B681A1D3A6000221A60D6
:100240003B680B4A9342F6D30A4B7B600A4A7B68B1
:1002500023F07F03936004F0EFFF04F091F8FEE7D2
:100260004C534000000040206402402064024020C3
:100270001C1040200000400000ED00E080B400AF02
:10028000FEE700BF80B400AF524B1B6B03F00303CB
:10029000012B14D0012B02D3022B38D07AE04E4B25
:1002A0005B6903F08003002B04D04C4B4FF40042F9
:1002B0001A606FE0494B4FF4FA421A606AE0454B0E
:1002C0001B6A03F08073002B03D0444B444A1A602E
:1002D00060E0424B434A1A603E4B1B6A03F07003D6
:1002E000102B04D0202B08D0002B0ED00EE03B4B5F
:1002F0001B685B00394A136008E0384B1A681346E4
:100300005B001344354A136000E000BF42E0314B0C
:100310001B6A03F08073002B03D0304B304A1A6005
:100320001CE02E4B2F4A1A602A4B1B6A03F0700305
:10033000102B04D0202B08D0002B0ED00EE0274B22
:100340001B685B00254A136008E0244B1A681346BB
:100350005B001344214A136000E000BF1D4B1B6B80
:1003600003F00303022B14D11A4B9A6A1E4B13405D
:100370001B0C0133194A126802FB03F3174A13607E
:10038000144B9B6ADBB2154A1268B2FBF3F3134AB3
:10039000136000BF0F4B1B6B03F07003702B08D171
:1003A0000E4B1B68114AA2FB03235B080B4A136028
:1003B0000AE0084B1B6B03F070031B09074A126825
:1003C00022FA03F3054A136000BFBD465DF8047BC3
:1003D000704700BF00060E4010180E400401402078
:1003E000001BB70000093D000000FF07ABAAAAAA46
:1003F00080B483B000AF78607B681D4A934204D814
:100400001C4B4FF080621A602BE07B681A4A9342C3
:1004100003D8184B194A1A6023E07B68184A9342A4
:1004200003D8144B174A1A601BE07B68164A9342A4
:1004300003D8104B154A1A6013E07B68144A9342A4
:1004400004D80C4B4FF004221A600AE07B68114A72
:10045000934203D8074B104A1A6002E0054B0F4A3B
:100460001A6000BF0C37BD465DF8047B704700BFC3
:10047000BFF35E01000C0E407FE7BD0200010004E7
:100480003FDB1C0400020004FFCE7B0500030004D8
:10049000BFC2DA067FB63908000500040006000472
:1004A00080B582B000AF78607B68072B31D801A29D
:1004B00052F823F011054000D5044000DD0440004F
:1004C000E5044000ED044000F5044000FD04400058
:1004D00007054000002001F0B1FE1AE0012001F004
:1004E000ADFE16E0002001F0DFFE12E0102001F06A
:1004F000DBFE0EE0202001F0D7FE0AE03E210020C6
:1005000001F00AFF05E03E21012001F005FF00E0B7
:1005100000BF00BF0837BD4680BD00BF80B582B0B8
:1005200000AF78607B68072B26D801A252F823F031
:100530005105400055054000550540006705400045
:1005400067054000670540006705400067054000FB
:10055000012312E001F08EFE0346002B14BF01239D
:100560000023DBB209E001F013FF0346002B14BFA8
:1005700001230023DBB200E0002318460837BD4604
:1005800080BD00BF80B483B000AF78607B68072B6C
:1005900025D801A252F823F0B9054000BF0540005C
:1005A000C5054000CB054000CF054000D305400005
:1005B000D7054000DB0540004FF4FA4310E04FF44C
:1005C00000430DE04FF400430AE0084B08E0084BFD
:1005D00006E0084B04E0074B02E0064B00E0002376
:1005E00018460C37BD465DF8047B704700093D0096
:1005F00000127A00001BB70080B582B000AF03463E
:10060000FB7100BFFB791846FFF788FF034683F0B4
:100610000103DBB2002BF5D100BF0837BD4680BD1A
:1006200080B586B000AFF8607A603B600B46FB7225
:100630007B68002B07D13B68002B04D1FB684FF48B
:1006400070021A6019E0FB7A1846FFF79BFF02461A
:100650007B68B2FBF3F37B617B693A6802FB03F3CF
:100660007B613B68013B1A04064B13407A68D2B2A7
:10067000134343F47C52FB681A6000BF1837BD4631
:1006800080BD00BF0000FF0780B582B000AF78607A
:1006900039603B68002B08D101F088FE084A7B686E
:1006A0001B6843F00053936205E0054A7B681B68B2
:1006B00043F48033D36100BF0837BD4680BD00BF1F
:1006C00000060E4080B582B000AF78607B68002BDA
:1006D00003D101F079FE034602E001F097FE0346E4
:1006E00018460837BD4680BD80B582B000AF0346CE
:1006F000FB71FB79033B042B08D8FB791846FFF705
:10070000CFFEFB791846FFF777FF00E000BF00BF80
:100710000837BD4680BD00BF80B582B000AF7860AD
:1007200000BF7868FFF7CEFF0346002BF9D0002307
:1007300018460837BD4680BD80B500AF0620FFF7DC
:1007400021FF024613469B0013449A0013441846A7
:1007500080BD00BF80B500AFFFF7EEFF034618462F
:1007600080BD00BF80B582B000AF01F03BFE00202D
:1007700001F078FE01F08AFE00BF0837BD4680BD5B
:1007800080B582B000AF1348FFF732FE0620FFF7B6
:10079000ABFF381D192301220621FFF741FF3B1D46
:1007A00000211846FFF770FF0020FFF7B5FF022079
:1007B00001F0C4FC002001F0FFFCFFF763FDFFF730
:1007C000C9FF03461846FFF713FE00BF0837BD46B2
:1007D00080BD00BF000E270780B483B000AFEFF3E9
:1007E00010837B607B68002B0CBF01230023DBB2EE
:1007F0003B6072B6BFF35F8F044B00221A703B68F8
:1008000018460C37BD465DF8047B704760024020F7
:1008100080B483B000AF78607B68002B14BF0123E5
:100820000023DBB218460C37BD465DF8047B7047E9
:1008300080B582B000AF78607868FFF7E9FF0346C3
:10084000002B05D0044B01221A70BFF35F8F62B6F4
:1008500000BF0837BD4680BD6002402080B483B031
:1008600000AF0023BB71444B00221A70BB79434A8E
:10087000002122F81310BA79414913469B00134412
:100880005B000B44A1221A70BA793D4913469B00C4
:1008900013445B000B44013320221A70BA793849A3
:1008A00013469B0013445B000B44023300221A8062
:1008B000BB79002B02D10023FB7102E00023FB7106
:1008C00000BFBA79FB7998B22D4913469B001344B7
:1008D0005B000B44043302461A80BA792849134658
:1008E0009B0013445B000B44063302221A80BA7942
:1008F000234913469B0013445B000B44083300223A
:100900001A80BA791F491346DB009B1A0B44002258
:100910001A70002262F03D025A70002242F0010279
:100920009A700022DA70BA7916491346DB009B1AD6
:100930000B44043300221A70BA7912491346DB00C3
:100940009B1A0B44053300221A70BA790D491346DD
:10095000DB009B1A0B44063308221A70064B1B78E7
:10096000DBB20133DAB2044B1A70012318460C379C
:10097000BD465DF8047B7047960240208802402007
:100980008C0240208002402080B582B000AF00235E
:10099000FB712D4B00221A70FB792C4A0021D15497
:1009A000FB792B4A0021D154FB792A4A0021D154EA
:1009B000FB79294A002122F82310FB79264A9B0063
:1009C000134400225A80FB79244A002122F8131094
:1009D000FB79184600F01AFAFB79214A0021D1541C
:1009E000FB79204A0021D154FB791F4A002122F8CB
:1009F0002310FB791C4A9B00134400225A80FB7988
:100A00001A4A002122F81310FB79184600F0FCF86E
:100A1000034683F00103DBB2002B01D000230FE07B
:100A2000094B1B78DBB20133DAB2074B1A70064B65
:100A30001B78DBB2012B02D10D4B01221A7001236E
:100A400018460837BD4680BD97024020B80A4020AE
:100A5000BC0A4020B00A4020AC0A4020B40A402022
:100A6000A8064020A00640209C064020A406402066
:100A70009802402080B400AF054B1B78DBB2013BED
:100A8000DAB2034B1A7000BFBD465DF8047B7047B5
:100A90009602402080B483B000AF094B1B78DBB2D4
:100AA000013BDAB2064B1A70054B1B78FB71054B04
:100AB00000221A7000BF0C37BD465DF8047B7047FA
:100AC000970240209802402080B582B000AF00F02D
:100AD00077F80346FB71294B1B78DBB25BB2002B26
:100AE0001CDA264B1B7803F06003202B16D1234B16
:100AF0005B78212B12D1214BDB88072B01D00023FF
:100B000038E0FA791346DB009B1A1D4A13441B4A4E
:100B100093601A4B07229A8101232BE0174B1B7815
:100B2000DBB25BB2002B24DB144B1B7803F06003B9
:100B3000202B1ED1114B5B78202B02D0222B16D0FC
:100B400017E00E4BDB88072B01D0002312E00B4B84
:100B50000C4A1A61FA791346DB009B1A084A1344BF
:100B6000064A9360054B07229A81012302E0012384
:100B700000E0002318460837BD4680BD0410402021
:100B800080024020F10B400080B400AF00231846E3
:100B9000BD465DF8047B704780B400AF0023184663
:100BA000BD465DF8047B704780B500AF034B1B78F2
:100BB000184600F02BF900BF80BD00BFBD0A4020E1
:100BC00080B483B000AF094B9B88DBB2002B02D10D
:100BD0000023FB7102E00023FB7100BFFB79184684
:100BE0000C37BD465DF8047B704700BF0410402001
:100BF00080B582B000AFFFF7E3FF0346FB7100BF93
:100C00000837BD4680BD00BF80B588B002AF03463F
:100C1000FB710023FB71FFF7DFFD3861FB792D4A83
:100C2000D35CFB73FB792C4AD35CDBB2002B0ED177
:100C3000FB792A4A32F813309AB2F979FB7B2848BB
:100C400049000B4430F813309BB29A4204D2386901
:100C5000FFF7EEFD002339E0FB79204A002122F85E
:100C60001310FB79FA7B002A0CBF01220022D2B2BA
:100C70001146184AD154FB79174A0121D1543869D9
:100C8000FFF7D6FDFB79184600F0D6F90346002B96
:100C900003D0FB79184603F0FBFDFB79002B02D152
:100CA0000223FB7502E00223FB7500BFFA79FB7B90
:100CB000520013445B020B4A1A44F87D0A4B00931E
:100CC0004FF40073012102F0F1F90346184618377A
:100CD000BD4680BDA0064020A8064020A4064020B6
:100CE0009C0640209C024020ED0C400080B586B060
:100CF00002AF03463960FB711346BB71BB79022B0F
:100D000002D10023FB7302E00023FB7300BFFB79D9
:100D1000002B2FD1FB7B194AD35CDBB2002B0CBF1D
:100D200001230023DBB2BB733B68002B0FD1FA7B9E
:100D3000BB7B520013445B02114A1A44B879114B31
:100D400000934FF40073012102F0B0F913E0FA7B35
:100D5000BB7B396888B20C4952001344024621F823
:100D60001320FB7B094A0021D154FB7B1846FFF777
:100D70004BFF00E000BF1037BD4680BDA0064020FD
:100D80009C024020ED0C40009C064020A80640201C
:100D900080B584B000AF03463960FB711346BB7168
:100DA000BB79812B02D10023FB7302E00023FB738C
:100DB00000BFFB79002B1DD1FB7BFA7B0F498A5CBE
:100DC000D2B2002A0CBF01220022D2B211460C4A34
:100DD0005B000B44002122F81310FB7B094A002121
:100DE000D154FB7B084A0021D154FB7B184600F00C
:100DF0000DF800E000BF1037BD4680BDB00A4020AE
:100E0000AC0A4020BC0A4020B80A402090B589B006
:100E100002AF0346FB710023FB71FB79634AD35C8D
:100E2000DBB2002B40F0BB8001F0C2FD0346002B7B
:100E300009D0FB795E4A32F8134001F011FE0346F7
:100E40009C420AD1AEE0FB79594A32F8134001F0D6
:100E5000F7FD03469C4200F0A480FFF7BDFC38611B
:100E6000FB79544AD35CFB75FA79FB7D52495200F9
:100E7000134431F81330002B1FD1504B1B88013322
:100E80009AB24E4B1A8001F093FD034683F00103A2
:100E9000DBB2002B03D0494B1B88632B09D901F02F
:100EA00087FD0346002B08D0444B1B88B3F5487FD1
:100EB00003D23869FFF7BCFC74E0404B00221A8073
:100EC000FB793F4AD35CDBB283F00103DBB2002B3A
:100ED0000AD0FB79FA7D002A0CBF01220022D2B28F
:100EE0001146344AD15406E0FB7D002B0CBF012390
:100EF0000023DBB2FB75FB792C4A0121D154386900
:100F0000FFF796FCFA79FB7D2B495200134431F828
:100F10001330B3F5007F14BF01230023FB73FB7B69
:100F2000002B16D001F044FD0346002B08D0FC79BD
:100F300001F096FD03461A461D4B23F814200DE0E0
:100F4000FC7901F07DFD03461A46194B23F8142065
:100F500004E0FB79164A002122F81310FB79002BDC
:100F600002D18123BB7502E08123BB7500BFFA79F2
:100F7000FB7D520013445B02124A9C18FA79FB7DF8
:100F80000D495200134431F813301A46F97BB87DED
:100F90000D4B00931346224602F088F802E000BF92
:100FA00000E000BF1C37BD4690BD00BFB80A40201E
:100FB000B40A4020B00A4020AC0A4020BE0A4020BB
:100FC000BC0A4020AC064020910D400080B586B0A0
:100FD00000AF0346FB710023FB71FFF7FDFB786157
:100FE000FB790E4A32F813307B82FB79FA790C498F
:100FF0008A5CD2B211460B4A5B000B4432F81330C4
:101000009BB21A467B8AD31AFB607869FFF710FC03
:10101000FB6818461837BD4680BD00BFA4064020B7
:10102000A00640209C06402080B500AF0020FFF7BE
:10103000CDFF0346184680BD80B582B000AF0346A1
:10104000FB71FB791846FFF7C1FF0346002B14BF65
:1010500001230023DBB218460837BD4680BD00BF20
:1010600080B588B000AF0346B9607A60FB73BB6897
:10107000FB610023FB73FFF7AFFB7861FB7B344A16
:1010800032F813307B82FB7B324AD35C7B74FA7B71
:101090007B7C31495200134431F813309BB27A8A79
:1010A0009A422CBF012300233B747869FFF7C0FBF1
:1010B0003B7C002B09D0294B1B78DBB283F001036A
:1010C000DBB2002BD7D07B683DE0FA7B7B7C2249EA
:1010D0005200134431F813309BB21A467B8AD31A5C
:1010E000BB61BA697B689A4201D97B68BB61F97BB5
:1010F0007A7C7B8A49000A4452021344184A1344FA
:10110000BA691946F86904F0BDF8FB7BFA7B10490F
:1011100031F8122091B2BA6992B20A4491B20C4AE3
:1011200022F81310FA69BB691344FB617A68BB6942
:10113000D31A7B60FB7B1846FFF766FD7B68002BAC
:1011400000D098E7002318462037BD4680BD00BF79
:10115000A4064020A00640209C0640209802402083
:101160009C02402080B582B000AF786039603A6858
:1011700079680020FFF774FF034618460837BD461C
:1011800080BD00BF80B586B000AF0346FB71002371
:10119000FB71FFF721FB3861FB791E4AD35CFB73BF
:1011A000FA79FB7B1C495200134431F813307B6100
:1011B0007B69B3F5007F21D1FB79184AD35CDBB2A0
:1011C00083F00103DBB2002B18D0FB79144AD35C07
:1011D000DBB283F00103DBB2002B0FD0FB79104AA6
:1011E0000121D154FB79FA7B002A0CBF0122002295
:1011F000D2B21146074AD15400237B617B69C3F503
:101200000073BB603869FFF713FBBB6818461837DB
:10121000BD4680BDB00A4020AC0A4020B80A40203C
:10122000BC0A402080B582B000AF0346FB71FB7959
:101230001846FFF7A7FF0346002B14BF0123002326
:10124000DBB218460837BD4680BD00BF80B588B008
:1012500000AF0346B9607A60FB73BB68BB610023D3
:10126000FB73FA7B33491346DB009B1A0B440633AE
:101270001B78092B02D17B685B007B60FB7B1846E7
:10128000FFF7D0FF034683F00103DBB2002B09D048
:10129000294B1B78DBB283F00103DBB2002BEDD0CE
:1012A0007B6843E0FFF798FA7861FB7B234AD35CC5
:1012B000FB74FA7BFB7C22495200134431F8133053
:1012C0003B823B8AC3F50073FB61FA697B689A42F3
:1012D00001D97B68FB61F97BFA7C3B8A49000A44AF
:1012E00052021344174A1344FA69B969184603F0C5
:1012F000C9FFFA7BFB7CF96988B2398A014488B25C
:101300000F4952001344024621F813207869FFF771
:101310008FFABA69FB691344BB617A68FB69D31A17
:101320007B607B68002B00D0A8E70023184620379D
:10133000BD4680BD8002402098024020B00A402077
:10134000AC0A4020AC06402080B582B000AF786087
:1013500039603A6879680020FFF778FF034618463D
:101360000837BD4680BD00BF80B400AF064B1B6888
:101370001B68054A12681268528892B213441846D4
:10138000BD465DF8047B7047CC0A402080B584B030
:1013900000AF78600B46FB70FFF7E6FFF8607B68F4
:1013A0001B781A467B6813447B6010E07B685B788F
:1013B000042B11D07B685B78FA789A4201D17B6864
:1013C0000CE07B681B781A467B6813447B60FA68E4
:1013D0007B689A42EAD800E000BF00231846103725
:1013E000BD4680BD80B584B000AF03460A46FB71A0
:1013F0001346BB711E4B1B78002B01D1002332E03A
:101400001C4B1B681B681B79FA799A4201D3002395
:1014100029E0184B1B681B68174A1360FFF7A4FFED
:10142000F8601AE0144B1B685B78042B0DD1124B4B
:101430001B689B78FA799A4207D10F4B1B68DB78BF
:10144000BA799A4201D101230DE00B4B1B680A4A7D
:10145000126812781344084A1360074B1B68FA6835
:101460009A42DFD8002318461037BD4680BD00BF22
:10147000C80A4020CC0A4020D00A402080B584B061
:1014800000AF0346FB71FB7900211846FFF7AAFF66
:10149000034683F00103DBB2002B01D000232FE0D1
:1014A000194B1B685A68FB799B0013441B68BB608F
:1014B000BB68DB68984703461A46FB791146184615
:1014C000FFF790FF034683F00103DBB2002B01D04E
:1014D000002315E00D4B1B68FB600521F868FFF742
:1014E00055FFF860FB68002B05D0FB689B78184619
:1014F00001F064FCF1E700BFBB685B68984701231B
:1015000018461037BD4680BDCC0A4020D00A402086
:1015100080B584B000AF03460A46FB711346BB7129
:10152000BA79FB7911461846FFF75CFF034683F052
:101530000103DBB2002B01D0002327E0154B1B6811
:10154000FB600521F868FFF721FFF860FB68002BBE
:1015500011D0FB689878FB68D978FB689B889BB2B0
:101560001A4601F0A1FA034683F00103DBB2002B17
:10157000E7D000230AE000BF074B1B685A68FB79DD
:101580009B0013441B681B68984703461846103796
:10159000BD4680BDD00A4020CC0A402080B500AFB7
:1015A00001F04CF900BF80BD80B582B000AF0F4B99
:1015B0001B78002B10D00023FB7106E0FB79184646
:1015C000FFF75CFFFB790133FB71094B1B681B685C
:1015D0001B79FA799A42F1D3044B00221A70054B19
:1015E00001221A8000BF0837BD4680BDC80A4020CE
:1015F000CC0A4020C00A402080B582B000AF144B16
:101600001B78002B1FD00023FB7115E0114B1B68CA
:101610005A68FB799B0013441B681B69002B08D098
:101620000C4B1B685A68FB799B0013441B681B69B1
:101630009847FB790133FB71064B1B681B681B79CC
:10164000FA799A42E2D300BF0837BD4680BD00BF99
:10165000C80A4020CC0A402080B500AF064BDB888A
:10166000022B01D0002304E00221044801F008FA13
:101670000123184680BD00BF04104020C00A40204E
:1016800080B500AF0B4BDB88022B01D000230EE0AE
:10169000084B9B88DBB2184601F0D0FB03469AB298
:1016A000054B1A800221044801F0EAF9012318468B
:1016B00080BD00BF04104020D40A402080B400AF99
:1016C0000C4BDB88002B01D000230DE0094B5B881D
:1016D000012B08D1084B1B8823F002039AB2064B5A
:1016E0001A80012300E000231846BD465DF8047B04
:1016F000704700BF04104020C00A402080B500AFF2
:101700000A4BDB88002B01D000230CE0074B5B88E1
:10171000002B07D1054B9B88DBB2184601F036FC45
:10172000034600E00023184680BD00BF041040209F
:1017300080B500AF264BDB88002B01D0002345E0AD
:10174000234B5B88012B02D0022B02D03DE000230B
:101750003CE001F02DF9034683F00103DBB2002BDE
:1017600030D11B4B9B88DBB2002B2DD1FFF71CFF28
:10177000174B9B881B0A9BB2DBB2013B032B1FD884
:1017800001A252F823F000BF99174000A3174000B0
:10179000AD174000B71740000D4B0E4A1A610123E8
:1017A00014E00B4B0C4A1A6101230FE0084B0B4A63
:1017B0001A6101230AE0064B094A1A61012305E078
:1017C00000BF02E000BF00E000BF0023184680BD5C
:1017D0000410402099324000C9324000F9324000E4
:1017E0001D33400080B500AF0D4BDB88002B01D0CE
:1017F000002312E00A4B5B88002B0DD1084B9B881D
:10180000DBB2184601F0F4FC054B9B88DBB21846AE
:1018100001F032FB034600E00023184680BD00BF04
:101820000410402080B500AF054B5B88DBB203F0AD
:101830007F03DBB2184601F0CFF800BF80BD00BFC8
:101840000410402080B400AF074BDB88002B01D090
:10185000002303E0044B054A1A6101231846BD46E4
:101860005DF8047B704700BF04104020251840003D
:1018700080B584B000AF0023FB71224B5B88DBB2E4
:10188000012B08D0022B0BD0002B0ED104211E48B7
:1018900001F0F6F80BE00823FB711C4BBB6006E07F
:1018A0001723FB711A4BBB6001E0002326E0FB7994
:1018B000002B22D00023FB730DE0FB7BFA7BB96881
:1018C0000A44127891B2134A5B0013440A465A80C4
:1018D000FB7B0133FB73FA7BFB799A42EDD3FB79F7
:1018E0000133DBB25B00DAB20A4B1A70094B1B788A
:1018F0009BB21946074801F0C3F801231846103778
:10190000BD4680BD04104020080240200C0240204B
:10191000180240203002402080B582B000AF804BDA
:101920005B88FB717E4B5B881B0A9BB2DBB2013B81
:101930000E2B00F2E28001A252F823F07919400048
:10194000B5194000E71A4000FB1A4000FB1A40009E
:101950002F1A4000451A4000FB1A4000FB1A4000B5
:10196000FB1A4000FB1A4000FB1A4000FB1A400023
:10197000FB1A4000C51A400001F01AF8034683F034
:101980000103DBB2002B0AD0664B9A68654B9B685B
:101990001B789BB21946104601F072F8B0E0614B1B
:1019A0001A68604B1B681B789BB21946104601F001
:1019B00067F8A5E000F0FCFF0346002B19D0594B57
:1019C0009B685B7CFA799A4201D30023A3E0554BD4
:1019D0001A69FB79DB0013441868524B1A69FB79CA
:1019E000DB0013441B685B889BB2194601F048F882
:1019F00018E04C4B1B685B7CFA799A4201D30023B8
:101A000089E0484B5A68FB79DB0013441868454B62
:101A10005A68FB79DB0013441B685B889BB219464C
:101A200001F02EF83E4B9B6802225A7068E03D4B55
:101A3000DA683C4BDB681B789BB21946104601F014
:101A40001FF85DE000F0B4FF034683F00103DBB252
:101A5000002B19D0334B9B685B7CFA799A4201D3F7
:101A6000002358E02F4B1A69FB79DB0013441868F8
:101A70002C4B1A69FB79DB0013441B685B889BB213
:101A8000194600F0FDFF18E0264B1B685B7CFA79D5
:101A90009A4201D300233EE0224B5A68FB79DB00D7
:101AA000134418681F4B5A68FB79DB0013441B680A
:101AB0005B889BB2194600F0E3FF194B9B68072235
:101AC0005A701DE0174B5B69002B01D1002322E007
:101AD000144B5A69134B5B695B889BB219461046DD
:101AE00000F0CEFF0CE0FFF7C3FE034683F00103D6
:101AF000DBB2002B03D000230DE000230BE000BF7E
:101B0000074BDA88064B9B899A4203D2044BDA884A
:101B1000034B9A81012318460837BD4680BD00BF9C
:101B200004104020F001402080B500AF064BDB8858
:101B3000012B01D0002304E00121044800F0A0FFA4
:101B40000123184680BD00BF04104020C80A402071
:101B500080B582B000AF384BDB88002B01D000236A
:101B600065E000F05DFF0346002B01D100235EE03D
:101B700000F01EFF0346002B09D02F4B5B88DBB221
:101B80002E4A9268527C93420BDD00234FE02A4B91
:101B90005B88DBB2294A1268527C934201DD002344
:101BA00045E0FFF701FD244B5B88DAB2244B1A7045
:101BB000234B1B78002B01D1012338E000F0F8FE05
:101BC0000346002B0CD01D4B1A691D4B1B78194680
:101BD0006FF060430B44DB0013441A4A13600BE0C0
:101BE000164B5A68164B1B7819466FF060430B442E
:101BF000DB001344134A13600023FB710FE0FB79F1
:101C000000211846FFF784FC034683F00103DBB292
:101C1000002B01D000230AE0FB790133FB71094B53
:101C20001B681B681B79FA799A42E8D3012318468E
:101C30000837BD4680BD00BF04104020F0014020A1
:101C4000C80A4020CC0A402080B582B000AF1E4BAD
:101C5000DB88012B01D0002332E01C4B1B78002BCA
:101C600001D100232CE0184B9B88FB71184B1B689B
:101C70001B681B79FA799A4201D3002320E0FB7993
:101C800000211846FFF7AEFB034683F00103DBB2E9
:101C9000002B01D0002313E00D4B1B685A68FB7921
:101CA0009B0013441B683B603B68DB689847034616
:101CB0001A46084B1A700121064800F0E1FE012384
:101CC00018460837BD4680BD04104020C80A402091
:101CD000CC0A4020C40A402080B582B000AF144B2B
:101CE000DB88002B01D000231EE0124B1B78002B59
:101CF00001D1002318E00E4B9B88FB710C4B5B88D5
:101D0000BB71FB791846FFF7B9FB034683F001036B
:101D1000DBB2002B01D0002306E0BA79FB79114633
:101D20001846FFF7F5FB034618460837BD4680BD49
:101D300004104020C80A402080B500AF4E4B1B78ED
:101D4000DBB25BB2002B3EDA4B4BDB88002B01D1C0
:101D500000238FE0484B1B7803F01F03002B14D1A6
:101D6000454B5B78062B08D0082B0AD0002B00D0FF
:101D70000BE0FFF771FC03467CE0FFF7CDFD034667
:101D800078E0FFF7D1FE034674E03B4B1B7803F08D
:101D90001F03012B08D1384B5B780A2B00D003E0DE
:101DA000FFF752FF034665E0334B1B7803F01F0338
:101DB000022B5ED1304B5B78002B00D059E0FFF74F
:101DC0005FFC034656E02C4B1B7803F01F03002BEF
:101DD0002BD1294B5B78013B082B25D801A252F867
:101DE00023F000BF111E4000291E4000191E4000B4
:101DF000291E4000091E4000291E4000291E4000E7
:101E0000291E4000211E4000FFF71CFD034631E063
:101E1000FFF754FC03462DE0FFF78AFC034629E058
:101E2000FFF796FE034625E000BF134B1B7803F037
:101E30001F03012B08D1104B5B780B2B00D003E064
:101E4000FFF74AFF034615E00B4B1B7803F01F0317
:101E5000022B0ED1084B5B78012B02D0032B04D050
:101E600007E0FFF74BFC034604E0FFF7BBFC03462B
:101E700000E00023184680BD0410402080B582B0E9
:101E800000AF204B1B78002B01D1002336E01E4B06
:101E90009B88FB711D4B1B681B681B79FA799A4262
:101EA00001D300232AE0FB7900211846FFF79AFAB4
:101EB000034683F00103DBB2002B01D000231DE0B9
:101EC000124B1B685A68FB799B0013441B683B60EC
:101ED0003B68DB68984703461A46FB79114618466B
:101EE000FFF780FA034683F00103DBB2002B01D039
:101EF000002303E03B689B68984703461846083771
:101F0000BD4680BDC80A402004104020CC0A4020B5
:101F100080B582B000AF1E4B1B78002B01D100238F
:101F200032E01C4B9B88FB710023FB7124E01A4BB1
:101F30001B685A68FB799B0013441B683B603B6835
:101F4000DB68984703461A46FB7911461846FFF7A7
:101F500049FA034683F00103DBB2002B01D00023D2
:101F600012E03B689B6898470346002B01D0012391
:101F70000AE0FB790133FB71074B1B681B681B7977
:101F8000FA799A42D3D3002318460837BD4680BD5C
:101F9000C80A402004104020CC0A402080B500AF81
:101FA0001F4B00229A811E4B00221A611C4B0022FB
:101FB0005A611B4B1B78DBB25BB2002B05DA184B66
:101FC000DB88002B01D1002327E0154B1B7803F0A1
:101FD0006003002B06D1FFF7AFFE0346002B01D0B4
:101FE00001231AE00E4B1B7803F01F03012B06D1CF
:101FF000FFF744FF0346002B01D001230DE0084BFF
:102000001B7803F01F03022B06D1FFF781FF034665
:10201000002B01D0012300E00023184680BD00BF43
:102020000410402080B483B000AF78607B68DB6C24
:1020300018460C37BD465DF8047B704780B483B00A
:1020400000AF78607B689B6C18460C37BD465DF826
:10205000047B704780B584B000AF786039607868E1
:10206000FFF7E0FFF8607868FFF7E8FF0246FB68DB
:102070001340FB60FB68002B3CD00023BB6034E0C6
:102080001E4ABB681B0113441A683B689A4226D15A
:102090001A4ABB681B01134404331A68FB681340D7
:1020A000002B1CD0154ABB681B0113440C331B6862
:1020B0001249BA6812010A4410681049BA6812013C
:1020C0000A4404321268114698470C4ABB681B0147
:1020D000134404331B68DB43FA681340FB60BB689E
:1020E0000133BB60BB68062B03D8FB68002BC7D14C
:1020F00000E000BF00BF1037BD4680BDD80A4020B9
:1021000080B500AF0A210248FFF7A4FF00BF80BDE1
:10211000000E0E4080B500AF0B210248FFF79AFF7A
:1021200000BF80BD00100E4080B500AF10210248F6
:10213000FFF790FF00BF80BD00140E4080B483B055
:1021400000AF78607B68013B032B1AD801A252F8DC
:1021500023F000BF652140006B2140007321400047
:102160007B21400000237B600EE04FF480737B6096
:102170000AE04FF440737B6006E04FF400737B602D
:1021800002E000237B6000BF0A490A4B1B6B23F46B
:1021900040727B6813430B6300BF064B9B6E03F0DA
:1021A0000803002BF9D000BF0C37BD465DF8047B57
:1021B000704700BF00060E4080B485B000AF786065
:1021C0001D491D4B1B6B23F070027B6813430B638F
:1021D0004FF40063FB6007E0FB68002B01D1012393
:1021E00023E0FB68013BFB60134B9B6E03F008038D
:1021F000002BF1D0104A104B1B6B23F0030343F06C
:10220000020313634FF40063FB6007E0FB68002BDD
:1022100001D1012309E0FB68013BFB60064B9B6E8B
:1022200003F00803002BF1D0002318461437BD46F5
:102230005DF8047B704700BF00060E4080B483B099
:1022400000AF78607B68012B05D10749064B9A687F
:10225000064B13438B60044B054A1A6000BF0C37D2
:10226000BD465DF8047B704710180E40000010A5B5
:10227000080000A580B400AF094B5B6903F0800340
:10228000002B07D0074B9B6E03F08003002B01D07F
:10229000012300E000231846BD465DF8047B70472B
:1022A00010180E4000060E4080B483B000AF786076
:1022B0001549154B1A6A154B13430B6200BF124B9D
:1022C0009B6E03F40033002BF9D00F490E4B1A6AB2
:1022D0000F4B13407A68134343F45C130B6200BF47
:1022E000094B9B6E03F40033002BF9D00649064BD3
:1022F0001A6A084B134043F45C130B6200BF0C379F
:10230000BD465DF8047B704700060E4008003700AC
:102310008FFFC8FFFFFFC8FE80B483B000AF7860B6
:1023200039607B68002B08D01349134B1B6A134A92
:102330001A40134B13430B6218E00F490E4B1A6AF5
:10234000104B13403A68120292B21A430E4B1343D9
:102350000B6200BF084B9B6E03F00103002BF9D00A
:102360000549054B1A6A094B13430B6200BF0C3732
:10237000BD465DF8047B704700060E40FCFFC8FEBA
:1023800002003701FCFFC8FF0100370000003701E1
:1023900080B400AF044B9B6E03F480331846BD46F7
:1023A0005DF8047B704700BF00060E4080B400AFAC
:1023B000044B4FF000529A6200BFBD465DF8047BAB
:1023C000704700BF00060E4080B400AF044B9B6E08
:1023D00003F002031846BD465DF8047B704700BF5A
:1023E00000060E4080B400AF074B4FF44412DA6190
:1023F00000BF054B9B6E03F04003002BF9D000BFDC
:10240000BD465DF8047B704700060E4080B400AF07
:10241000044B9B6E03F040031846BD465DF8047BF9
:10242000704700BF00060E4080B485B000AF7860F2
:102430000B4A7B6803F07F03C2F80C31084BD3F8DA
:102440000C3143F01023FB60054AFB68C2F80C31E5
:10245000002318461437BD465DF8047B704700BF63
:1024600000060E4080B483B000AF7860064A7B68F7
:102470001B0203F4706343F00103936300BF0C3746
:10248000BD465DF8047B704700060E4080B400AF87
:10249000034B20221A6000BFBD465DF8047B7047E5
:1024A00000060E4080B483B000AF78607B68C3F351
:1024B00012037B600549054B1A6F7B6813430B675A
:1024C00000BF0C37BD465DF8047B704700060E4028
:1024D00080B400AF094B1B78DBB2002B14BF012383
:1024E0000023DBB283F00103DBB203F00103DBB2B4
:1024F0001846BD465DF8047B704700BF480B40207E
:1025000080B483B000AF0346FB71094997F90730E7
:102510005B09FA7902F01F02012000FA02F241F889
:10252000232000BF0C37BD465DF8047B704700BF19
:1025300000E100E080B483B000AF03463960FB7176
:1025400097F90730002B0BDA0D49FB7903F00F03E5
:10255000043B3A68D2B25201D2B20B441A7609E077
:10256000084997F907303A68D2B25201D2B20B4407
:1025700083F8002300BF0C37BD465DF8047B70472D
:1025800000ED00E000E100E080B483B000AFEFF3C5
:1025900010837B607B68002B0CBF01230023DBB220
:1025A0003B6072B6BFF35F8F044B00221A703B682A
:1025B00018460C37BD465DF8047B7047600240202A
:1025C00080B483B000AF78607B68002B14BF012318
:1025D0000023DBB218460C37BD465DF8047B70471C
:1025E00080B582B000AF78607868FFF7E9FF0346F6
:1025F000002B05D0044B01221A70BFF35F8F62B627
:1026000000BF0837BD4680BD6002402080B483B063
:1026100000AF0346FB7100BF0C37BD465DF8047B7D
:10262000704700BF80B483B000AF0346FB7100BFAA
:102630000C37BD465DF8047B704700BF80B483B0A3
:1026400000AF7860396000BF0C37BD465DF8047B91
:10265000704700BF80B483B000AF7860396000BFBE
:102660000C37BD465DF8047B704700BF80B483B073
:1026700000AF7860396000BF0C37BD465DF8047B61
:10268000704700BF80B582B000AF0346FB71FB7995
:1026900083F00103DBB2002B06D00D4B1B78002B1F
:1026A00002D00220FFF7BEFFFB79002B09D0084BB8
:1026B0001B7883F00103DBB2002B02D00220FFF76E
:1026C000A5FF034AFB79137000BF0837BD4680BDE4
:1026D000490B402080B500AFFFF7FAFE034683F0B8
:1026E0000103DBB2002B0CD0524B5B6803F00103FB
:1026F000002B06D172B6BFF35F8F4F4B00221A70CA
:1027000097E04C4B5B6803F00403002B0DD0494B62
:1027100004229A60474BD3F8043803F440531B0B50
:10272000002B7FD1FEF768FF7CE0424B5B6803F033
:102730000203002B05D03F4B02229A60FEF75CFF9C
:1027400075E001F059F90346002B6DD101F056FBFD
:102750000346002B6AD1374B5B6803F00803002B5C
:102760000BD0344B08229A6001F0D0F9FEF71CFF21
:1027700000F044FE00F082FE59E02E4B1B6903F08E
:102780000103002B1FD02B4B5B6803F00103002BD0
:1027900019D0284A274BD3F8003823F48043C2F8D5
:1027A0000038244B01225A61224B10229A61214A9F
:1027B000204BD3F8003843F48043C2F8003800209F
:1027C000FFF760FF33E01B4B1B6903F01003002B86
:1027D0002ED0184B5B6803F01003002B28D0154A4D
:1027E000144BD3F8003823F48043C2F8003805E0D6
:1027F000104B5B6803F00103002B07D10D4BD3F89E
:10280000043803F48043002BF2D000E000BF094BF2
:1028100010225A61074B01229A610120FFF732FF13
:1028200000BF04E000BF02E000BF00E000BF00BF47
:1028300000BF80BD008003406002402080B582B0B0
:1028400000AFFFF7A1FE78602220FFF7EDFDFDF756
:1028500089FF05212220FFF76DFE2220FFF750FEA1
:102860004FF48020FFF71EFE274B4FF00072C3F895
:102870000028254A244BD3F8003843F40043C2F81B
:102880000038214A204B1B6823F4805313601E4AF2
:102890001D4B1B6823F4406313601B4A1A4BD3F88B
:1028A000003823F48043C2F8003800BF164BD3F839
:1028B000043803F48043002BF8D001F0F9F8124AF1
:1028C000114BD3F8003843F48043C2F800380F4B63
:1028D0001B7883F00103DBB2002B09D00B4B0122E4
:1028E0001A700B4B00221A700320FFF78FFE02E0D4
:1028F0000020FFF7C7FE00F00DF87868FFF770FEC4
:1029000000BF0837BD4680BD008003404A0B402011
:10291000490B402080B582B000AFFFF735FE7860EC
:102920000120FFF7AFFE214A204BD3F8003823F4F3
:102930008043C2F8003800BF1C4BD3F8043803F4BE
:102940008043002BF8D0194A184B1B6823F480737E
:102950001360164B08229A61144B01229A61134BA3
:1029600010229A61114B04229A61104B02229A6143
:102970000E4B08229A600D4B04229A600B4B0222E8
:102980009A600A4B0122DA60084B10229A60074ACB
:10299000064BD3F8003843F48043C2F80038786817
:1029A000FFF71EFE00BF0837BD4680BD0080034014
:1029B00080B400AF074BD3F8043803F440531B0B2B
:1029C000002B14BF01230023DBB21846BD465DF87F
:1029D000047B70470080034080B483B000AF03469F
:1029E000FB710E4A0D4B1B6823F0800313600B49EB
:1029F0000A4B1B6823F07F02FB7903F07F0313432C
:102A00000B60064A054B1B6843F08003136000BF50
:102A10000C37BD465DF8047B704700BF0080034063
:102A200080B400AF054B1B68DBB203F07F03DBB261
:102A30001846BD465DF8047B704700BF0080034028
:102A400080B400AF054B1A6A43F6F8731340DB08F5
:102A50009BB21846BD465DF8047B7047008003407A
:102A600080B400AF054B1B6A9BB2C3F30D039BB24E
:102A70001846BD465DF8047B704700BF00800340E8
:102A800080B483B000AF78600B467B80054A7B68DA
:102A90009360044A7B88938100BF0C37BD465DF884
:102AA000047B70470410402090B589B002AF034604
:102AB000FB710B46BB711346BB80FB7903F08003AF
:102AC000002B14BF01230023BB74FB7903F00F0319
:102AD000FB71FB79032B01D900236BE1AC4BDA6965
:102AE000FB79012101FA03F31340002B01D00023ED
:102AF00060E1BB7903F00303022B09D0032B04D060
:102B0000012B08D102237B7507E001237B7504E0CC
:102B100002237B7501E000234CE17B7D022B06D074
:102B2000032B07D0012B08D100233B7507E00123BD
:102B30003B7504E002233B7501E000233AE1FB7999
:102B40009A00944B1344FA799100924A0A4412680D
:102B500091491140BA79D20202F4C050BA7C002ADD
:102B600002D04FF4807200E000221043BA88082A95
:102B700003D9BA88B2F5806F06DABA88082A03D971
:102B8000BA885200012A17D0BA88082A03D9BA880D
:102B9000B2F5806F08DABA88082A03D9BA885200D9
:102BA000013A03E00F2201E040F2FF72B2FA82F232
:102BB000C2F11C02120101E06FF03F0210433A7DA6
:102BC000920002F00C02104341F67C1202400A43CC
:102BD0001A60FB79012202FA03F3FB820323FB74E0
:102BE0002AE06B4BDA69FB7C012101FA03F3134005
:102BF000002B1ED0FB7C012202FA03F39AB2FB8A5F
:102C000013439BB2FB826249614BDA69FB7C012072
:102C100000FA03F3DB431340CB61FB7C9A005D4B6E
:102C20001344FA7C91005B4A0A44126822F00202C3
:102C30001A60FB7C013BFB74FA7CFB799A42D0D88A
:102C4000FB79FB74B1E0FA8AFB7C42FA03F303F0F0
:102C50000103002B00F0A680FB7C5A1E13465B008C
:102C60001344DB004D4A1344FB60FB681B7DC3F338
:102C70000003DBB2002B14BF01230023FB72FA68B0
:102C8000137D6FF300031375FB7C9A00414B1344D3
:102C9000FA7C91003F4A0A44126842F002021A602C
:102CA0003B493B4BDA69FB7C012000FA03F31343F9
:102CB000CB61FB7C9A003A4B13441B6803F48023DE
:102CC000002B1BD1FB681B68002B01D1002371E096
:102CD000FB7C9A002F4B13441B6803F48073002B7A
:102CE00003D0FB7C63F07F03FB74FB681B68FA680E
:102CF000D168FA7C0120984700235BE0FB7C9A00B6
:102D0000244B1344FA7C9100224A0A44126842F48C
:102D100000721A60FB7A002B44D0FB68DA68FB680B
:102D20001B69D21AFB68DA60FB7C9A00194B1344CA
:102D30001B6803F48073002B04D0FB7C63F07F03DB
:102D4000D8B200E0F87CFB681B7DC3F34003DBB224
:102D5000002B14BF01230023D9B2FB685A68FB681B
:102D6000DB68D418FB689A68FB68DB68D21AFB68DA
:102D70001B6800931346224600F098F90346FB7245
:102D8000FB7A83F00103DBB2002B0BD0002311E0B0
:102D9000008003400081034083E6FFFF500B40208A
:102DA00030810340FB7C0133FB74FB7C032B7FF6FB
:102DB0004AAF012318461C37BD4690BD80B584B08C
:102DC00000AF0346FB71FB7903F00F03FB73FB7B42
:102DD000032B28D81649164BDA69FB7B012000FA31
:102DE00003F3DB431340CB61FB7B9A00114B13448D
:102DF000FA7B91000F4A0A44126822F002021A601C
:102E0000FB79184600F0A2FEFB7B5A1E0A491346C6
:102E10005B001344DB000B4403F1100213796FF3E2
:102E20008203137100E000BF1037BD4680BD00BFB4
:102E30000080034000810340500B402080B485B0E7
:102E400000AF0346FB71FB7903F00F03FB73FB7BC1
:102E50009A00084B13441B6803F40023002B14BF93
:102E600001230023DBB218461437BD465DF8047B0E
:102E7000704700BFC081034080B586B000AF0346F5
:102E8000FB71FB7903F00F03FB75FB7D5A1E1346A4
:102E90005B001344DB00364A13443B61FB7D032B8C
:102EA00001D9002360E0FB7D9A00324B13441B687C
:102EB00003F40023002B06D13B691B7D03F00403C0
:102EC000DBB2002B01D001234EE03B691B7D03F0F8
:102ED0000103DBB2002B01D0002345E0FFF754FBD8
:102EE000F860FB795BB2002B21DAFB7D9A00224B64
:102EF00013441B6803F440531B0B002B17D03A6993
:102F0000137D43F004031375FB7D9A001B4B1344A0
:102F10004FF480521A601A4AFB7D4FF4805101FA37
:102F200003F39361F868FFF75BFB01231CE0FB7D73
:102F30009A00144B1344FA7D9100124A0A44126815
:102F400022F400721A60FB7D9A000F4B134440225A
:102F50001A60FB7D9A00094B13444FF400221A605B
:102F6000F868FFF73DFB012318461837BD4680BDC2
:102F7000500B4020C081034030810340F08103406A
:102F800000800340008103406081034080B584B02D
:102F900000AF0346FB71FB7903F00F03BB73BB7BF0
:102FA0005A1E13465B001344DB00384A1344BB60CF
:102FB0000023FB73BB7B032B01D9002362E0BB68BA
:102FC0001B7D03F00403DBB2002B14D0BA68137D21
:102FD0006FF382031375BB7B9A002D4B13444FF4A0
:102FE00080521A602B4ABB7B4FF4805101FA03F3E5
:102FF00053610123FB73BB7B9A00274B13441B686F
:1030000003F40023002B2AD0BB7B9A00234B1344EC
:103010001B6803F04003002B0CD0BB7B9A00204BB5
:10302000134440221A60BB7B9A001E4B13444FF49A
:1030300080221A60BB7B9A00154B13444FF4002288
:103040001A60BB7B9A00184B1344BA7B9100164A56
:103050000A44126842F400721A600123FB73FB7B7E
:10306000002B0ED0BB681B7D03F00103DBB2002BED
:1030700007D0BA68137D6FF300031375BB681B6834
:103080009847012318461037BD4680BD500B40209D
:103090002082034000800340C08103403081034010
:1030A00060810340F08103400081034080B588B017
:1030B00000AFBA607B600346FB730B46BB73FB7BC0
:1030C00003F00F039A00464B13441B6803F480730C
:1030D000002B14BF01230023FB77FB7B03F00F03BE
:1030E000FB73FB7B032B01D9002375E0FB7B5A1E8E
:1030F00013465B001344DB003A4A1344BB613A4B6E
:10310000DA69FB7B012101FA03F31340002B0FD096
:10311000FB7B9A00354B13441B6803F40023002B00
:1031200006D1BB691B7D03F00403DBB2002B01D089
:10313000002351E0FFF728FA7861BB691B7D03F09B
:103140000103DBB2002B04D07869FFF749FA0023B2
:1031500042E0BA69137D43F0010313757869FFF704
:103160003FFABB69BA685A60BB697A689A60BB6902
:103170000022DA60BB6900221A61BB69BA6A1A6070
:10318000BB7B002B02D17B68002B01D1012300E027
:103190000023DBB203F00103D9B2BA69137D61F3F6
:1031A00041031375BB68002B11D07B68002B0ED038
:1031B000FB7F83F00103DBB2002B04D07968B86891
:1031C000FFF748FA03E07968B868FFF737FAFB7B46
:1031D000184600F00DFD012318462037BD4680BD7E
:1031E00000810340500B402000800340C081034019
:1031F00080B584B000AF0346FB71FB7903F00F0389
:10320000FB73204AFB7B013B4FF0007101FA03F393
:103210005361FB7B1A011C4B134400229A60194A2C
:10322000FB7B4FF4805101FA03F35361BFF34F8FDF
:10323000BFF36F8FFB795BB2002B1BDA10E0FB7BD7
:103240009A00124B13444FF400521A6000BFFB7BEC
:103250009A000F4B13441B6803F40053002BF6D164
:10326000FB7B9A000B4B13441B6803F440531B0B6E
:10327000002BE4D1FB79184600F068FC00BF103742
:10328000BD4680BD0080034000830340F0810340C1
:10329000C08103403081034080B400AF094A094B2C
:1032A0001B6823F4406343F400631360054A054B35
:1032B0001B6843F40053136000BFBD465DF8047BF8
:1032C000704700BF0080034080B400AF094A094B3B
:1032D0001B6823F4406343F400631360054A054B05
:1032E0001B6843F48043136000BFBD465DF8047B58
:1032F000704700BF0080034080B400AF064A064B11
:103300001B6823F4406343F40063136000BFBD46B1
:103310005DF8047B704700BF00800340F0B593B0B8
:1033200000AF304B1C463E1D04F1300E354623469F
:10333000186859689A68DB680FC5103410367445F0
:10334000F4D1334622461068186012791A71264A61
:10335000254BDB6923F00103D3612449234B1B6810
:10336000234A1A4041F2301313430B601F4A1F4B8C
:103370001B6843F0020313601B4A1B4BDB6943F0DD
:103380000103D361184A184B1B6823F4406343F4CC
:1033900000631360144A144B1B6843F4004313602A
:1033A000144B3B643B1DFB63002387F847300CE064
:1033B0003B6C5A1C3A64FA6B511CF96312781A7010
:1033C00097F84730013387F8473097F84730342B68
:1033D000EED9094B4FF480421A6000BF4C37BD460E
:1033E000F0BD00BFAC5240000080034000810340AC
:1033F00083E6FFFF000010A02082034080B582B06A
:1034000000AF1A4A194B1B6823F07F031360174A59
:10341000164B1B6843F0800313601549144B1A6860
:10342000144B134043F030030B60114A104B1B68E0
:1034300043F0020313600D4A0C4BDB6943F00103B8
:10344000D361FFF7A1F878600B4B04221A600A4B96
:1034500002221A60054B4FF480529A617868FFF798
:10346000BFF800BF0837BD4680BD00BF00800340E5
:103470000081034083E6FFFFF081034080B582B006
:1034800000AFFFF781F878600C4B01221A60786872
:10349000FFF7A6F80A4B02221A600A4B00221A61B3
:1034A000084B00225A61074B00229A81064B0022EA
:1034B0001A7000BF0837BD4680BD00BF20820340A0
:1034C00060810340041040204B0B402080B584B045
:1034D00000AF3B4B1B78002B03D000F07FFAFFF7C7
:1034E000CDFF384B1A68384B13401B0D082B05D005
:1034F00000F024FA354B04221A605DE0344BBB60C7
:103500000023FB730AE0FB7B324A1A44BB68591C58
:10351000B9601B781370FB7B0133FB73FB7B072BBC
:10352000F1D92C4B5A882B4B5A802A4B9A88294B1D
:103530009A80284BDA88274BDA80FEF72FFD034666
:1035400083F00103DBB2002B05D000F0F7F91F4B2D
:1035500004221A6030E01D4B04221A601D4B1B78B8
:10356000DBB25BB2002B0BDA1B4B00221A801B4B29
:1035700000221A80124B02221A7000F033F81BE06E
:10358000144BDB88002B02D100F0EAF914E0124B57
:1035900000221A80114B00221A80094B01221A7056
:1035A0000A4B10221A60FEF7EFFF78600C4B1022D6
:1035B0001A607868FFF714F81037BD4680BD00BF69
:1035C0004B0B4020308103400000F07F60810340BE
:1035D000000010A0041040204C0B40204E0B402057
:1035E000F081034080B584B000AFFEF7CDFF3860B6
:1035F000464B01221A603868FEF7F2FF444B1B78F5
:10360000032B04D100F0EAF9FFF738FF7BE0414BD0
:103610009A89414B1B88D31AFB81FB89002B27D148
:103620003E4B1A883C4B1B8813449AB23B4B1A8082
:10363000384BDA88394B1B889A4203D0384B1B78B9
:10364000002B02D000F0AEF95DE0324B5B69002B3D
:103650000ED0304B5B699847034683F00103DBB221
:10366000002B05D12C4B00221A802A4B9B89FB8111
:10367000FB893F2B05D94023FB81294B00221A707F
:1036800002E0274B01221A70264BBB60214B9B683E
:10369000214A128813447B60FEF776FF3860224B84
:1036A0001B6803F00203002B06D03868FEF798FF72
:1036B000174B04221A7026E000237B730AE0BB68D4
:1036C0005A1CBA607A68511C796012781A707B7B38
:1036D00001337B737B7B9BB2FA899A42EFD80E4B06
:1036E0001A88FB8913449AB20B4B1A80BFF34F8F91
:1036F000BFF36F8F0D4B01221A600D4B01221A6030
:103700003868FEF76DFF1037BD4680BD208203404C
:103710004B0B4020041040204E0B40204C0B40200F
:10372000980B4020000010A03081034060810340CE
:10373000F081034080B584B000AF594B1B78012B5A
:103740000FD0574B1B78022B03D0554B1B78042B03
:1037500002D100F043F901E000F0F0F8FFF78EFE2F
:103760009BE0504B1A68504B13401B0DBB814F4BD5
:103770009B891A464E4B1B881946BB890B449A42BB
:1037800005DA4A4B9A894A4B1B88D31ABB81494BAD
:10379000BB60464B9B68464A128813447B600023FB
:1037A000FB730AE07B685A1C7A60BA68511CB960E6
:1037B00012781A70FB7B0133FB73FB7B9BB2BA89D7
:1037C0009A42EFD83A4B1A88BB8913449AB2384BC5
:1037D0001A80BB89402B0AD1344BDB881A46364B02
:1037E0001B881946324B1B880B449A421CDC304B19
:1037F0001A882E4B9A812D4B5B69002B0ED02B4BD8
:103800005B699847034683F00103DBB2002B05D0C8
:1038100000F094F8294B02221A603EE0274B022266
:103820001A6000F09DF838E0204B9A89204B1B88E5
:103830009A4223D11D4B5B69002B05D100F07EF825
:103840001E4B02221A6028E0184B5B69984703461A
:1038500083F00103DBB2002B05D000F06FF8174BAB
:1038600002221A6019E0144B1A88114B1B8813446A
:103870009AB2114B1A800E4B00221A800F4B022273
:103880001A600E4B10221A60FEF77EFE38600C4B59
:1038900010221A603868FEF7A3FE1037BD4680BDBF
:1038A0004B0B4020308103400000F07F041040208B
:1038B0004E0B4020000010A04C0B402060810340C4
:1038C000F081034080B500AF0B4B1B6803F002038F
:1038D000002B0FD1094B1B78012B02D100F040F8CF
:1038E00009E0064B1B78042B05D1054B4FF4002251
:1038F0001A6000E000BF80BD308103404B0B4020C8
:10390000F081034080B400AF094B1B6803F0010352
:10391000002B08D1074B1B78032B05D1064B4FF426
:1039200000221A6000E000BFBD465DF8047B7047CE
:10393000308103404B0B4020F081034080B400AF46
:10394000054B05221A70054B4FF400221A6000BF88
:10395000BD465DF8047B70474B0B4020F08103406F
:1039600080B582B000AF0C4B03221A70FEF70CFE3C
:1039700078600A4B01221A60094B01221A60074B3A
:1039800008221A60064B08221A607868FEF728FEA3
:1039900000BF0837BD4680BD4B0B4020608103400F
:1039A000F081034080B582B000AF094B04221A7049
:1039B000FEF7EAFD7860074B10221A60064B1022D2
:1039C0001A607868FEF70CFE00BF0837BD4680BD60
:1039D0004B0B402060810340F081034080B500AF75
:1039E000044B1B69002B02D0024B1B69984700BF98
:1039F00080BD00BF0410402080B500AF274B5B683E
:103A000003F48053002B01D1002344E0244B102207
:103A10001A60234B08221A60224B1B6803F0040330
:103A2000002B03D0FFF752FD012334E01D4B1B6830
:103A300003F00103002B09D01B4B1B6803F00103AB
:103A4000002B03D0FFF7CEFD012324E0154B1B68AC
:103A500003F00203002B03D0FFF76CFE01231AE0F2
:103A6000104B1B6803F00803002B06D00F4B0822F5
:103A70001A60FFF747FF01230DE00A4B1B6803F0B4
:103A80001003002B06D0094B10221A60FFF71AFF13
:103A9000012300E00023184680BD00BF00800340E2
:103AA0002082034030810340C08103406081034095
:103AB00080B483B000AF0023FB711CE0FA79124997
:103AC00013465B001344DB000B4403F1100213792F
:103AD0006FF300031371FA790B4913465B0013442B
:103AE000DB000B4403F1100213796FF382031371AF
:103AF000FB790133FB71FB79022BDFD900BF0C3757
:103B0000BD465DF8047B7047500B402080B582B005
:103B100000AF0023FB7110E0FA7913465B001344F9
:103B2000DB00094A9818FB790133DBB21A46012100
:103B300000F028F8FB790133FB71FB79022BEBD9FC
:103B400000BF0837BD4680BD500B402080B582B015
:103B500000AF0346FB71FB7903F00F03FB71FB79A8
:103B60005A1E13465B001344DB00054A1344FA79DE
:103B70000121184600F006F800BF0837BD4680BD99
:103B8000500B402080B582B000AF78600B46FB70D0
:103B90001346BB707B681B7D03F00103DBB2002B77
:103BA0001DD07A68137D6FF3000313757B681B6863
:103BB000002B16D0BB789A000C4B13441B6803F4FF
:103BC0008073002B03D0BB7863F07F03BB707B68EE
:103BD0001B68F8787A689168BA78984702E000BF65
:103BE00000E000BF0837BD4680BD00BF0081034034
:103BF00080B586B000AF0346FB7100237B61FB7983
:103C00005A1E13465B001344DB00744A1344FB60E6
:103C1000FB681B7D03F00103DBB2002B00F0D980B1
:103C2000FB68DA68FB689B689A4200F09080FB684A
:103C30009A68FB68DB68D31A3B613B69B3F5803F48
:103C400005D94FF480333B6100237B6102E03B697F
:103C50001B047B61FB799A00614B13441B6803F4DE
:103C60008073002B1AD0FB799A005D4B13441B68BC
:103C700003F070031B09082202FA03F3013B1A4602
:103C80003B691340002B26D07B6943F008037B611E
:103C9000FA68137D6FF3410313751CE0FB799A00FA
:103CA0004F4B13441B6803F4C053DB0A012B0ED1A6
:103CB000FB799A004A4B13441B6803F070031B09FD
:103CC000082202FA03F31A463B699A4203D37B693E
:103CD00043F014037B61FB791A01424B1344FA68E9
:103CE0005168FA68D2680A445A607B6943F021033C
:103CF0007B61FEF749FCB860FB791A01394B13442C
:103D0000DB6803F01003002B1AD1FB791A01354B45
:103D100013447A699A60FB68DA683B691A44FB6865
:103D2000DA60FB683A691A612F4AFB79013B4FF070
:103D3000007101FA03F39361B868FEF751FC49E0A2
:103D4000B868FEF74DFCFB68DA68FB689A60FB799F
:103D50009A00234B13441B6803F48073002B29D073
:103D6000FB681B7D03F00203DBB2002B2AD0FB793A
:103D70009A001E4B134401221A60FB799A001C4BD7
:103D800013441B6803F48033002B05D0FB799A00A1
:103D9000184B134401221A60FB799A00164B134406
:103DA00001221A60104AFB794FF4805101FA03F3A3
:103DB00093610FE0FB685A68FB689B6819461046E0
:103DC000FEF754FCFB791A460021F868FFF7DAFE8B
:103DD00000E000BF1837BD4680BD00BF500B40203B
:103DE0000081034000830340008003406081034062
:103DF0003081034090810340F081034080B584B05E
:103E000000AF0123FB73C9E0FB7B5A1E13465B0026
:103E10001344DB00664A1344BB60664B1A69FB7BA4
:103E2000013B4FF0007101FA03F31340002B39D02E
:103E3000604B5A68FB7B013B4FF0007101FA03F3C2
:103E40001340002B2ED0FB7B1A015B4B1344DB6825
:103E500003F00103002B01D00123A4E0554AFB7BB2
:103E6000013B4FF0007101FA03F35361FB7B1A0130
:103E7000514B1344DA68514B13401B0C7B607B6839
:103E8000002B09D0BB68DA687B68D21ABB68DA609D
:103E9000BB68DA68BB689A60FB7B1846FFF7A8FE30
:103EA000012380E0434B1A69FB7B4FF4805101FAF8
:103EB00003F31340002B6ED0FB7B9A00404B13445E
:103EC0001B6803F00103002B23D0FB7B9A003D4BC2
:103ED00013441B6803F00103002B1AD0FB7B9A00EC
:103EE000394B134401221A60FB7B9A00374B134471
:103EF00001221A60FB7B9A00334B13444FF480423B
:103F00001A60FB7B1A460021B868FFF73BFE0123CD
:103F100049E0FB7B9A002A4B13441B6803F480534F
:103F2000002B38D0FB7B9A00264B13441B6803F40C
:103F300040531B0B002B2ED1FB7B9A00224B1344CA
:103F40004FF480521A601B4AFB7B4FF4805101FAF8
:103F500003F35361BA68137D6FF382031375FB7B20
:103F60009A001B4B1344FA7B9100194A0A441268C9
:103F700022F400721A60FB7B9A00164B13444FF434
:103F800000221A60FB7B9A00124B13444FF48022EC
:103F90001A60012307E0FB7B0133FB73FB7B032BE0
:103FA0007FF632AF002318461037BD4680BD00BFF4
:103FB000500B402000800340008303400000FFFFBF
:103FC000C081034030810340208203406081034070
:103FD00000810340F081034080B483B000AFEFF371
:103FE00010837B607B68002B0CBF01230023DBB2B6
:103FF0003B6072B6BFF35F8F044B00221A703B68C0
:1040000018460C37BD465DF8047B704760024020BF
:1040100080B483B000AF78607B68002B14BF0123AD
:104020000023DBB218460C37BD465DF8047B7047B1
:1040300080B582B000AF78607868FFF7E9FF03468B
:10404000002B05D0044B01221A70BFF35F8F62B6BC
:1040500000BF0837BD4680BD6002402080B584B0F7
:1040600000AFF860B9607A607B681B0203F470628D
:10407000BB68134343F080631946F86801F050F9B8
:10408000002318461037BD4680BD00BF80B586B0FE
:1040900000AFF860B9607A60BB680E2B02D0BB68D5
:1040A0000F2B02D14FF0FF3314E0FFF795FF78613B
:1040B0007B681A02094B1340BA68D2B2134343F02B
:1040C000B4431946F86801F023F938617869FFF7BD
:1040D000AFFF3B6918461837BD4680BD00FFFF00A3
:1040E00080B485B000AF78603960104A3B68B2FB9D
:1040F000F3F3FB60FA6813461B039B1ABB607A68F4
:10410000FB689A4203D37A68BB689A4202D94FF699
:10411000FF7305E07A68FB68B2FBF3F3C3F30B03AC
:1041200018461437BD465DF8047B70470020A10790
:1041300080B485B000AFF860B96011461A460B46EE
:10414000FB801346BB80FB88C3F30B02BB681A439A
:10415000BB881B041946054B0B401A43FB685A6089
:1041600000BF1437BD465DF8047B70470000FF0FA9
:1041700080B483B000AF78607B68064A934202D176
:104180007B68054A1A6000BF0C37BD465DF8047BAA
:10419000704700BF50180E40010000A580B483B0E6
:1041A00000AF786039607B685B68C3F30B03DA01AA
:1041B0003B68B2FBF3F3044A02FB03F318460C37E7
:1041C000BD465DF8047B704740420F0080B487B065
:1041D00000AFF860B9607A603B60124B7B61BB68EE
:1041E000A3F580035B0A7B82BB689BB2C3F3080321
:1041F0003B82FB68002B02D0FB687A691A607B68FF
:10420000002B02D07B687A8A1A803B68002B02D090
:104210003B683A8A1A8000BF1C37BD465DF8047BB4
:10422000704700BF000C0E4080B582B000AF7860D0
:1042300039603A6879680448FFF710FF0023184690
:104240000837BD4680BD00BF000C0E4080B584B06D
:1042500000AF786007F10A0207F10C0000237968CB
:10426000FFF7B4FFFB687A8911211846FFF70EFFAC
:104270000346002B01D0102300E00023184610371E
:10428000BD4680BD80B584B002AF786039603B68C0
:10429000802B01D980233B603B6800937B6815220B
:1042A0001421064801F02CF80346002B01D01023FE
:1042B00000E0002318460837BD4680BD000C0E40C4
:1042C00080B584B000AF786039603B68802B01D93D
:1042D000112325E03B689B001A467968124800F0DC
:1042E000D1FF4FF48003BB600023FB600AE0BB6892
:1042F0001A1DBA600C49FA6851F822201A60FB684E
:104300000133FB60FB687F2BF1D9002212210748A3
:10431000FFF7BCFE0346002B01D0102300E0002372
:1043200018461037BD4680BD9C0B4020000C0E4047
:1043300080B500AF002213210248FFF7A7FE034615
:10434000184680BD000C0E4080B400AF034B044AF9
:104350001A6000BFBD465DF8047B704700180E4030
:10436000010000A580B400AF044B1B680133034A71
:10437000136000BFBD465DF8047B70479C0D402074
:1043800080B500AF00F0AEF900F0A8FD054B1B684A
:10439000B3F5FA6FF8D3034B00221A600248FFF717
:1043A000E7FEF1E79C0D402050180E4080B483B02A
:1043B00000AF0346FB71094997F907305B09FA79A9
:1043C00002F01F02012000FA02F241F8232000BF90
:1043D0000C37BD465DF8047B704700BF00E100E08C
:1043E00080B483B000AF0346FB71094997F90730E9
:1043F0005B09FA7902F01F02012000FA02F2203371
:1044000041F8232000BF0C37BD465DF8047B7047A0
:1044100000E100E080B483B000AF0346FB710949BE
:1044200097F907305B09FA7902F01F02012000FAC0
:1044300002F2603341F8232000BF0C37BD465DF81F
:10444000047B704700E100E080B483B000AF034616
:104450003960FB7197F90730002B0BDA0D49FB79B6
:1044600003F00F03043B3A68D2B25201D2B20B44BC
:104470001A7609E0084997F907303A68D2B2520132
:10448000D2B20B4483F8002300BF0C37BD465DF861
:10449000047B704700ED00E000E100E080B582B0F1
:1044A00000AF78607B68013BB3F1807F01D30123CB
:1044B0000FE00A4A7B68013B536007214FF0FF3051
:1044C000FFF7C2FF054B00229A60044B07221A60D7
:1044D000002318460837BD4680BD00BF10E000E04D
:1044E00080B483B000AF78607B68072B25D801A229
:1044F00052F823F0154540001B454000214540007F
:10450000274540002B4540002F45400033454000E3
:10451000374540004FF4FA4310E04FF400430DE0FC
:104520004FF400430AE0084B08E0084B06E0084B54
:1045300004E0074B02E0064B00E0002318460C376E
:10454000BD465DF8047B704700093D0000127A000B
:10455000001BB70080B500AF0620FFF7C1FF024681
:1045600013469B0013449A001344184680BD00BFB5
:1045700080B500AFFFF7EEFF0346184680BD00BFD1
:1045800080B582B000AF78607868FDF74DFF00BF5E
:104590000837BD4680BD00BF80B500AF0A20FFF7D9
:1045A000EFFF0B20FFF7ECFF1020FFF7E9FF00BF44
:1045B00080BD00BF80B500AFFFF7DAFF0246044BB5
:1045C000A3FB02239B091846FFF768FF00BF80BDCD
:1045D000D34D621080B582B000AF06210020FFF7F6
:1045E00023FE786000BF0837BD4680BD80B586B029
:1045F00000AF78607B684FF47A7202FB03F34FF4EC
:1046000000411846FFF76CFD7861114B3B617B69F7
:104610009AB27B699BB239690E48FFF789FD4FF466
:1046200000410C48FFF7BAFD0346FB600420FFF78A
:10463000D7FE0420FFF7EEFE00210420FFF704FF61
:104640000420FFF7B3FE00BF1837BD4680BD00BF92
:104650000010003050180E4080B584B000AF3B46CB
:1046600001211846FFF70EFEF8603B68042B0ED0C0
:104670003B68692B02D104233B6008E03B68032BB5
:1046800003D83B6801333B6001E000233B60FFF748
:104690004FFEF8603B4601211846FFF711FEF86017
:1046A0003B4601211846FFF7EDFDF8603B68032B00
:1046B0000FD84FF484031B687B607B6883F3088802
:1046C000064B4FF484029A60054B1B68BB60BB68C5
:1046D000984700BF1037BD4680BD00BF00ED00E029
:1046E00004004200F8B500AFFCF74AF8FFF772FF8C
:1046F0002220FDF799FEFFF74FFFFFF739FF034632
:1047000019464FF000020B461446DB1844EB040434
:104710005B1844EB0204660146EAD3665D015B194F
:1047200044EB06045B1844EB020441F22B714FF09A
:1047300000025D1844EB02062846314641F22C7215
:104740004FF0000300F0ECFB03460C46184600F067
:10475000EFFDFFF781FFFFF72DFF40F6B830FFF7C1
:1047600045FFFCF71BFF00BFF8BD00BF80B483B05E
:1047700000AFEFF310837B607B68002B0CBF01233D
:104780000023DBB23B6072B6BFF35F8F044B0022A5
:104790001A703B6818460C37BD465DF8047B7047BD
:1047A0006002402080B483B000AF78607B68002B4B
:1047B00014BF01230023DBB218460C37BD465DF859
:1047C000047B704780B582B000AF78607868FFF7EF
:1047D000E9FF0346002B05D0044B01221A70BFF3FA
:1047E0005F8F62B600BF0837BD4680BD60024020C3
:1047F00080B483B000AF78607B68072B25D801A216
:1048000052F823F0254840002B4840003148400032
:10481000374840003B4840003F4840004348400084
:10482000474840004FF4FA4310E04FF400430DE0D6
:104830004FF400430AE0084B08E0084B06E0084B41
:1048400004E0074B02E0064B00E0002318460C375B
:10485000BD465DF8047B704700093D0000127A00F8
:10486000001BB70080B500AF0620FFF7C1FF02466E
:1048700013469B0013449A001344184680BD00BFA2
:1048800080B500AFFFF7EEFF0346184680BD00BFBE
:1048900080B584B000AF0346FB71FCF7C5FB03464F
:1048A000BB810023FB812BE0194BB3F858329BB23C
:1048B0005A1C91B2164AA2F858121A46144B1344C5
:1048C00001211846FCF74EFC114BB3F858329BB24D
:1048D000B3F5167F03D10E4B0022A3F858220C4BE0
:1048E000B3F858329AB20A4BB3F85A329BB29A4292
:1048F00003D1074B012283F85C22FB890133FB8142
:10490000FA89BB899A42CFD300BF1037BD4680BD1C
:10491000A40D402080B485B000AF78607B68002291
:10492000A3F858227B680022A3F85A227B68002251
:1049300083F85C220123FB6007E07A68FB6813447C
:1049400000221A70FB680133FB60FB68B3F5167F29
:10495000F3DB00BF1437BD465DF8047B704700BF32
:1049600080B485B000AF78600B467B8013467B70C7
:104970007B68B3F85A32FB81FA897B881344FB8148
:10498000FB89B3F5167F03D3FB89A3F51673FB816F
:104990007B78002B03D07B68FA89A3F85A22FB8925
:1049A000DBB218461437BD465DF8047B704700BF84
:1049B00080B485B000AF78600B467B8013467B7077
:1049C0007B68B3F85A32FB81FA897B889A4204D318
:1049D000FA897B88D31AFB8109E07B68B3F85A32E5
:1049E0009AB27B88D31A9BB203F51673FB817B784E
:1049F000002B03D07B68FA89A3F85A22FB89DBB22B
:104A000018461437BD465DF8047B704780B483B008
:104A100000AF78607B68B3F858329AB27B68B3F81D
:104A20005A329BB29A420AD37B68B3F858329AB290
:104A30007B68B3F85A329BB2D31A9BB20CE07B6806
:104A4000B3F858329AB27B68B3F85A329BB2D31A91
:104A50009BB203F516739BB218460C37BD465DF842
:104A6000047B704780B582B000AF78600B467B80D6
:104A70007B88002219467868FFF772FF03461A46C2
:104A80007B689B5C18460837BD4680BD90B583B0F7
:104A900000AF78600B467B807B88002219467868DF
:104AA000FFF786FF03461A467B689B5C1C467B88A3
:104AB000013B9BB2002219467868FFF779FF034655
:104AC0001A467B689B5C1B021C437B88023B9BB2A3
:104AD000002219467868FFF76BFF03461A467B6889
:104AE0009B5C1B041C437B88033B9BB20022194642
:104AF0007868FFF75DFF03461A467B689B5C1B06E0
:104B0000234318460C37BD4690BD00BF90B585B015
:104B100000AF03463960FB711346BB800021386843
:104B2000FFF7A0FF03469CB201213868FFF79AFF08
:104B300003461B029BB2224613439BB2BB81042156
:104B40003868FFF78FFF0346FB72FB7ADB09DBB2A5
:104B5000002B14BF01230023BB72FB7A03F07F03F9
:104B6000FB7202213868FFF77DFF03467B72032149
:104B70003868FFF777FF03463B72BB7A002B0ED0F5
:104B80007B7A9AB23B7A1B029BB213439BB29BB2D5
:104B90000633FB81BA88FB899A4202D20DE00623D4
:104BA000FB81FB89012219463868FFF7D9FEBB89D2
:104BB0003A7AF879396800F013F81437BD4690BD99
:104BC00080B500AF4FF48400FFF740FB024B034A6F
:104BD0001A6000BF80BD00BF00180E40010000A594
:104BE00090B5ADF2944D02AF0446384601601046D0
:104BF0001946FB1D22461A70BB1D02461A703B1D4A
:104C00000A461A8007F10C0318464FF400731A463F
:104C1000002100F042FB3B1D1B88A72B00F0D38036
:104C2000A82B23D02F2B00D0D0E007F50373002250
:104C30001A7007F5037300225A7007F503730122F7
:104C40009A7007F503730122DA7007F50372FB1DF2
:104C5000187811230193012300930423302100F0DD
:104C600009F93B461868FFF755FEAFE03B464FF4A5
:104C700001711868FFF70AFFC7F87804D7F878348D
:104C800003F58003C7F87834D7F87834C7F874345C
:104C9000D7F87834C3F31003002B05D1D7F8780484
:104CA000FFF7D4FAC7F87004D7F87834C7F86C3433
:104CB0000023C7F8843415E0D7F884349B00D7F874
:104CC0006C24D018D7F884349B000A333A46126813
:104CD00013440422194600F0D5FAD7F8843401337E
:104CE000C7F88434D7F884347F2BE5DDFFF73EFD29
:104CF000C7F86804384B1B881B021A46374B134011
:104D0000374A1A431146374800F002FBC7F86404DB
:104D1000D7F86804FFF756FD2F4B1B8801339AB272
:104D20002D4B1A80D7F86434002B01D0FFF748FFD1
:104D30000023C7F8803411E0D7F88034D7F8742402
:104D40001344197807F10C02D7F8803413440A464B
:104D50001A70D7F880340133C7F88034D7F880341C
:104D6000B3F5007FE8DB0023C7F87C3414E007F1DB
:104D70000C02D7F87C3413441A78D7F87C340A3301
:104D800039460968CB5C9A4201D0FFF719FFD7F882
:104D90007C340133C7F87C34D7F87C34B3F5007F1A
:104DA000E5DB07F10C02FB1D1878112301930123A9
:104DB00000934FF40073A92100F05CF83B4618689B
:104DC000FFF7A8FD02E000F00FF800BF00BF07F2F8
:104DD0008C47BD4690BD00BF6202402000FFFF002F
:104DE0000100005A000C0E40F0B583B000AF002364
:104DF0003B60FFF79DFA7860FFF742FD03464FF0F6
:104E00000004DB1844EB0404A60046EA93769D00F8
:104E10005B1944EB060441F22B714FF000025D1860
:104E200044EB02062846314641F22C724FF0000353
:104E300000F076F803460C46184600F079FA3B4637
:104E400001211846FFF73CFA786000F005F800BF32
:104E50000C37BD46F0BD00BF80B400AF034B044A21
:104E60001A6000BFBD465DF8047B704700180E4015
:104E7000010000A580B586B000AFBA601A460346AF
:104E8000FB730B46BB811346FB80BB89DBB23B74D3
:104E9000BB891B0A9BB2DBB27B74FB88DBB2BB74A1
:104EA000FB881B0A9BB2DBB2FB7497F8203063F0DF
:104EB0007F03DBB23B7597F824307B7507F1100355
:104EC00006211846FCF740FAFB881946B868FCF73B
:104ED0003BFA00BF1837BD4680BD00BF80B582B029
:104EE00000AF0E4B93F85C32DBB2002B03D00B48C3
:104EF000FFF710FD0FE00948FFF788FD0346FB8030
:104F0000FB889BB2052B06D9FB889BB21A46034946
:104F10000020FFF7FBFD0837BD4680BDA40D4020F3
:104F200053B94AB9002908BF00281CBF4FF0FF3110
:104F30004FF0FF3000F07EB9ADF1080C6DE904CE02
:104F400000F006F8DDF804E0DDE9022304B0704764
:104F50002DE9F0478C460E460446089D002B50D1A3
:104F60008A4217466CD9B2FA82FEBEF1000F0BD00E
:104F7000CEF1200420FA04F401FA0EF644EA060CFD
:104F800002FA0EF700FA0EF44FEA1749220CBCFBA6
:104F9000F9F01FFA87F809FB10C642EA064600FB43
:104FA00008F3B34209D9F61900F1FF3280F02281EB
:104FB000B34240F21F8102383E44F61AA2B2B6FB59
:104FC000F9F309FB136642EA064403FB08F8A0451F
:104FD00009D9E41903F1FF3280F00A81A04540F2BB
:104FE0000781023B3C44C8EB040443EA0040002133
:104FF000002D62D024FA0EF400232C606B60BDE813
:10500000F0878B4207D9002D55D0002185E841005B
:105010000846BDE8F087B3FA83F1002940F090809C
:10502000B34202D3824200F2F880841A66EB030690
:105030000120B446002D40D085E81010BDE8F0876F
:1050400012B90127B7FBF2F7B7FA87FEBEF1000FDE
:1050500035D1F31B4FEA17481FFA87FC0121B3FB38
:10506000F8F0220C08FB103642EA06460CFB00F36F
:10507000B34207D9F61900F1FF3202D2B34200F26F
:10508000CE801046F61AA2B2B6FBF8F308FB136600
:1050900042EA06440CFB03FCA44507D9E41903F1DA
:1050A000FF3202D2A44500F2B5801346CCEB0404D3
:1050B00043EA00409CE729462846BDE8F087CEF148
:1050C000200106FA0EF307FA0EF720FA01F94FEA6B
:1050D0001748CE4049EA0309B6FBF8FA4FEA1944EB
:1050E00008FB1A661FFA87FC44EA06430AFB0CF227
:1050F0009A4200FA0EF40AD9DB190AF1FF3180F066
:1051000087809A4240F28480AAF1020A3B449B1AAB
:105110001FFA89F9B3FBF8F108FB113349EA03439D
:1051200001FB0CF69E4207D9DB1901F1FF326BD26D
:105130009E4269D902393B449B1B41EA0A418EE7F2
:10514000C1F1200E22FA0EF48B40234320FA0EF711
:1051500006FA01F44FEA134C26FA0EF63C43B6FB6E
:10516000FCF9270C0CFB19661FFA83F847EA064680
:1051700009FB08F7B74202FA01F200FA01FA08D96E
:10518000F61809F1FF3041D2B7423FD9A9F102091F
:105190001E44F61BA0B2B6FBFCF40CFB146640EAFE
:1051A000064704FB08F8B84507D9FF1804F1FF309B
:1051B00028D2B84526D9023C1F4444EA0940C8EB2E
:1051C0000707A0FB02894F4544464E4614D329D019
:1051D00065B3BAEB040367EB060707FA0EFECB4094
:1051E000CF404EEA030385E888000021BDE8F08740
:1051F0001346F8E61046E0E6B8EB020469EB030656
:105200000138E5E70446D8E7114695E78146C0E74F
:105210008A467CE7023B3C4448E708460AE70238F6
:105220003E442FE7C245E7D33E46D1E72946BDE8D5
:10523000F08700BF704700BF70B50E4B0E4CE41AEC
:10524000A41000251E46A54204D056F825309847E4
:105250000135F8E700F046F8084C094BE41AA410B1
:1052600000251E46A54204D056F825309847013542
:10527000F8E770BDF0524000F0524000F452400098
:10528000F052400010B5431E0A44914204D011F878
:10529000014B03F8014FF8E710BD02440346934267
:1052A00002D003F8011BFAE770470000000000007D
:1052B0000000000000AAAAAAAAAAAAAAAAEEEEEED4
:1052C000EEEEEEEEEEFEFFFFFFFFFFFFFFFFFFFF44
:1052D000FF7FBFDFEFF7FBFDFC7EBFDFEFF7FBFDDE
:1052E0007E000000F8B500BFF8BC08BC9E467047C1
:1052F000C9014000F8B500BFF8BC08BC9E46704725
:1053000001B40248844601BC604700BF0D00402044
:1053100001B40248844601BC604700BFCD00402074
:1053200001B40248844601BC604700BFB100402080
:1053300001B40248844601BC604700BF0100402020
:04534000A101400087
:085344000CFCFF7F01000000DA
:10534C00BFF35F8F0138FBD1704700BF80B489B0C9
:10535C0000AFF860B9607A603B604FF48003BB61CA
:10536C003B68002B01D102233CE0FB681B6843F433
:10537C008032FB681A60BB68DBB243F0B442FB6856
:10538C005A60FB689B687B617B6903F00103002B0F
:10539C00F7D10023FB610CE0FB699B003A681344D6
:1053AC00FA699200B9690A4412681A60FB69013300
:1053BC00FB61FA69BB6A9A42EED37B68DBB243F0BD
:1053CC00B442FB685A60FB689B687B617B6903F0A5
:1053DC000103002BF7D0FB681B6823F48032FB68B9
:1053EC001A60002318462437BD465DF8047B7047CD
:1053FC0080B483B000AF786039607B683A681A601B
:10540C0000BF0C37BD465DF8047B704780B485B097
:10541C0000AF786039607B683A685A607B689B683B
:10542C00FB60FB6803F00103002BF7D0FA68044B18
:10543C00134018461437BD465DF8047B704700BF17
:10544C000E000F0000093D005D084000750A400089
:10545C00C90A4000990B4000000000008909400077
:10546C00950A4000890B4000990B4000A90B4000A5
:10547C0012010002020000401313032F000201026C
:10548C00000100000A0600020200004001000000BA
:10549C0009024300020100C03209040000010202AB
:1054AC000100052400100104240202052406000159
:1054BC0005240103010705830340001009040100C2
:1054CC00020A0000000705810240000007050202E5
:1054DC004000000009024300020100C03209040030
:1054EC00000102020100052400100104240202053F
:1054FC002406000105240103010705830340001065
:10550C0009040100020A00000007058102000200E4
:10551C000705020200020000080140201C01402087
:10552C0050014020D801402094014020D801402057
:10553C0030014020E0014020300140204401402057
:10554C00E8014020000000000403090454686F7255
:10555C006C6162730000000054686F726C6162735E
:10556C00204D434D20426F6F746C6F616465720007
:10557C00000300000000000000000000000000001C
:10558C00000000000000000000000000000000000F
:10559C0000000000000000000000000000000000FF
:0455AC0001000001F9
:0400000500400201B4
:00000001FF
